:020000041000EA
:1000000000B5324B212058609868022188439860DF
:10001000D860186158612E4B002199600221596106
:100020000121F02299502B49196001219960352056
:1000300000F044F80222904214D00621196600F024
:1000400034F8196E01211966002018661A6600F04E
:100050002CF8196E196E196E052000F02FF8012189
:100060000842F9D1002199601B49196000215960AB
:100070001A491B48016001219960EB211966A021F2
:10008000196600F012F800219960164914480160C1
:100090000121996001BC002800D000471248134993
:1000A000086003C880F30888084703B5996A0420EC
:1000B0000142FBD001200142F8D103BD02B5186610
:1000C0001866FFF7F2FF186E186E02BD00000240BE
:1000D000000000180000070000035F00212200005C
:1000E000F4000018222000A00001001008ED00E03C
:1000F00000000000000000000000000074B24E7A12
:1001000000200420F7010010C3010010C5010010F9
:10011000C1010010C1010010C1010010C101001097
:10012000C1010010C1010010C1010010C701001081
:10013000C1010010C1010010C9010010CB01001065
:10014000CD010010CD010010CD010010CD01001037
:10015000CD010010CD010010CD010010CD01001027
:10016000CD010010CD010010CD010010CD01001017
:10017000CD010010CD010010CD010010CD01001007
:10018000CD010010CD010010CD010010CD010010F7
:10019000CD010010CD010010CD010010CD010010E7
:1001A000CD010010CD010010CD010010CD010010D7
:1001B000CD010010CD010010CD010010CD010010C7
:1001C00000BE00BE00BE00BE00BE00BE00F04BF888
:1001D000103800BEF2EB8871BCF20010E4F200109F
:1001E0003402001090A31AE700202149086006C8D5
:1001F00081F3088810471F48006800282FD10DA4FC
:100200000ECC002902D000F012F8F9E71A491B4A77
:10021000002000E001C19142FCD1194988471949E9
:1002200088471949884700BEFDE701C901C29A42C3
:10023000FBD37047E4F20010C00000207C67002070
:10024000A05901100000042000000420A059011052
:1002500000100420001004200000000070470B482C
:1002600004F0AAFE0047EFF30580C0B2704700001B
:1002700008ED00E0000000D0806700206CDD002069
:1002800029350010390600103D3600105756000081
:1002900006005250ABB360532CE5001006005250DC
:1002A000861C03023CE50010060052505422A29D19
:1002B00054E5001005005250DE65F468A0590110A5
:1002C000F8B5C0460448054B10B5834203D0044B33
:1002D000002B00D0984710BD7C6700207C67002071
:1002E0000000000006480749091A8B10C90FC918F9
:1002F00010B5491003D0044B002B00D0984710BD17
:100300007C6700207C6700200000000010B5074CCF
:100310002378002B09D1FFF7D5FF054B002B02D026
:10032000044800E000BF0123237010BD886800204E
:1003300000000000A0C90010054B10B5002B03D031
:100340000449054800E000BFFFF7CCFF10BDC046E0
:10035000000000008C680020A0C9001010B501F05A
:10036000A9FAFCE7D0231B068021490559628022A7
:1003700092025A6299619A61704710B5012000217A
:1003800002F004FD10BDD0231B06802252055A62E4
:100390009A617047D0231B06802252059A627047EB
:1003A000D0231B06802292025A629A617047D023A2
:1003B0001B06802292029A627047D0231B065B685C
:1003C0001B0F01201840704710B50400FFF7DBFF3A
:1003D0002000FFF7D2FF2000FFF7E2FF2000FFF729
:1003E000CCFF10BD10B50400FFF7E1FF2000FFF7C0
:1003F000C4FF2000FFF7CEFF2000FFF7BEFF10BDB7
:1004000070B504000D00002614E02000FFF7C2FFC5
:100410002000FFF7B2FF2000FFF7C9FF2000FFF721
:10042000ACFF2000FFF7BCFF2000FFF7A6FF6D0028
:10043000EDB20136072E06DC6BB2002BE5DB2000A7
:10044000FFF7A1FFE4E72000FFF7A4FF2000FFF77C
:10045000AEFF2000FFF791FF64252000FFF7ADFFFE
:10046000002803D0013D002DF7D100E00125200038
:10047000FFF796FF2000FFF780FF280070BD10B542
:100480001C2001F0FDFE112001F0FAFE10BDF8B5B0
:10049000CE46474680B506000F0015009846089BDB
:1004A00099460068FFF790FF31794900C9B230687A
:1004B000FFF7A6FF4346002B01D000240AE04021AD
:1004C0003068FFF79DFFF8E780213068FFF798FF5D
:1004D00005E00134BC420BDA4346002BF4D1297805
:1004E0003068FFF78DFF4B46002BF2D10135F0E766
:1004F0003068FFF777FF0CBC90469946F8BD70B5A1
:1005000084B0CC17640E09197F231940091BD31737
:100510009B0ED2183F242240D21AD317383C1C40DD
:10052000A418E410503C03AA1470CD172E0F8C1998
:100530000F231C40A41B54702B405B181B1110335D
:1005400093700023009301330321FFF7A0FF04B051
:1005500070BD00B585B00F226A440023137000936C
:100560000121FFF794FF05B000BD0000F0B5C646BD
:1005700000B582B005000E00080007F023FA07005E
:100580000024BC4213DA731C98463378203B9A004F
:10059000D218094BD2180023009305212800FFF739
:1005A00076FF2800FFF7D5FF01344646E9E702B0A1
:1005B00004BC9046F0BDC04618CA001030B583B0E8
:1005C000050000240DE0220000212800FFF797FF1E
:1005D000012300930023054A80212800FFF757FFDD
:1005E00008343F2CEFDD03B030BDC0463F6A002029
:1005F00010B582B004000068FFF7B4FE00230C4A77
:10060000934201DC0133FAE72068FFF7DDFE206842
:10061000FFF7E8FE002300930133064A1E21200065
:10062000FFF735FF2000FFF7C9FF02B010BDC0463D
:100630000F270000F8CB0010F0B5DE4657464E46B7
:100640004546E0B597B005F049FF104805F00AFFB0
:100650000F4805F037FF032001F012FE142001F0CF
:100660000FFE072001F00CFE062001F009FE02201B
:1006700001F006FE132001F003FE122001F000FE3F
:10068000102001F0FDFD00240AE0C046A0C90010C2
:10069000B4C90010A200F14BD05801F0F1FD0134B3
:1006A000072CF7DDD02424060823A36280235B03F4
:1006B000A3628023A362403BA3623C3BA3621B2056
:1006C00001F0DEFD80231B0563616362FF221202DD
:1006D000A26263618021090361628022D2026262A8
:1006E00080235B0263626161A261A361152001F056
:1006F000C7FD80239B036362A361162001F0C0FD48
:100700008023DB036362A361D54805F0DBFED54897
:10071000FFF7B5FED448FFF76BFF00F011FDD3489B
:1007200006F09EF900210F2003F024F9D04B186841
:10073000D04906F005F8D04B1860D04B1868D04966
:1007400005F0FEFFCF4B1860CF4DD049286805F06B
:10075000F7FFCF4C2060CF4B1868CF4905F0F0FF72
:10076000CE4B18602D68CE4B1E682768002300937F
:10077000013305223100280006F06CF8C94B9D4278
:1007800000D1D8E10721052001F048FD0022012118
:10079000052001F05BFD0023159380235B0212937B
:1007A000F8235B021393C0231B031493102212A996
:1007B0000EA805F0EFFC3A000832FB0112031343C8
:1007C0000F9310220EA912A805F0E4FC159BB64A5F
:1007D0001A40A0239B0213431593139BB34A1A405C
:1007E000A023DB0413431393149B0293B04A1A40D3
:1007F0008023DB0213431493052003F05BF805F01C
:10080000F3FBAC4905F095FB804605F015FC84B27E
:10081000002C00D191E1200005F0E6FB011C4046D0
:1008200005F07DFB8721C90505F099FB05F004FC67
:10083000C0B2000224042043129012AB3A003100EF
:10084000280006F03FF82A680123B3409A43134377
:100850002B60904B1D68984B1E68904B1F681023AF
:1008600010223100280005F087FF102310223100EC
:10087000280005F0B7FF8B4B9D4200D15FE10721B7
:10088000042001F0CBFC0023159380235B0212931C
:10089000F8235B021393C0231B031493102212A9A5
:1008A0000EA805F077FCFA1CFB011203134380220B
:1008B000D205119281490B4013430F9310220EA9C8
:1008C00012A805F067FC149B7D4A1A4080231B0385
:1008D00013431493159B02937A4B029A13400422FC
:1008E0001A4380235B031343774A1340802252014B
:1008F00013431593052002F0DDFF05F075FB6D49EC
:1009000005F017FB804605F097FB84B2002C00D160
:1009100017E1200005F068FB011C404605F0FFFAD6
:100920008721C90505F01BFB05F086FBC0B200025C
:1009300024042043129012AB3A003100280005F045
:10094000C1FF2A680123B3409A4313432B60484BED
:100950001D685E4B1E68484B1F68002400940123ED
:100960000C223100280005F075FF159480235B02EE
:100970001293F8235B021393C0231B0314931022DA
:1009800012A90EA805F006FC3A000832FB0112037A
:1009900013430F9310220EA912A805F0FBFB159B21
:1009A000414A1A40C023DB0213431593139B3F4A6D
:1009B0001A40C0231B0513431393149B02933C4A14
:1009C0001A408023DB0213431493052002F072FFC8
:1009D00005F00AFB3E4905F0ACFA804605F02CFB19
:1009E00084B2002C00D1AEE0200005F0FDFA011C1D
:1009F000404605F094FA8721C90505F0B0FA05F0E4
:100A00001BFBC0B2000224042043129012AB3A0038
:100A10003100280005F056FF2A680123B3409A43AD
:100A200013432B602B4A13680133136012AB0EAAD9
:100A30000DA9294801F09AFB041E00D085E0002C86
:100A400000D188E0084C152200212000FFF757FD57
:100A500022492000FFF78AFD42E0C04658020020EC
:100A6000C8C90010780200207C0200205D0300103D
:100A70006C5A002018CC0010406A0020705A0020E8
:100A800034CC0010308E0020785A002044CC001066
:100A9000289600207C5A002060CC00105897002037
:100AA000386A002000002050FF7FF0FFFFFFFFE0CA
:100AB000FFFF0AFE00006149805A0020FFFFFF9FF0
:100AC000FFFFF5C1E0FF0FFCFF83FFFFF869002087
:100AD000000096473C690020D0FB0100DCC90010F3
:100AE000D02212065168C9080123194002915168A9
:100AF000090D19400E005168890919400391516888
:100B0000C909194004915268920813401D00B74862
:100B100005F0A8FC05F096FCB54C2000FFF74EFD53
:100B2000002200212000FFF7EAFCB2492000FFF775
:100B30001DFDAA46C5E0062125E6002079E606212E
:100B40009EE60020F3E600205CE7129A0E990D98CD
:100B500001F0D0FA73E7A64C152200212000FFF720
:100B6000CEFCA5492000FFF701FDB9E7A000081859
:100B70004A681A42FCD1C378A04B00221A60B6E042
:100B8000A00008184A681A42FCD1C2789C4C206820
:100B90009C4B1A540130FA21890004F039FA216083
:100BA000B1E0994B1968994B1A68486814000834E9
:100BB0000123A340034200D0A5E0A00008184A6822
:100BC0001A42FCD1C3789EE091490D5CED43516817
:100BD0001942FCD10434A400A5500130FA21890047
:100BE00004F016FA8B4B1960A3E0002A00D0C2E093
:100BF000002B00D0BFE08849086884460220814667
:100C0000CC4460460860086801218843010082489E
:100C1000016001680904090C0160ACE00B9900292E
:100C200000D0B7E07D4908680130FF3008600868EF
:100C3000FE26F60130400860ACE0002F00D1FDE058
:100C4000029B002B11D1002D0FD0D0231B06FF22B9
:100C500012029A62802212055A61002270490A60CB
:100C60008021490299616F4B1A60039B002B12D1BE
:100C70000A9B002B0FD0D0231B06FF2212029A6280
:100C8000802212055A615B461C43E30703D4D0233C
:100C90001B065A615B68002D0AD0D0231B068022F8
:100CA00052029A61013AFF3A9A62802212055A6111
:100CB000099B9A46089B0493079B0393069E059BFA
:100CC0000293574B1B689846002B00D169E74B4BAA
:100CD0001B68002B0BD04C4B19684C4B1A684868AA
:100CE000140008340123A340034200D13EE7464BE1
:100CF0001968464B1A684868140008340123A34059
:100D0000034200D13CE7474B1F68002F11D0464BF0
:100D10001A68464B1C68516820001030012383403C
:100D20000B4206D13B49086841490968884200D016
:100D30004AE7D02109064C68E3089B4601201D00C4
:100D4000054005954B681B0D02001A4006924B6842
:100D50009B0904001C400A9407944C68E4090300B2
:100D6000234008934C68A408010021400B9109918D
:100D7000012E00D139E7002E08D1002A06D0002B21
:100D800004D1254E316801200843306050460128C7
:100D900000D143E70499002905D1002B03D01E4858
:100DA00001601E480160002D00D049E70A99002922
:100DB00000D1D2E0D0231B06FF2212029A628022C9
:100DC00012055A614346002B00D036E7194B1B68C9
:100DD000002B00D131E70A4B1A68174B1A60012328
:100DE0000F4A1360054A136027E7C046A0C90010E8
:100DF0007C02002000CA0010F0C90010F069002039
:100E00000469002014A300206C5A0020F869002017
:100E1000348E002048690020086A00200C6A0020F7
:100E2000F4690020246A0020705A0020745A0020BF
:100E300044690020FC68002008690020644B1F689A
:100E4000644B1B689A46644B1B6898468026F602E2
:100E5000330032005146380005F08EFC330032007A
:100E60005146380005F0BEFC5C4B9F4271D0072113
:100E7000122001F0D3F90023159380235B02129313
:100E8000F8235B021393C0231B031493102212A9AF
:100E90000EA805F07FF94346DA1CDB011203134369
:100EA0008022D20511924E490B4013430F9310221A
:100EB0000EA912A805F06EF9149B4A4A1A40802325
:100EC0001B0313431493159B0493474B049A13403D
:100ED00012221A4380235B031343444A1340902297
:100EE000D20113431593052002F0E4FC05F07CF8D1
:100EF0003F4905F01EF8814605F09EF886B2002EA7
:100F000029D0300005F070F8011C484605F007F8BC
:100F10008721C90505F023F805F08EF8C3B21B023E
:100F200036041E43129612AB42465146380005F075
:100F3000C9FC3A6801210B00504683409A43134391
:100F40003B60D0231B06802252025A61294B196054
:100F500076E606218CE70023E1E7D0210906802010
:100F600040028861802000058861FF2000024862FD
:100F7000214E3768214E36683E43214FBE5D360212
:100F80004E617040886100211E480160194801606F
:100F9000002B08D0002A00D052E6D0231B06802266
:100FA00012059A614CE6D0231B06802212059A6135
:100FB000FF2212025A621049096810480068014372
:100FC0000F48415C090259614A409A6138E6C046BF
:100FD000705A0020745A0020308E002000002050EB
:100FE000FFFFFF9FFFFFF5C1E0FF0FFCFF83FFFF47
:100FF00000009647246A0020086A00200C6A00203E
:1010000084020020F469002001207047704700002E
:10101000014B00221A607047FC69002070470000F5
:10102000014B00221A607047FC680020704770472F
:1010300070477047704770477047704770477047F8
:10104000704770477047704710B50449044800F076
:1010500029FE002800D0012010BDC04670CC001031
:10106000A0D0002010B50449044800F01BFE002861
:1010700000D0012010BDC04680CC0010A0D00020C0
:1010800070B504002378002B0BD00134054D28687F
:10109000054A13540130FA21890003F0B9FF296091
:1010A000F0E770BD506900201C92002010B584B09C
:1010B0000A494B680A680A4C48690390086902901B
:1010C000C8680190896800910649200003F042FF3A
:1010D0002000FFF7D5FF04B010BDC04688BA00203D
:1010E0007CD8002098CC001070B5104B1868104BBD
:1010F0001B68984219D00F4B19680F4B1C684B683E
:10110000250010350122AA401A420ED10B4B1D5C5E
:101110004B681342FCD10434A40065500130FA211D
:10112000890003F075FF014B196070BD5469002000
:10113000506900207C5A0020805A00201C92002018
:1011400000B583B0114805F08DF905F07BF9104B1F
:101150001B6801219940D0231B069961002300934D
:10116000009A0C4B9A4207DC009B009A9B18019353
:10117000009B01330093F3E7D0231B065961002342
:10118000054A1370054A136003B000BDCCCC0010B3
:1011900014CA00109F860100A0D00020A46900207E
:1011A00070B505000024062C0ED8E300074A9958B4
:1011B000280000F077FD002801D10134F3E7E400B6
:1011C000024B1C196368984770BDC046BC5C002088
:1011D00010B50248FFF7E4FF10BDC046449B002055
:1011E00070B50500002400E00134072C0CD8E300A2
:1011F000064A9958280000F055FD0028F4D0E40074
:10120000024B1C196368984770BDC0468C5A002079
:10121000F8B507000E000024B44211DA094B1D682E
:10122000681CFA21890003F0F3FE074B1B68994202
:1012300006D03A5D054B5A55024B19600134EBE775
:10124000F8BDC046F0680020F4680020CCAE002055
:1012500010B5084B1B68002B02D0012B04D010BD29
:101260000548FFF7BDFFFAE7044B19680248FFF78E
:10127000CFFFF4E7845A0020449B0020CC69002073
:10128000F0B5C64600B50A4D0A4E81192B681C1AE6
:10129000631C9846084F1A00380004F07BFF424652
:1012A0003900300004F076FF2C6004BC9046F0BD9D
:1012B000A4690020A0D0002074C2002070B51B4B90
:1012C00018601B4B19601B4B00221A601A4B01322D
:1012D0001A601A4B18601A4B1D68144B1A68002AC2
:1012E00012DD174B196800290EDD12480368154CF2
:1012F000E65C154CE654013303600139104B19606C
:10130000013A0A4B1A60E8E70D4B1D60094B18685B
:10131000FFF7B6FF054B1B68002B05D1064B0022DB
:101320001A60034B1B68984770BDC04600690020D7
:101330009CD0002070C200200C690020CC690020E5
:10134000A4690020A0D00020449B002010B5044BCD
:101350001868FFF795FF034B01221A6010BDC046C5
:10136000B0690020C869002010B5104B1B68002B25
:1013700017D00F4A1368013313600E4B1868FFF73C
:101380007FFF0A4B00221A600B4B1B68002B07D013
:101390000A4B1B68002B00D09847084B00221A60AC
:1013A00010BD044B1868FFF76BFFEDE7C86900201C
:1013B000D0690020B0690020EC690020D4690020C9
:1013C00010B50849084800F06DFC002800D110BD98
:1013D000064B1868FFF754FF054B58680549FFF79F
:1013E0006DFFF4E770CC0010A0D00020B0690020A1
:1013F0000CDA0020D111001010B503010A48C01802
:1014000041680A4800F04EFC002800D110BD084B8E
:101410001868FFF735FF074B1A68074B1A60074B30
:1014200001221A60F2E7C04680D40010A0D000204C
:10143000B06900200CDA002038690020FC68002028
:1014400010B503010648C0184168064800F02AFCA0
:10145000002800D110BD044B1868FFF711FFF9E711
:1014600080D40010A0D00020B069002010B506493B
:10147000064800F017FC002800D110BD044B186886
:10148000FFF7FEFEF9E7C046ECCC0010A0D000202C
:10149000B069002010B50649064800F003FC00289A
:1014A00000D110BD044B1868FFF7EAFEF9E7C0460B
:1014B000FCCC0010A0D00020B069002070B584B032
:1014C0002C492D4800F0EEFB002801D104B070BD7E
:1014D0002A4B1868FFF7D4FE294B1D681D2DF5DC3B
:1014E0000024A5420ADD2B206043264BC018264964
:1014F00006F01CFA00282AD00134F2E70023002B62
:10150000E4D12B335D431F4EA8191F4C210006F078
:1015100051FA28001030801904301C494B680A68C1
:101520004D6903950D690295CD6801958968009113
:10153000174903F00FFD174B1868210006F0F6F964
:10154000002806D00E4A136801331360BEE701235A
:10155000D5E70B4B1A682B235A431032094BD2188C
:1015600004320D4C0D49200003F0F4FC2000FFF77D
:1015700087FDE7E708CD0010A0D00020B06900206B
:10158000F868002010CB002038DB00200CDA0020A7
:1015900050CD0010885A00207CD8002064CD001067
:1015A00070B584B02B492C4800F07CFB002801D199
:1015B00004B070BD294B1868FFF762FE284B1D6808
:1015C0001D2DF5DC0024A5420ADD2B206043254BB0
:1015D000C018254906F0AAF900282AD00134F2E7FC
:1015E0000023002BE4D12B335D431E4EA8191E4C63
:1015F000210006F0DFF928001030801904301B4963
:101600004B680A684D6903950D690295CD6801958F
:1016100089680091164903F09DFC164B186821005B
:1016200006F084F900280CD00D4A136801331360CA
:10163000BEE70123D5E783000C4A99580E4A99501A
:1016400001300528F7DD0D4B0D4A1A600D4B0122C4
:101650001A60E9E77CCD0010A0D00020B06900201E
:10166000F868002010CB002038DB00200CDA0020C6
:1016700050CD0010885A002088BA0020D46900207C
:10168000AD100010EC69002010B50849084800F0C2
:1016900009FB002800D110BD064B1868FFF7F0FDCC
:1016A000054B18680549FFF709FEF4E7B8CD0010AF
:1016B000A0D00020B06900200CDA002051120010E8
:1016C00010B5094806F07EF90200084B1860084C76
:1016D0000849200003F03EFC2000FFF7D1FC064B38
:1016E00001221A6010BDC046B8B20020D86900209F
:1016F0007CD80020C8CD0010FC69002010B51C2249
:101700000349044804F046FDFFF7DAFF10BDC04668
:10171000DCCD0010B8B2002070B50500002400E058
:101720000134282C19D863001B199B000B4A9B5CC1
:10173000032BF5D163001B199B00D31858682900AF
:1017400006F0F4F80028EBD1054B1C60054B012294
:101750001A60054A13680133136070BDD05A002027
:10176000306A0020346A0020206A002070B50B4CDB
:1017700023680B4D082200212800FEF7C0FE09490E
:101780002800FEF7F3FE0848FFF7C6FF074B18686E
:10179000FFF776FD0123236070BDC046006A00207C
:1017A0007C020020F8CD001004CE0010B0690020AB
:1017B00010B503010848C0184168084800F072FAE3
:1017C000002800D110BD064B1868FFF759FD0548E9
:1017D000FFF7A2FFF6E7C04680D40010A0D000209B
:1017E000B06900200CCE001010B503010848C018E5
:1017F0004168084800F056FA002800D110BD064B99
:101800001868FFF73DFD0548FFF786FFF6E7C0467D
:1018100080D40010A0D00020B069002014CE0010A9
:1018200070B504002378002B0BD0064D2868064ABB
:1018300013540130FA21890003F0EAFB29600134D6
:10184000F0E770BD44690020348E002010B5134BC2
:101850001B68002B13D1124B1A68124B1B689A425B
:101860000CD0114AD35C252B10D0482B12D00D4C34
:101870002368581CC82103F0CBFB216010BD0B4826
:10188000FFF7CEFF054B00221A60E4E70748FFF799
:10189000C7FFECE70648FFF7C3FFE8E7C46900208D
:1018A000BC690020C0690020909600201CCE00106A
:1018B00020CE001070B582B000230193FFF7C6FF61
:1018C000FFF712FCBB4B1B68BB4A1068834212D067
:1018D000BA4D2C68BA4B1A5CBA4B1A550130FA2132
:1018E000890003F095FBB44B1960601CFA21890054
:1018F00003F08EFB2960B44B1B68012B10D0B34B57
:101900001A6801321A6018680A2103F081FB002965
:1019100068D1AF4B1A681A6851424A411A6061E0B7
:10192000AC4B1A68002AEAD1AB4B1D68AB4B1B6865
:101930009D42E4D0AA4B002119700EE0A94B195C1E
:10194000541C7F230B40A6498B540130FA21890097
:1019500003F05EFBA14B19602200A04B1868854282
:10196000ECD19F4B00219954FFF7AAFEC7E7964D93
:101970002B68581C032103F04BFB0C0029600D223F
:101980009949974804F006FC012C0DD0022C11D087
:10199000002C03D0FFF794FE02B070BD09229349DA
:1019A0008F4804F0F7FBF5E7102291498C4804F0CA
:1019B000F1FBEFE70E228F49894804F0EBFBE9E7E2
:1019C0008D4C2268501C8D498B54FA21890003F0FC
:1019D0001FFB216069468A4805F080FF894A136829
:1019E00001331360884B1968884B1B6848681C00DA
:1019F00008340122A240024211D120206C462080EE
:101A00000833980008184B681A42FCD1C378DBB23F
:101A10006A461370142BAAD0002BE3D0D0E77C4B7E
:101A20001C68002C23D00EE0754B1C780120FFF7BA
:101A300027FC784A1368591C1160774AD454774AB6
:101A40001368013B1360754B1B68002B03DD6D4A67
:101A50001268002AE8DC002B9ED16D4B00221A6030
:101A60006F4B1B68984797E70120FFF709FC644B11
:101A70001B786C4AD35C1B07F6D40FE022016A4B3B
:101A80009B1859685E4800F00DF9002805D0220126
:101A9000654B9B18DB68200098470134272C15D82C
:101AA0002301614A9B5C012BE8D0022BF5D1220176
:101AB0005D4B9B189B68200098470028EDD02201C1
:101AC000594B9B18DB6820009847E6E7574B1B688B
:101AD000002B00D160E7564B1B68002B0CD1554BF7
:101AE0001B685A00D21892005349525C062A34D817
:101AF000920052498A58974601F0C6F9504B1A682D
:101B00005B688B4200D947E702D1824200D943E7A4
:101B1000474B00221A603FE75A00D3189B00464A01
:101B2000D3185868474E01AA310005F037FE404BE4
:101B300001221A6001F0A8F9019A53019B1A9B0037
:101B40009B18DB001C00DD17001969413C4B186035
:101B5000596031003C4803F0FDF9364B1B685A00D0
:101B6000D21892003449525C042A00D114E70133A0
:101B7000304A136010E75A00D3189B002E4AD3183E
:101B80005968324C200003F0E5F92000FFF778FA9D
:101B9000E3E71348FFF774FADFE7244B00221A60EB
:101BA000DBE75A00D3189B00234AD3189B68984759
:101BB000D3E7C046F0680020F468002044690020A4
:101BC000CCAE0020348E0020845A002040690020D2
:101BD000CC5A0020FC69002004690020086900201C
:101BE000B8B2002014A3002024CE001034CE001080
:101BF00040CE001050CE00104C6900205C970020B1
:101C0000A0D00020A4690020785A0020386A002063
:101C10000C69002070C20020449B00200069002055
:101C20009CD0002025E7001080D40010346A0020EA
:101C30002C6A0020306A0020D05A002064CE0010A8
:101C40008068002060CE001084D000207CD8002066
:101C500010B50A4C23685A1C22609B00084CE050C7
:101C60000E2A01DC012010BD064B07481860074B07
:101C70001960074B1A600020F5E7C046AC690020E8
:101C80000CDA0020F45C002000D70010F85C002083
:101C9000A86900202138C0B25D2801D80020704713
:101CA0000120FCE7F0B5DE4657464E464546E0B516
:101CB0008FB005008B460023B54A1360B54A136008
:101CC000B54A136004E09900B44A002088500133FB
:101CD0000E2BF8DD002306E09A00D2189200B049DE
:101CE000002050540133012BF6DD002600240BE0C8
:101CF000013604E00134A84A136801331360285DFB
:101D0000FFF7C8FF0028F5D100965B469B5D002BCE
:101D100000D1CBE12A5D002A00D1C7E1202BE7D01A
:101D2000252B09D001340136934200D0D5E19A4ADF
:101D3000136801331360E7E7711C5B465F185B5C57
:101D4000002B0ED05B2B21D015D8252B11D10134BF
:101D5000252A00D0B5E1904A13680133136002369A
:101D6000D2E7904B904A1A60904B5A461A6000276F
:101D70005CE10E00C8E7642B00D169E1782B03D148
:101D800001239846002024E10E00BDE7814B1B682B
:101D900098469B0043449B00814A00219954023697
:101DA0000023584603E0013604A9CA540133825D7A
:101DB000002A03D05D2A01D0252BF4DD8346252B94
:101DC00000DD80E1002A00D17FE1581C04A9002237
:101DD000CA540A54764B1A6000270123A246009683
:101DE0001C0001951AE0724D2A68724851008E1845
:101DF000B600345481194B6063468B6001322A600F
:101E00000BE06B4802686B4D51008E18B60074559C
:101E1000A9194B608B6001320260013704A805F0FC
:101E2000D1FDB84231D904ABDB5D5E2B2BD0791CE0
:101E300004AA525C2D2AE4D1023704A8C05D84466E
:101E40000028D0D15A4B1B68E0B25A4EB4465F000E
:101E5000FE18B600B14666464D46A8554F46674443
:101E60007A60BA6001335F00FD18AD00A94665468F
:101E70004E4670554F4667447A60BA6001334C4A0B
:101E800013600F00C9E70224C7E75446009E019D76
:101E900000272B004546B0461E0037E000915A004F
:101EA000D218920081464A44526891420CDB580095
:101EB00084469C44604680008446CC4460468068EA
:101EC000814206DDBC4600E0BC460122604602407D
:101ED00007E001229446F8E7012294460122604679
:101EE0000240002A3FD0022D00D19FE0002302AA29
:101EF000537153461B781371A80040198000284B7A
:101F0000C01803A905F0EAFC002F30D033199A4617
:101F1000315D002931D0002F2FD13B00244A1268B7
:101F20009A4222DD5A00D21892002248125C012AFD
:101F3000B4D000915A00D21892001E4881464A44FB
:101F400052689142C8DB580084469C446046800039
:101F50008446CC4460468068814202DD012294467A
:101F6000BCE7BC46BAE70133D8E70127CEE7013426
:101F7000094A136801331360C8E733004646A84690
:101F80001D0043460133034A13600136BCE6C046D8
:101F9000AC690020B4690020B06900200CDA002090
:101FA00038DB0020F45C00200CD70010F85C002027
:101FB000B869002048DA00202D2A28D101235B428D
:101FC00098460134494A1368013313602B5D002B96
:101FD00026D03B78642B3FD0782B45D12A5D4449ED
:101FE0008A5C442111423FD003AB20221A802A5D33
:101FF0001A703B78642BDFD0782BE2D1030199462D
:102000001022002103A805F0D1FE4844D9E783003F
:1020100018184300994603A804F034FD4844D0E75B
:10202000009B5B449B78002B08D0002738000FB042
:102030003CBC90469946A246AB46F0BD434643435E
:1020400018005946FFF704FE071EEFD00127EDE701
:10205000012398460020BCE72A5D2549895C490791
:10206000C2D42D2AB8D1BFE7002C30D0642B13D0B6
:10207000782B2ED12B19013B1B781D4AD35C4422AF
:102080001A4228D04346434318005946FFF7E0FD63
:10209000071ECBD0023637E62A19013A12781449C6
:1020A000895C4907EED42D2AE2D1EBE7002B16D04C
:1020B000202B16D1009B5B445B78002B13D10127AA
:1020C000B4E70027B2E70027B0E70027AEE7270014
:1020D000ACE70027AAE70027A8E70027A6E7012723
:1020E000A4E70027A2E70027A0E7C046B0690020C8
:1020F00025E70010F0B583B004000D00160000F0D5
:10210000FBF8002801D003B0F0BD154F00973B004D
:1021100001220121053001F0CBFA00962B002200AC
:102120000121104801F0DEFD31006943200002F07A
:1021300097FF04000C4B009300220221042001F0C1
:10214000B7FA0094230000220121052001F0B0FA23
:1021500000973B0002220021062001F0A9FAD2E7F5
:10216000006CDC0200800240001BB700F0B5DE46C8
:1021700057464E464546E0B583B080468B460092B2
:102180000193042001F096FBFA21890002F068FF18
:102190008246A0235B0099462CE0013C002C20D015
:1021A00025007D432900300002F05AFF4045F4D15C
:1021B0002900300002F054FF0029EED173019B1B6F
:1021C0009B009E19F6005B461E60009B1F60019BF2
:1021D0001C60012003B03CBC90469946A246AB4629
:1021E000F0BD013F002F01D03C00D7E701235B4247
:1021F0009C46E1444B460F2B09D956464B465E435D
:10220000044BF218044B9A42F0D80727EAE7002063
:10221000E0E7C04680E5F9FF804F120010B583006B
:10222000084A944663441C6840226240C02414401B
:102230008022520113431C60C000034B9C46604443
:10224000416010BD04C001400040014080000B4BC4
:102250009C46604400290DD00823002A0CD004229B
:102260001343026853400C22134080225201104352
:10227000036070470023F0E70022F1E704C001404B
:1022800010B501238340D022120693629361052189
:10229000FFF7C4FF10BD0000EFF3108072B6034BD0
:1022A0001B68002BFBD0BFF35F8F70472C0100D061
:1022B000BFF35F8F024B00221A6080F310887047D3
:1022C0002C0100D0F8B506000C001500FFF7E4FF64
:1022D000E308F718F15C07222240012393400B42E8
:1022E00005D1DBB20B433B70FFF7E2FFF8BD2100E5
:1022F000280001F0C5F90000034B1B6802201840BC
:10230000431E9841C0B2704700C0064000231F2BF7
:1023100008D8054A9A189200BFF35F8F0021116018
:102320000133F4E77047C04640000034054A107896
:10233000431CDBB21370172B02D9130010221A7042
:102340007047C046FC5C002070B504000D000620FC
:1023500001F0B0FAC000290002F082FEC60908D0E0
:102360000E4B9E4217D87F23184001303500460897
:1023700000E001256562A6622C34802080010443C0
:1023800000232360062001F095FA8000A901891935
:1023900002F066FE70BD0026014DEBE7FEFF000077
:1023A000FFFF0000002909D00A22064B9C4660442A
:1023B000434258414000044BC252704780225200B1
:1023C000F3E7C0460080FCBF60DB002070B505006D
:1023D0000C00062001F06EFA002829D0164B9D4211
:1023E00027D08022D203154B1A60154B1A60154B6B
:1023F0009B6811009943FAD100212800FFF7D2FF12
:1024000021002800FFF7A0FF2C002C34E96A60228D
:102410004A406E21114080225201224311600A4B32
:102420002B6380239B01234310221A600323AB6498
:1024300070BD80221204D6E70080034000E0004017
:1024400000F0004000C000400103000070B505002E
:102450000C00080000F00CFD200000F013FE0849FD
:10246000200000F053FDFFF761FF064B9C466044DF
:10247000800068602C75A400034BE55070BDC04619
:102480009127001040000034DC6900200A4B1A68D4
:10249000EFF3108172B61368002BFCD0BFF35F8F8F
:1024A000054B1B68BFF35F8F00221A6081F3108811
:1024B00040BF002000217047046A002010B50029A9
:1024C00022D003681B7B99421ED8174B9C4661445F
:1024D000090183689C4661440C684968002A19D048
:1024E00003681B7B9A4215D883680F488446624470
:1024F00012019A1810685368020001208B4201D81B
:102500000ED00020C0B210BD084B094A3B2109483B
:1025100001F098F8054B064A3B21064801F092F875
:10252000A242EFD8EDE7C046FFFFFF0F80D70010B3
:1025300038DA00103CD7001010B500291ED0037BFC
:1025400099421BD84B005B18033B0468A4466344C4
:10255000002919D0002A1DD0914221D0002A25D06F
:10256000047BA24222D80468500080180338201847
:102570008170197800291FD11A7010BD104B114AB3
:102580006921114801F05EF8104B114A70310E4874
:1025900001F058F80F4B0E4A71210B4801F052F828
:1025A0000D4B0B4A7221084801F04CF8044B054AC8
:1025B0006921054801F046F841701A70DDE7C04610
:1025C000B4D70010F8D90010D0D7001024D80010CC
:1025D00004DA001030D800103CD8001070B50600A6
:1025E0000D001400002914D0002A14D080687368EC
:1025F0009847002806D0220029003000FFF79CFFF2
:10260000280007E02A0021003000FFF795FF200096
:1026100000E0100070BD0800FCE70000F0B583B0DA
:102620000500009201930AAB1C780BAB1F78002CBD
:1026300026D003685A7B944207D10123002B19D17D
:10264000002C3BD1200003B0F0BD002C0CD01A7B35
:10265000944209D81A6863001B19033BD3189B786E
:10266000002BEBD00123E9E73E4B3F4A69213F486D
:1026700000F0E8FF3E4B3F4A65213F4800F0E2FF93
:1026800003689C7B002CDBD012D01A7B94420FD8BD
:1026900062001219033A19688C46624451789973A2
:1026A000002900D1D9730023937053701370C7E7CA
:1026B0002C4B2D4A69212D4800F0C4FF002C3AD044
:1026C0002B681B7B9C4236D82C4BE3181B01AA6855
:1026D00094466344009A1A60019A5A60089A9A6074
:1026E000099ADA602E68002C2BD030D0337B9C42C4
:1026F0002DD863001B19033B3268944663440022C3
:102700009A705A701A70717B22003000FFF766FFD2
:102710007073844200D095E7287D009A019B00F0F9
:102720003DFC061E01D0002F17D00C9B002B00D1C2
:1027300088E71E7086E7124B124A3B210E4800F0D4
:1027400081FF114B114AA621084800F07BFF054B81
:10275000054A6921054800F075FF2868210000F04E
:1027600067FEE2E7B4D70010F8D90010D0D7001008
:1027700054D8001070DA00103CD70010FFFFFF0F94
:1027800080D7001038DA001038D7001018DA00109F
:10279000F0B5DE4657464E464546E0B58BB009904B
:1027A000002308938200B34BD658370052E0B24B57
:1027B000B24A3D21B24800F045FFB24BB24A3B213C
:1027C000B24800F03FFF002901D1002869D1002163
:1027D000404600F023FEA04219D12A686B68069299
:1027E0000793AB689846EB689A464346002B14D093
:1027F000002C18D03B681B7B9C4214D8631EFA68DF
:10280000D35C08931B0218433861002015E0A04BED
:10281000A04A8C219D4800F015FF9F4B9D4A9021B6
:102820009A4800F00FFF974B9C4A4021974800F0D0
:1028300009FF00239A46984600207B68BFF35F8F0C
:1028400000221A6086F310884346002B32D10028FC
:1028500000D107E100F018FB02000B1EA7DB0020EF
:102860000021069007917868EFF3108672B6016830
:102870000029FCD0BFF35F8F396888464C7B002C61
:10288000D7D09AD0097B8C4297D8854965182D01FD
:10289000B9688C46654428686968801A994100299E
:1028A00091DD2A686B68099800F078FB00239A464E
:1028B0009846C2E7089B1B022343994651461800DD
:1028C000C04705000E007A68EFF3108B72B61368EC
:1028D00059424B41D9B2002BF9D1BFF35F8F002E83
:1028E00026DB002E52DD3B69002B53D04B4572D1C5
:1028F00000F0CAFA02000B1E73DB01001800521927
:102900007341984202D804D1914202D90122524225
:10291000D317002B6BDB002104910131039102944A
:1029200051460191414600913800FFF777FE49E09A
:102930003B69002BD5D04B451CD1069A079B100054
:102940001900521BB341994202D804D1904202D9D6
:1029500001225242D317002B12DB002104910131D6
:102960000391029451460191414600913800FFF7CE
:1029700055FE27E04B4B474A9F21444800F062FE3A
:102980003D4B3E4A3D213E4800F05CFE002E01D109
:10299000002DA8D13A68002C45D0537B9C422CD105
:1029A000012100293FD1D37B002B42D1D473002CCD
:1029B00052D03B681B7B9C424ED8FA68013C135DA9
:1029C0000133135500233B617A68BFF35F8F1360B7
:1029D0008BF310883EE7334B2E4AA2212B4800F0A0
:1029E00031FE254B254A3D21254800F02BFE224B88
:1029F000224A3D21224800F025FE002C0DD0137BF9
:102A00009C420AD863001B19033B10688446634448
:102A10009B78002BC5D00121C3E7234B234A6921B2
:102A2000234800F00FFE234B234AF721204800F0F3
:102A300009FE002B0AD0117B8B4207D85900CB1816
:102A4000033B11688C4663445C70AFE7164B174A32
:102A50006921174800F0F6FD0A4B104A40210B4847
:102A600000F0F0FD0BB03CBC90469946A246AB4648
:102A7000F0BDC046DC6900207CD80010E0D9001011
:102A800098D8001080D7001038DA00103CD700101A
:102A9000E8D8001088DA001000D9001044DA0010DD
:102AA000FFFFFF0F0CD90010B4D70010F8D90010A9
:102AB000D0D7001048D9001028DA001010B50A4B02
:102AC0005B68002B04D00A21084800F0FBFA10BD17
:102AD000054C2300064A1021206800F0BFFB0321AB
:102AE0002000FFF7B3FCEEE7005D0020046A002041
:102AF000BD24001010B5064B5B68002B01D00448C4
:102B000010BD044B044A5C21044800F09BFDC04604
:102B1000005D00206CD9001058DA00103CD700107E
:102B2000F0B5DE4657464E464546E0B58BB080468A
:102B300016001F00149B9A46159B994616AB1B78EE
:102B40009B461F2302AA9446634400221A7032E077
:102B5000002809D042461268127B904204D8421ED7
:102B60004146C9688A5C48E0434B444A4021444896
:102B700000F068FD0798002B75D05B46002B72D0E3
:102B80004946D04704000D0003000B4300D171E01B
:102B9000002946DB00F078F906000F1E55DB3619D8
:102BA0006F41B94202D804D1B04202D9012676421F
:102BB000F717002F4FDB43465A68EFF3108472B6C5
:102BC000136859424B41D9B20791002BF8D1BFF39A
:102BD0005F8F1F3302AA9446634404930023039338
:102BE00002934B4601935346009332003B0040460C
:102BF000FFF714FD031EABD1020041464968BFF345
:102C00005F8F00250D6084F31088002B29D01F23CF
:102C100002A98C4663441B78002BABD112021043EF
:102C2000A9E732003B00361BAF41BB4202D804D1BA
:102C3000B24202D901267642F717002FBBDA114BB8
:102C4000114A3D21114800F0FDFC0E4B0E4A3D217A
:102C50000E4800F0F7FC0B4B0B4A3D210B4800F0EF
:102C6000F1FC012040420BB03CBC90469946A24684
:102C7000AB46F0BD0798F6E780D7001044DA0010A5
:102C80003CD700107CD80010E0D9001098D8001074
:102C9000F0B587B006000F00FDF7E5FA00281FD158
:102CA00006246442E517A4197D41BD4202D803D130
:102CB000B44201D900240025002D14DB04940595AD
:102CC00000F0E2F802000B1E13DBA41A9D41002D58
:102CD00017DC14D03000390000F0E2F807B0F0BD86
:102CE000234800F0CDFC234B234A3D21234800F02C
:102CF000A9FC204B204A3D21204800F0A3FC002CD9
:102D0000E8D0FFF7F7FE0023029301931C4B0093DA
:102D1000049A059BFFF704FF002818DADAE700237E
:102D200000E00023002BD5D1164B1A68EFF3108179
:102D300072B61368002BFCD0BFF35F8F114B1B687A
:102D4000BFF35F8F00221A6081F3108820BF0499BF
:102D5000059A0D4B5B6A9A42E3D80B48806A884219
:102D600003D29A42DBD00123DCE70123DAE7C04635
:102D700090D900107CD80010E0D9001098D800102D
:102D80008D240010046A002000400540F8B50400BE
:102D90000D0000F079F802000B1E10DB2000290066
:102DA000801859418B4202D804D1824202D90120B5
:102DB0004042C117002908DBFFF76AFFF8BD064B48
:102DC000064A3D21064800F03DFC034B034A3D21E5
:102DD000034800F037FCC0467CD80010E0D9001052
:102DE00098D8001070B5EFF305833F2018401038D5
:102DF000EFF3108472B6194B1B68002BFBD0BFF3A6
:102E00005F8F012319008140154A5163154A1278DA
:102E10001500C5402B4214D0114B5D6A8300124E41
:102E20009B599D4206D38300104D5B598A430D493F
:102E30000A7007E00A4A031D9B0099589950002325
:102E400000E00023BFF35F8F044A0021116084F388
:102E50001088002B00D0984770BDC046280100D0D4
:102E6000004005403E6A0020106A0020E068002013
:102E700010B50100024A0348FFF724FA10BDC0460E
:102E8000B0DA00103C6A0020044B5B6A034A906A87
:102E90001900536A9942F9D17047C0460040054075
:102EA000074B5B6A8B4204D2054B5B6AFAE7044B23
:102EB0005B6A8B4203D1024B9B6A8342F7D3704714
:102EC0000040054070B504000D00FFF7DDFF020073
:102ED0000B0020002900801859418B4202D804D1F0
:102EE000824202D901204042C117002902DBFFF7CC
:102EF000D7FF70BD024B034A3D21034800F0A2FBFF
:102F00007CD8001044DB001098D8001070B5040085
:102F10000D00EFF3108672B61B4B1B68002BFBD025
:102F2000BFF35F8F002D1CD0200000F03BFD174B3E
:102F300083420BD01900200000F03CFD012120004D
:102F400000F028FD0123A340114A1360A400114B97
:102F5000E550BFF35F8F0C4B00221A6086F3108898
:102F600070BDA2000B4B0021D1500122A2400A49A2
:102F70000B7893430B700549200000F045FD0021BC
:102F8000200000F007FDE4E7280100D0E52D001047
:102F900038600540E06800203E6A0020F0B5DE465B
:102FA00000B584B00400150001921E000293FFF7E3
:102FB0006BFF03958E4202D84ED185424CD9EFF378
:102FC000108B72B6274B1B68002BFBD0BFF35F8FB3
:102FD000254A17780125A540EBB23B431370234BDC
:102FE0005D63221D92000199D150A20020490298F0
:102FF00050501B6A2B4212D11C4B1B6C2B4208D029
:103000000020BFF35F8F174B00221A608BF31088EC
:1030100023E0184B184AC121184800F013FBFFF7B2
:1030200033FF8E4214D802D1039B834210D80E4B3B
:103030001B78BB420ED00D4B1D625D631F20044008
:103040000123A3400E4A1360074B1F701E38D8E7B8
:103050000020D6E70120D4E7012004B004BC934649
:10306000F0BDC046280100D03E6A00200040054067
:10307000106A0020D4DA00105CDB0010F8DA0010CF
:1030800080E200E010B5EFF3108472B60A4B1B68C3
:10309000002BFBD0BFF35F8F01238340074A1362ED
:1030A00007490A789A430A70BFF35F8F024B0022E8
:1030B0001A6084F3108810BD280100D0004005403C
:1030C0003E6A0020024B9C466144890001607047C3
:1030D0004000003470B504000D00FFF727F901002F
:1030E0002000FFF7EFFFFF2323716571BFF35F8FB0
:1030F00070BD10B50021FFF7EDFF10BD10B5FF2129
:10310000FFF7E8FF10BD000010B500291ED0037BBB
:1031100099421BD84B005B18033B0468A4466344E8
:10312000002919D0002A1DD0914221D0002A25D093
:10313000047BA24222D8046850008018033820186B
:103140008170197800291FD11A7010BD104B114AD7
:103150006921114800F076FA104B114A70310E487F
:1031600000F070FA0F4B0E4A71210B4800F06AFA1A
:103170000D4B0B4A7221084800F064FA044B054AD3
:103180006921054800F05EFA41701A70DDE7C0461B
:10319000B4D700101CDD0010D0D7001024D80010C8
:1031A00028DD001030D800103CD8001070B50600A3
:1031B0000D001400002914D0002A14D08068736810
:1031C0009847002806D0220029003000FFF79CFF16
:1031D000280007E02A0021003000FFF795FF2000BB
:1031E00000E0100070BD0800FCE7000010B50023EF
:1031F000437301338373037BC3730123027B9A42BE
:1032000014D9002B0CD0027B934209D85A00D21853
:10321000033A01688C4662440133DBB25370EDE738
:103220000B4B0C4A69210C4800F00CFA002A09D01B
:10323000924207D8016853009A18033A8A1800236B
:10324000537010BD024B034A6921034800F0FAF99C
:10325000B4D700101CDD0010D0D7001010B50173DA
:1032600042608360FFF7C2FF10BD000070B504002C
:10327000081E00D170BD002934D0237B994231D87B
:103280004B005B18033B2268944663445A78002A3B
:10329000F0D02DD0237B9A422AD853009B18033BB1
:1032A00021688C4663445D7800215970002825D040
:1032B000237B984222D843001B18033B21688C468D
:1032C00063440021597001002000FFF76FFF0600E2
:1032D00029002000FFF7CAFF020031002000FFF79D
:1032E00065FFC7E7084B094A6921094800F0AAF9B8
:1032F000054B064A6921064800F0A4F9024B034A2F
:103300006921034800F09EF9B4D700101CDD0010BD
:10331000D0D7001070B505000C001600002928D089
:103320002DD0037B99422AD84B005B18033B0268DF
:10333000944663445A78002A27D19A78002A2AD1E1
:103340001978FFF793FF0300002E03D0EA7B002AD1
:1033500027D1EC73002B37D1002C49D02B7B9C421A
:1033600046D82B6861000C19033C1C1900236370BC
:1033700070BD224B224A3821224800F063F9224BCB
:10338000224A6921224800F05DF9224B1C4A3A2169
:103390001C4800F057F9204B194A3B21194800F00E
:1033A00051F9002A0AD0297B8A4207D851008A188D
:1033B000033A29688C4662445470CAE7124B134A98
:1033C0006921134800F03EF9002B0BD02A7B934271
:1033D00008D843001B18033B2A6894466344002224
:1033E0009A70B9E7084B094A6921094800F02AF99F
:1033F000054B064A6921064800F024F95CDC001000
:103400003CDD001064DC0010B4D700101CDD00109F
:10341000D0D70010A8DC0010D0DC001070B504007C
:103420000A00457B2900FFF775FF6073280070BD17
:1034300070B50400002966D0437B8B420ED0002972
:1034400011D0037B99420ED84B005B18033B0268F6
:10345000D0188378002B0CD1002055E00121FFF714
:10346000DDFF012050E0294B294A6921294800F05D
:10347000E9F8002B1FD0227B93421CD825685A0004
:10348000D318033BEA18EB5C8B421AD0002B1BD0FD
:10349000227B934218D85A00D318033B2268D218D3
:1034A00053788B4216D0002BF0D11B4B1B4A67215F
:1034B0001B4800F0C7F8154B154A6921154800F064
:1034C000C1F84378137007E0104B114A6921114885
:1034D00000F0B8F8437853700023837043700122E2
:1034E0002000FFF717FF0200617B814205D020001A
:1034F000FFF75CFE6073012006E00A4B074A6D216E
:10350000074800F09FF8002070BDC046B4D70010F7
:103510001CDD0010D0D70010F4DC001050DD0010CE
:1035200064DC0010FCDC001070B5264B264A1A60E3
:10353000264B274A1A60274B9A68254B9343FAD1AA
:10354000254C264B9C4202D208CC9847F9E700F064
:1035500031F91E4B224A1A601E4B9B68DB43DB018C
:10356000FAD1204B40229A675A671A67DA661E4CD6
:1035700003E02000FFF7BDFD08341C4B9C4206D23F
:103580006379002BF5D02000FFF7B8FDF4E7184C65
:10359000A168184DC022280002F0FCFDA560FCF7D0
:1035A00062FE002800D000BEFEF7B0FE00F08EFBE9
:1035B000FFF784FA104C01E008CC98470F4B9C426F
:1035C000FAD370BD00E00040BFCDFBFE00F000402C
:1035D000FE7F3C0000C00040686700207867002044
:1035E000FFFFFF0100F001405867002068670020DE
:1035F00000ED00E000000020786700207C670020DC
:1036000000BEFDE703000A4A1268002A08D0084AF3
:103610001068C318074A9A4206D3054A13607047D8
:10362000034A05491160F2E701204042F7E7C0462E
:10363000A0690020000004206CDD002010B5FFF719
:10364000DFFF000010B582B00C001900002A0CD07A
:10365000084B002A0BD00192009323000200064879
:1036600002F030FF0120FFF7CBFF044BF1E7034AE4
:10367000F1E7C04668DD001078DD0010A0D2001030
:103680000FB400B583B0084802F0ECFE049B002B99
:1036900007D005A90191180002F0F2FE034802F0DC
:1036A000E1FE0120FFF7ACFFA8DD001068D200109A
:1036B000F8B5DE4657464E464546E0B505000F00D4
:1036C00092461E000A9B9E424ED3330E9946360206
:1036D0000A9A00233000494601F004FD80466C0040
:1036E0006419A4002E4B9C4664446368834200D254
:1036F00060602B1FDBB29B46012B3BD9C0239B0193
:103700002343802212011A60AB00264A99580029EF
:1037100005D0506901F0A4FC01300138FDD15346B9
:103720005A0123685A40E0231A4080235B01234357
:103730001A605A46012A28D980239B0123438022FC
:1037400012011A6043466360424600233000494636
:1037500001F0C8FCAD00134B585101203CBC904611
:103760009946A246AB46F8BD0F4B104A2D21104892
:10377000FFF768FF012FC1D1C0239B012343032220
:103780001A60A368DB07FCD5C9E7216879400322EA
:103790000A401A60A3680122BA401A42FAD0CBE765
:1037A0000080004010690020B8DD00101CDE001011
:1037B000CCDD001030B583B00C2000F01FFBFEF70D
:1037C0009BFD00280DD00023092B05D899002D4A18
:1037D0002D4888500133F7E72A4B2C4A5A6203B030
:1037E00030BD2B4B00229A6700F010FB294B0122C1
:1037F0001A60274B5B6C012BFBD1274B03221A600D
:10380000234B9B6B012BFBD1022400940533234AED
:103810000121234800F066FA00940523214A012182
:10382000214800F05FFA214B00930022022104207E
:10383000FFF73EFF1E4D00952B00002201210520C1
:10384000FFF736FF104C00942300002200210720D0
:10385000FFF72EFF00942300002200210820FFF72D
:1038600027FF0A4B00932300002200210920FFF7C5
:103870001FFF00952B00002200210620FFF718FFF4
:10388000ADE7C04610690020006CDC021BB70000E9
:10389000008000403CB0004030B00040002F68592C
:1038A0000080024000389C1C00C00240001BB70092
:1038B000405973078000014BC058704710690020C1
:1038C000074B9B68103080001950BFF35F8FBFF328
:1038D0005F8F044B0021196082F310887047C04647
:1038E00000ED00E0240100D010B5091A04394808A1
:1038F000090B05D14005400D044B184380B210BDA3
:10390000034B044A8C210448FFF79CFE00E0FFFFB4
:103910002CDE001014E000103CDE001010B5091A77
:1039200004394C08090B08D14905490D064A1143D1
:103930000180064B2343438010BD054B054A94216B
:103940000548FFF77FFEC04600F0FFFF00F8FFFFCD
:103950002CDE001020E000103CDE0010012383402C
:10396000034A10681840431E9841C0B27047C046D1
:1039700000E100E0002904D0034B1860034B1860FD
:103980007047034B1860FBE780E200E000E100E0D5
:1039900080E100E010B5012383401800FFF7EAFF43
:1039A00010BD0000024B9B6810308000C05870476B
:1039B00000ED00E070B504000D00EFF3108672B664
:1039C0000C4B1B68002BFBD0BFF35F8F2000FFF771
:1039D000E9FF094B984201D0A84205D132002900E5
:1039E0002000FFF76DFF70BD044B054A70210548AC
:1039F000FFF728FE240100D0CD01001084DE001066
:103A0000F8DF00103CDE0010F0B5CE46474680B52A
:103A100083B006000D00EFF3108872B6574B1B6899
:103A2000002BFBD0BFF35F8F554B9A6834001034E6
:103A3000A300D758534B9F4207D0AF4200D19BE021
:103A40000197514BFB1A2F2B09D942463900300000
:103A5000FFF736FF03B00CBC90469946F0BD30002E
:103A6000FFF77CFF814600213000FFF793FFBFF393
:103A70005F8FFCF7F8FB002801D0844219D10123A5
:103A8000019C9C43230040495B1A5B4148495943D0
:103A9000090D49B20022A368AB4212D00622A256F9
:103AA000002A0DDB53009B189B002200364CE418C3
:103AB000F1E72021354B364AFF313648FFF7C2FD8A
:103AC0002200AB4251D106256557002D39DB6B0032
:103AD0005B199A002C4B9B189A68A260DA79E27104
:103AE00006229A56A2719B795BB2002B10DABD2098
:103AF0000002A0806B005B199B00234AD318264A62
:103B000011789971157049463000FFF743FF9CE723
:103B1000201D6B005B199B001B4A9B181A1D9B887C
:103B2000D90A1C2907D159054915023149005118F4
:103B3000FFF7DAFEDDE7194B194A9A211548FFF71E
:103B400081FD00280CD1002A08D0FF239371154B6A
:103B50009380114B1A78A2711970D4E7094FF8E7D6
:103B6000201D1149FFF7DAFECDE7AA210F4B084AC5
:103B700049000848FFF766FD024F66E7240100D0C0
:103B800000ED00E0CD010010285D002098DF00105E
:103B900048E000103CDE00103D6A002080DF00108D
:103BA00038E0001000BDFFFF625D0020BCDF0010A8
:103BB000AAAA000010B5032304009C43064A9446B9
:103BC000644422681840C000FC3383409A431300C9
:103BD00081400B43236010BD00E400E0F8B5040011
:103BE000012606432D4BF31A2F2B28D8FCF73BFB5D
:103BF00000282BD0EFF3108772B6294B1B68002BDF
:103C0000FBD0BFF35F8F2300244D5B1B5B412E4D28
:103C10005D432D0D6DB2234B9B6880001B58B34252
:103C20001BD00022032A32D853009B189B001B494B
:103C3000CB189B795BB2AB421FD00132F2E7722105
:103C4000194B1A4AFF311A48FFF7FCFCBA21194BED
:103C5000164A49001648FFF7F5FC124B9B68164AB6
:103C60001A50164B1A78A2711D70BFF35F8F0C4B60
:103C700000221A6087F31088F8BD080053009918D5
:103C800089004118FF268E710D4A8A80E9E7862156
:103C90000C4B064AFF310648FFF7D4FC285D002094
:103CA000240100D000ED00E0C4DF00105CE0001053
:103CB0003CDE0010ECDF0010CD0100103D6A00205A
:103CC00000BDFFFFF4DC0010AAAA000010B500241C
:103CD0001F2C05D880212000FFF76CFF0134F7E787
:103CE00010BD0000F0B5CE4600B504000E009146B0
:103CF0001F000C2001F0B4F9050043011B1A9901C3
:103D0000C91AC90009188901484601F0A9F9020039
:103D1000103A98235B009A4233D87B1E062B36D884
:103D2000069B013B062B32D8069B9F4235D34B4660
:103D30001A09AA4237D33F04069B1D032F43236869
:103D4000002B36DB234B9C4241D080256D01224B5A
:103D50001D60224B1D60224A92682B009343FAD1CA
:103D60002660A060221DC0239B01134321221A60FC
:103D70002268002AFCDAE76008221A6004BC914637
:103D8000F0BD184B184A16211848FFF75BFC184B7A
:103D9000154A19211548FFF755FC164B124A1F21E9
:103DA0001248FFF74FFC144B0F4A22210F48FFF730
:103DB00049FC22683F231340B342C3D1A3681B05CB
:103DC0001B0D8342BED1E368002FBBD1D6E780250F
:103DD000AD01BCE700C0024000E0004000F0004040
:103DE00000C0004078E000105CE1001094E000109A
:103DF000DCE0001028E1001040E1001080239B006F
:103E00000343014AD362704700800540064BAA2253
:103E100012011A602F22DA60044B054A1A60024B25
:103E20005B68002BFBDA70470040024000600240F4
:103E300000B0FA009A4200D288547047704710B51B
:103E4000002802D00B684968984710BD0100002087
:103E50000A681378303BDBB2092B08D883001B18A3
:103E60005B00501C08601078C0183038F0E77047CD
:103E7000F0B5DE4657464E464546E0B583B093461C
:103E80001F000C9B9A460D9C0E9B99460F9B9B070F
:103E900003D0B8460F00060022E00192A3468846F0
:103EA0004E46B9460700B44207D2551C4B46414620
:103EB0002020B84701342A00F5E73D004F465C4614
:103EC000019B9B46B1464646B84637002E0007E0A8
:103ED000013C551C5346185D43463900B0472A0043
:103EE000002CF5D135003E0047460F9B9B0707D4B9
:103EF000100003B03CBC90469946A246AB46F0BDCC
:103F0000B0464E46B9462F005D46531BB342EFD232
:103F1000541C4B4641462020B8472200F5E7F0B537
:103F2000CE46474680B585B0944698460C9D0D9C7C
:103F30000EAB1B789946109A119B129EB7071BD4A3
:103F4000002B08D0F70706D54F46002F02D10C37BB
:103F5000374200D0013B944208D21F2C06D83027AC
:103F60002F550134F7E730272F550134F70703D5D4
:103F70009C4201D21F2CF6D9F70615D5770505D43A
:103F8000002C03D0944224D09C4222D00F9A102AB5
:103F90002BD00F9A102A30D00F9A022A35D01F2C1E
:103FA00002D830222A5501341F2C05D84A46002A4F
:103FB00031D02D222A5501340396029301940095A5
:103FC00043466246FFF754FF05B00CBC9046994645
:103FD000F0BD621E012C06D00F9F102F01D01400DF
:103FE000D4E7023CD2E71400D0E7B206D1D41F2CAC
:103FF000CFD878222A550134D1E7B206CCD51F2C70
:10400000CAD858222A550134C9E71F2CC7D86032B4
:104010002A550134C3E7720703D52B222A550134F0
:10402000CAE73207C8D520222A550134C4E7F0B5C3
:10403000DE4657464E464546E0B593B081468A4631
:10404000089209931CAB10CB1B789B461E9D219BAD
:104050009846002C03D1102342469A439046802371
:10406000DB0046461E4042461A4212D0002C22D0A7
:1040700000260EE03033D9B2771C0AAB99552900DF
:10408000200000F0EDFFAC4216D31F2F14D83E00E5
:1040900004002900200000F0E3FFCBB2092BE9D98E
:1040A0004246920605D54121C918C9B20A39C9B29A
:1040B000E2E76121F8E7270043460693209B05933A
:1040C0001F9B049303955B46029301970AAB0093F1
:1040D000099B089A51464846FFF721FF13B03CBCA4
:1040E00090469946A246AB46F0BDF0B5DE4657462F
:1040F0004E464546E0B595B0089009910A920B935B
:104100001E9E1F9C20AB1B789B46229B9946239D9D
:10411000269B9A463300234303D1103352469A43D9
:1041200092468023DB0057461F4052461A4219D060
:10413000330023432DD0002714E03033DAB27B1C48
:1041400098460CABDA554A462B003000210000F0AF
:10415000C9FFA5421FD819D043461F2B1BD847467D
:1041600006000C004A462B003000210000F0BAFF88
:10417000D3B2092BE1D95246920605D54122D21875
:10418000D2B20A3AD2B2DAE76122F8E7B145E3D90E
:1041900001E00023984653460693259B0593249BF4
:1041A00004934B4603935B460293434601930CAB47
:1041B00000930B9B0A9A09990898FFF7B0FE15B077
:1041C0003CBC90469946A246AB46F0BDF0B5DE46F3
:1041D00057464E464546E0B591B083468A460C9216
:1041E00098461A9C08941B9D099522002B002000DC
:1041F000290001F00CFA002800D0E5E0012252422B
:10420000D34B2000290001F0FDF9002800D0DBE0AD
:1042100001225242CF4B2000290001F0DDF9002895
:1042200000D0D1E000220023089D2800099E310023
:1042300001F0D2F9002800D0DDE008980999069035
:1042400007918023DB001E9A1A400D921E9A1A4293
:1042500001D106231C930698079904000D000A005B
:104260000600024300D1CDE0080D4005400DBA4CD8
:10427000A44660440A03120BB84B13431F0001F01D
:10428000D9F9B74AB74B01F05CF9B74AB74B01F01F
:1042900031F904000D000022B54B3000390001F067
:1042A00020F9B44AB44B01F04CF902000B00200095
:1042B000290001F01FF901F0D5F9814601F0BAF9A2
:1042C00004000D00AD4AAE4B01F03BF90022AD4BAE
:1042D00001F010F901F0C6F90600AB4AAB4B200023
:1042E000290001F02EF904000D00300001F0A2F9C0
:1042F000A74AA84B01F025F902000B002000290075
:1043000001F0EFF804000D0002000B0001F019F9B4
:104310000A900B91A04BF31800261F0522002B00DA
:104320002000290001F0E6F80E900F9122002B00EA
:1043300000208021C90501F0D4F804000D000022FE
:10434000964B0A980B9901F0DEF80022944B01F08D
:10435000D1F802000B000A980B9901F0D4F8002262
:10436000904B01F0C7F802000B000A980B9901F07E
:10437000CAF802000B002000290001F0BBF802007F
:104380000B000E980F9901F0BEF80022734B01F05C
:10439000B1F832003B0001F0D4F806000F00040031
:1043A0000D00069A079B01F02DF900282CD001235F
:1043B0005B429C46E1440022794B3000390001F019
:1043C000A2F804000D001FE01E9B04931D9B0393A5
:1043D0001C9B0293089A099B0092019343460C9AF6
:1043E0005146584600F0F8F811B03CBC904699464A
:1043F000A246AB46F0BD069580231B069C4666444C
:1044000007961EE7002399464B466333C62B1FD8F9
:1044100004261E9B1B0527D52B00234310D0624A80
:10442000624B0698079901F0E5F8002800D183E077
:1044300000225F4B0698079901F0CEF800287BD048
:104440001C9B4B4506DD4A46981A431E1C9303E00D
:104450000526DEE700231C938023DB001E9A1A4307
:104460001E920026002399461D9B9E426ED29F1BE2
:1044700002231E9A1A400A921E9A134202D0002E5C
:1044800000D000274B46002B07D022002B000698B7
:10449000079901F038F80690079100220023089848
:1044A000099901F099F8002800D085E0414B1E9A47
:1044B0001340049303971C9B0293069B079C009355
:1044C000019443460C9A5146584600F085F8002E58
:1044D00000D189E71E9B9B067AD54525441C43469F
:1044E000020051462800D8474B46DA179B18534024
:1044F00005220592013E0496002203920A3202929E
:104500004A46D00F01900093434622005146584638
:10451000FFF78DFD0A9B002B00D165E702005F4687
:104520000C9E1D9D931BAB4254D2541C43465146D6
:104530002020B8472200F5E71C9B002B94D00D9B50
:10454000002B91D01C9B013B1C938DE700278FE72C
:10455000FFFFEF7FFFFFEFFF01FCFFFF0000F03FD9
:10456000FB799F501344D33FB3C8608B288AC63F62
:104570000000F83F61436F63A787D23F71A37909B9
:104580004F930A400000E03F1655B5BBB16B0240A7
:10459000EF39FAFE422EE63FFF03000000002C40F8
:1045A00000002440000018402D431CEBE2361A3F67
:1045B00080842E41FFF7FFFF069C079D2200290003
:1045C00080200006844661440B00069207936DE745
:1045D000652583E7100007E7F0B5DE4657464E46EF
:1045E0004546E0B595B00690079193469946209FC1
:1045F0001E9A1F9B1000190001F009F8002831D104
:1046000001225242BF4B1E981F9900F0E5FF00287F
:1046100037D101225242BC4B1E981F9900F0F2FF85
:1046200000283DD10022B94B1E981F9900F0EAFFE7
:10463000002850D10022B64B1E981F9900F0CCFFE5
:10464000002848D1002200231E981F9900F0C4FFC3
:10465000002850D100239846229B5B0500D4B6E089
:10466000002458E0229B0393219B02930323019390
:10467000A84B00934B465A4607990698FFF7F8FB5C
:104680000EE1229B0393219B029304230193A24BEF
:1046900000934B465A4607990698FFF7E9FBFFE05F
:1046A0000423229A1A4022990B4210D09B4B002AD5
:1046B0000FD0042222990391219902910192009333
:1046C0004B465A4607990698FFF7D2FBE8E0944B11
:1046D000EDE70322EEE7229B0493219B03930297CD
:1046E0001E9B1F9C009301944B465A4607990698BF
:1046F000FFF76CFDD4E01E9A1F9B0020002100F004
:10470000F0FE1E901F9101239846A5E70CAB3022C6
:104710001A55013F01341F2C01D8092FF6D81E98D5
:104720001F9900F09FFF050000F084FF02000B00BE
:104730001E981F9900F0D5FEFA007A4B9B181A6854
:104740005B680A920B9300F0FCFE0890099100F060
:10475000ADFF060000F06AFF02000B0008980999FF
:1047600000F0BFFE0890099100226F4B00F04AFF55
:1047700000282ED00136300000F058FF02000B0058
:104780000A980B9900F02EFF002801D00135002671
:10479000002F2CD1280000F04DFF02000B001E98C6
:1047A0001F9900F09EFE06000F0000225E4B00F0F5
:1047B00013FF002842D100225B4B3000390000F08B
:1047C00021FF00283AD1EB0738D5013536E006271E
:1047D00046E70022544B0898099900F0FDFE002896
:1047E000D6D1002E01D0F307D2D50136D0E7AA46A4
:1047F0001F2C11D8013F0A21300000F031FC651C4C
:1048000030310CAB19550A21300000F029FC092E7B
:1048100026D906002C00EBE7554604E00CAA30210F
:1048200011551F0001341F2C02D87B1E002FF5D11B
:104830001F2C03D80CAB2E221A5501341F2C14D870
:104840000A21280000F0E4FB661C30310CAB19553E
:104850000A21280000F0DCFB051E05D03400EDE73E
:104860002B0055461C00DEE734000323229A134038
:10487000012B1CD01F2C06D84346002B32D00CAB8A
:104880002D221A550134229B0393219B02930194FC
:104890000CAB00934B465A4607990698FFF7E8FA87
:1048A00015B03CBC90469946A246AB46F0BD219B54
:1048B000002B13D04346002B02D10C3313420FD0F0
:1048C000219B013B2193190003E00CAB30221A55C8
:1048D00001348C42CED21F2CF7D9CBE72199F8E7CF
:1048E0002199F6E7229B5B0704D50CAB2B221A55C6
:1048F0000134C8E7229B1B07C5D50CAB20221A55F3
:104900000134C0E7FFFFEFFFFFFFEF7F65CDCD4133
:1049100065CDCDC174E1001078E100106CE10010AC
:1049200068E1001060E300100000E03FF0B5DE46F3
:1049300057464E464546E0B593B082468B46904674
:104940001193002900D1ECE200275546119B1878FD
:10495000002800D1E8E2252809D07C1C43463A0013
:104960005946A847119B013311932700EEE7013305
:10497000119300241DE00B00303BDBB2092B37D92B
:104980002A293AD000230A93119B1A782E2A44D060
:1049900000239A46119A1378683BD9B2122900D99C
:1049A00080E08B00CB49CB589F4601231C4301324A
:1049B0001192119A11780B00203BD8B21028DAD846
:1049C0008300C548C3589F4602231C4301321192FD
:1049D000EFE704231C4301321192EAE708231C434A
:1049E00001321192E5E710231C4301321192E0E7F6
:1049F00011A8FFF72BFA0A90C6E71C9B1A1D1C9200
:104A00001868002804DB0A90119B01331193BBE75F
:104A100002231C4343420A93F6E78022D200144348
:104A20005A1C11925A781300303BDBB2092B04D97F
:104A30002A2A07D000239A46ACE711A8FFF706FA06
:104A40008246A7E71C9B1A1D1C921868002804DBED
:104A50008246119B013311939CE70020F8E78023E5
:104A60005B002343511C119152786C2A01D01C0029
:104A700018E0C0239B001C430131119112E08023F8
:104A80002343511C11915278682A01D01C0009E07F
:104A9000C0231C430131119104E080235B001C43BF
:104AA00001321192119B18780300253BDAB2532A88
:104AB00000D92CE29300894AD3589F4680239B005B
:104AC0001C4301321192EDE780235B001C4301324D
:104AD0001192E7E7782809D0582838D06F2838D0C5
:104AE000622838D010239C430A2600E0102658285C
:104AF00033D0692803D0642801D00C229443630585
:104B000001D50122944369282AD0642828D0A3051E
:104B100000D59FE0E30500D5B8E0630600D4CAE005
:104B20001C9A111D1C911168FF220A4005940A9BD2
:104B30000493534603930296002301930092434645
:104B40003A0059462800FFF772FA070027E01026BE
:104B5000CDE70826CBE70226C9E720221443C8E7A1
:104B6000A30520D4E30550D4630666D51C9A111D15
:104B70001C911168FF220A40D317D118594005949F
:104B80000A9B0493534603930296D20F019200911D
:104B900043463A0059462800FFF749FA0700119B9F
:104BA00001331193D2E61C9BDA1D07218A431100C1
:104BB00008311C91116853689C46DB170C930D93C8
:104BC0000C9A0D9B100048400E90624653400F9384
:104BD0000E980F990C9A0D9B801A99410E900F9187
:104BE00008940A9B07935346069304960023059363
:104BF0006346DA0F02920090019143463A0059460B
:104C00002800FFF772FA0700C9E71C9A111D1C91D2
:104C10001268D317D118594005940A9B0493534640
:104C200003930296D20F0192009143463A005946EF
:104C30002800FFF7FCF90700B1E7230605D51C9A09
:104C4000111D1C910023D25E96E71C9A111D1C9128
:104C5000126891E71C9BDA1D07218A431100083175
:104C60001C9108940A9B07935346069304960023CD
:104C700005930293136854680093019443463A00E5
:104C800059462800FFF731FA070088E71C9A111DE2
:104C90001C9105940A9B04935346039302960023A8
:104CA00001931368009343463A0059462800FFF7E2
:104CB000BEF9070073E7230606D51C9A111D1C9147
:104CC00012681204120C31E71C9A111D1C91126813
:104CD0002CE7C04680E10010CCE1001010E200108B
:104CE00046281AD01C9B0733072293431A00083228
:104CF0001C9204940A9A0392524602925C681B68C2
:104D00000093019443463A0059462800FFF764FC9B
:104D10000700119B0133119318E620231C43E1E7A0
:104D2000672801D0472802D180231B011C43452856
:104D300001D0472801D120231C431C9B07330722A5
:104D400093431A0008321C9204940A9A0392524622
:104D500002925C681B680093019443463A005946EE
:104D60002800FFF733FA0700119B01331193EDE59B
:104D700002231A002240924623421FD001241C9B8A
:104D80001A1D1C927A1C9146187843463A005946DF
:104D9000A8475346002B16D1119B013311934F4660
:104DA000D4E5561C434659462020B847230032001C
:104DB0005C1C9D42F5D83D001700E0E701233A0056
:104DC0002F000A9DF4E74A46A9460A9D06E0571CB3
:104DD000434659462020C84734003A00661CA54285
:104DE000F5D84D469146D7E71C9B1A1D1C921B68AF
:104DF00099465346002B00D1013B4E4601E0013657
:104E000013003278002A02D05A1E002BF7D14B46ED
:104E1000F21A10928023DB0026001E401C4203D0B1
:104E2000524501D95346109302231A0022400B9297
:104E3000234205D03A0037004C46A946554620E0AB
:104E40003A00109B5F46B3462E0006E0551C4346D1
:104E500039002020B04723002A005C1C0A9999429F
:104E6000F4D835005E46BB46109437004C46A94640
:104E7000554606E01D000134561C43465946C847B6
:104E800032002078002804D0002FF4D06B1E002DB3
:104E9000F0D117004D460B9B002B03D1119B013322
:104EA000119353E50A9F109B06E0561C4346594652
:104EB0002020A847230032005C1C9F42F5D8170031
:104EC000ECE721231C431C9B1A1D1C921B680093BA
:104ED000059408230493534603931023029300235D
:104EE000019343463A0059462800FFF7A0F807000F
:104EF000119B0133119329E57C1C43463A00594626
:104F00002520A847119B0133119327001EE57C1C27
:104F100043463A005946A847119B01331193270095
:104F200014E50B4B9A460FE5AA4647450DD3434679
:104F30005A1E434659460020D047380013B03CBCA7
:104F400090469946A246AB46F0BD3A00F1E7C0460E
:104F50003D3E00100EB410B585B0010007AC08CC82
:104F600003940122009452420348FFF7DFFC05B08E
:104F700010BC08BC03B01847353E001000B585B022
:104F8000029003910121009313004A4202A90248B2
:104F9000FFF7CCFC05B000BD3F3E001001480421E6
:104FA000014B1847705D0020D94F0010014B9B68E2
:104FB00018470000705D002010B5010018231B8801
:104FC00014221088984710BD10B5010018231B88C3
:104FD00016221088984710BDF0B5C64600B50700E8
:104FE0000E0000250123984600E00135B5420AD2A3
:104FF000AC003C192068FFF7DFFF20600028F4D1E7
:1050000000239846F1E7404604BC9046F0BD0000FE
:10501000124A936F9B0815D29066D166002905D07D
:10502000FFE7FFE7FFE7516F106F704704B580217E
:105030000906C2175140002800D0C84307F098FC69
:10504000002104BDF0B5146E556E576F166FFFF753
:10505000E3FF1466556657671667F0BD000000D081
:10506000114A936F9B0813D210665166002905D030
:10507000FFE7FFE7FFE7516F106F704704B50028A7
:1050800001D00020C04307F073FC002104BDC046DE
:10509000F0B5146E556E576F166FFFF7E5FF146687
:1050A000556657671667F0BD000000D094464E4A1B
:1050B000926F9208624601D230E0C046F0B54A4E87
:1050C000B56F6D08FCD3346E756E776F366F00F078
:1050D00025F89446444A1466556657671667624633
:1050E000F0BDC0469446404A926F9208624601D293
:1050F00058E0C046F0B53C4EB56F6D08FCD3346E39
:10510000756E776F366F00F04DF89446364A146628
:105110005566576716676246F0BDC046002B24DB14
:1051200011D000293EDA00B5C943404200D1013117
:1051300000F038F8C943404200D10131DB4352420C
:1051400000D1013300BD002AEBD1002801D1002994
:1051500005D00020C90FC90701D1C043410800B5DF
:1051600007F0FEFB0022002300BD00B500290ADB8A
:10517000DB43524200D1013300F014F8C9434042EE
:1051800000D1013100BDC943404200D10131DB43B0
:10519000524200D1013300F005F8DB43524200D106
:1051A000013300BD002923D1002B18D1002A0CD0D7
:1051B000BC460D4F38667A6600210023FFE7FFE703
:1051C000FFE77A6F386F67467047002801D00748BD
:1051D000010000B507F0C4FB0022002300BD02005F
:1051E0000B00002000217047000000D0FFFFFFFFF0
:1051F000002B00D0BDE0130C26D1002AE7D080B4EC
:10520000104F39667A66FFE7FFE730B4040C7B6F16
:10521000396F1B0423433B66FFE7FFE7FFE7C04608
:1052200084B27B6F3D6F1B0423433B66FFE7FFE7C0
:10523000C04600232C042D0C7A6F386F0019694189
:10524000B0BC7047000000D0F0B594460025140EA5
:1052500001D112020835140F01D112010435940F47
:1052600001D192000235D40F01D152000135D40B87
:105270000134254F7C66254C3C660E0C93B2FFE74B
:10528000FFE7FFE73C6F6643360C7703BE46734388
:10529000DF0B5B04C01AB941130C7343DB18C91A46
:1052A000CE086643360CB64493B273431F0F1B01FE
:1052B000C01AB941130C73431F0B1B05C01AB94127
:1052C000860D8F023E436643360C092D24DB520ABD
:1052D0007243801A7703460A6643360C16235B1B1B
:1052E000DE40DF40BF1964466643821B70460435CA
:1052F00006330100D940A840C01900D30131A242B1
:1053000006D20023F0BD0000000000D0FFFFFFFF29
:10531000121B0130F3D3F1E709277F1BFE406446DF
:10532000A2B27243801A00D20139220C7243130CCC
:105330001204821A99410B0070460435133701009C
:10534000F940A840801900D30131002B02D1A242BC
:105350000AD2F0BD013000D30131121BFAD2013B59
:10536000F8D1A24200D2F0BD013000D30131121BAE
:10537000F7E7F0B51C0C00D080E00CB400251C0A47
:1053800004D11B02160E3343120208351C0B04D144
:105390001B01160F3343120104359C0B04D19B00F3
:1053A000960F334392000235DC0B02D192185B4119
:1053B00001351C00971864410134464F7C66464C09
:1053C0003C660E0CFFE7FFE7FFE7C0463C6F664315
:1053D000360C7703BE4697B27743C01B00D2013923
:1053E000C01B00D201399FB27743C91BC91B170CE0
:1053F00077437E04FF0B801BB941CE086643360C11
:105400000C2D33DBB644120B1F053A431B0B97B22E
:105410007743C01B00D201399FB27743C91B170CD9
:1054200077433E043F0C801BB941860D8F023E43FB
:10543000664329277F1BFE400C3D7746AF40BF19CE
:1054400030BCA2B2ABB272437343801A9941220CB2
:105450007243130C1204801A994102000B000137A9
:10546000001BA941F9D2781E0021F0BD0C277F1B3B
:10547000FE4077467F0BAF40FF19E0E700245D1C3C
:1054800007D0144F7D663966FFE7FFE7FFE7FFE7C8
:105490003C6F95B29EB265436643401BB141150C0B
:1054A0001E0C6543664336042F0C3E432D04401BFF
:1054B000B141994204D202000B0020000021F0BD4E
:1054C00001D19042F7D3801A994101349942F2D325
:1054D000F6E70000000000D0FFFFFFFF484041401A
:1054E000484018B41B4B5B68FC46019308BD04DFC1
:1054F0003B58001018B4174B1B68FC46019308BDBD
:1055000000DF455800109446134A926F920809D262
:10551000624618B40F4BDB68FC46019308BD0CDFF4
:10552000FD5A00100C4AF0B5146E556E576F166F89
:105530006246FFF7EEFF084A14665566576716671E
:10554000F0BD18B4034B9B68FC46019308BD08DF0F
:10555000A159001064DB0020000000D0FFB55040CE
:105560004240504059404B40594000E0FFB5154F74
:105570004C00640D03D0BC4204D10C0314D80020AD
:10558000090D09055C00640D03D0BC4204D11C0365
:105590000AD800221B0D1B0501264B4009D44B40A5
:1055A00003D58B4200D18242FFBD9942FCD190428B
:1055B000FFBD0B43DB1803431343F5D0C943491820
:1055C000FFBD0000FF07000000B5FFF7CFFF01D0CF
:1055D000002000BD012000BD00B5FFF7C7FF8041DE
:1055E00000BDC04600B5FFF7C1FF01D9002000BDD6
:1055F000012000BD00B5FFF7B1FF01D9002000BDBB
:10560000012000BD00B5FFF7A9FF804100BD0120CA
:1056100040054A00121804D85A00121801D8002078
:1056200070470120704700207047000000210028CB
:1056300005D17047C1174840401AFAD0C90713B5C1
:10564000064B1B6898470CBC441CA2401005120B6B
:105650000349091B09051943114310BD64DD0020EE
:105660001F04000010B54C00620D8023D218DB002F
:10567000D21A5B057E2A10DD9E3A13DACC17090395
:10568000490819435242D140640001341532202A9E
:1056900005DAD0400843604310BD002010BD084625
:1056A000604310BDC80FC018013810BD18B4044BBA
:1056B0005B6AFC46019308BD24DF295D00100000F1
:1056C00064DB002018B4044BDB6DFC46019308BD7D
:1056D0005CDF315E0010000064DB0020C94211D3A2
:1056E00000B549004908002200F018F8002904D448
:1056F000002240428A41114600BD80210906002057
:1057000000BD000018B4044BDB6EFC46019308BDDD
:105710006CDF375D0010000064DB002018B4044B20
:105720009B6FFC46019308BD78DF535D00100000BD
:1057300064DB002018B4044BDB6FFC46019308BD0A
:105740007CDFBD5D0010000064DB002070B513231A
:105750001C78012C07D0012C0EDC022C02DC1C4A28
:105760001C4B9A6470BD00231F2BF4D89900184875
:10577000184A88500133F7E71748FFF725FC050062
:105780001648FFF721FC023803789B007F2B19DDB8
:10579000802229000F4800F0FDFC022CDDD1104BC7
:1057A0001A88B5231B029A4209D10E4B1A880E4B58
:1057B0009A4204D10D4B1A880D4B9A42CDD000204D
:1057C000FDF75EFF0B4B0C4A30210C48FDF73AFF0A
:1057D0000158001064DB00205344000053460000D1
:1057E00054380000D8380000494600009C380000BA
:1057F00059460000B0E3001064E4001010E400100B
:1058000007B56046002800D100BE01880A0A0230B0
:10581000DF2AFAD1C9B2820804D302884088000482
:10582000104300E00068024A5050039007BD00009A
:1058300064DB00200FB403BC0CBCF0B50124E4070A
:10584000634000E0F0B50C0DCF0F661E3605891BD6
:10585000640503D3C943404200D30131640D03D032
:10586000661CF60A07D0E41B00207F00791C89071C
:105870008912803C24031D0DDF0F6E1E36059B1B15
:105880006D0503D3DB43524200D301336D0D03D0CA
:105890006E1CF60A07D0ED1B00227F007B1C9B07C5
:1058A0009B12803D2D032F1B661B58D4A446202E2F
:1058B00046DA20371400BC401D00BD40F2403341A1
:1058C0002A4380185941CB0F05D0C943C043002259
:1058D00064425041514162464D0D28D10D0D07D112
:1058E00000281FD0241940414941013A0D0DF9D03B
:1058F000640006D3013000D30131002C01D14008EF
:105900004000013A0BD4941CE40A04D1120511445E
:10591000DB071944F0BDD907204B194300E0D90734
:105920000020F0BD0029DDD1002CDBD1F0BD01321B
:10593000C6074008CD0728434908002EE1D0D9E723
:105940003C2E29DA203E40371400BC4000D0012410
:10595000F24014431A00BB401C43D317ACE7AC46DB
:10596000202F08DA20360400B4400D00B540F8407E
:1059700039412843A5E73C2F0CDA203F403604008C
:10598000B44000D00124F84004430800B1400C4367
:10599000C117EAE710001900002494E70000F07F27
:1059A000F0B50C0D661E3605891BE60A6405640D0C
:1059B00002D0651CED0A04D0002001210905803CBD
:1059C0002403A4461C0D671E3F05DB1BE70A640584
:1059D000640D02D0651CED0A04D0002201231B05D2
:1059E000803C24037740644497B484B296B27443F5
:1059F000070C7E43150C6F4380B26843361802D300
:105A0000012000043F183004350C00197D41844604
:105A100088B29AB250430C0C62431F0C7C438EB286
:105A20007E43921902D301263604A4191604170CDA
:105A30003618674101BC81B29AB25143040C6243EB
:105A40001B0C5C4380B25843121802D3012000049F
:105A500024181004130C401863412D185E410020D7
:105A6000474106BC88B293B258430C0C6343120CF6
:105A7000544389B251435B1802D3012109046418CD
:105A800019041A0C091862416D185641002047414B
:105A900018BCF902720D1143F0026A0D1043ED02B9
:105AA0000A0D03D16D1940414941013B124E9B1B28
:105AB0007600B3420ED26D0007D30130002671414B
:105AC0006646354301D1400840001B05C918E4076C
:105AD0002144F0BD0BDA013306D1013004D101318C
