:020000041000EA
:1000000000B5324B212058609868022188439860DF
:10001000D860186158612E4B002199600221596106
:100020000121F02299502B49196001219960352056
:1000300000F044F80222904214D00621196600F024
:1000400034F8196E01211966002018661A6600F04E
:100050002CF8196E196E196E052000F02FF8012189
:100060000842F9D1002199601B49196000215960AB
:100070001A491B48016001219960EB211966A021F2
:10008000196600F012F800219960164914480160C1
:100090000121996001BC002800D000471248134993
:1000A000086003C880F30888084703B5996A0420EC
:1000B0000142FBD001200142F8D103BD02B5186610
:1000C0001866FFF7F2FF186E186E02BD00000240BE
:1000D000000000180000070000035F00212200005C
:1000E000F4000018222000A00001001008ED00E03C
:1000F00000000000000000000000000074B24E7A12
:1001000000200420F7010010C3010010C5010010F9
:10011000C1010010C1010010C1010010C101001097
:10012000C1010010C1010010C1010010C701001081
:10013000C1010010C1010010C9010010CB01001065
:10014000CD010010CD010010CD010010CD01001037
:10015000CD010010CD010010CD010010CD01001027
:10016000CD010010CD010010CD010010CD01001017
:10017000CD010010CD010010CD010010CD01001007
:10018000CD010010CD010010CD010010CD010010F7
:10019000CD010010CD010010CD010010CD010010E7
:1001A000CD010010CD010010CD010010CD010010D7
:1001B000CD010010CD010010CD010010CD010010C7
:1001C00000BE00BE00BE00BE00BE00BE00F04BF888
:1001D000103800BEF2EB88717CF00010A4F0001023
:1001E0003402001090A31AE700202149086006C8D5
:1001F00081F3088810471F48006800282FD10DA4FC
:100200000ECC002902D000F012F8F9E71A491B4A77
:10021000002000E001C19142FCD1194988471949E9
:1002200088471949884700BEFDE701C901C29A42C3
:10023000FBD37047A4F00010C00000207C670020B2
:1002400060570110000004200000042060570110D6
:1002500000100420001004200000000070470B482C
:1002600004F09EFD0047EFF30580C0B27047000028
:1002700008ED00E0000000D08067002064DD002071
:1002800011330010390600102534001057560000B5
:1002900006005250ABB36053ECE20010060052501F
:1002A000861C0302FCE20010060052505422A29D5C
:1002B00014E3001005005250DE65F4686057011029
:1002C000F8B5C0460448054B10B5834203D0044B33
:1002D000002B00D0984710BD7C6700207C67002071
:1002E0000000000006480749091A8B10C90FC918F9
:1002F00010B5491003D0044B002B00D0984710BD17
:100300007C6700207C6700200000000010B5074CCF
:100310002378002B09D1FFF7D5FF054B002B02D026
:10032000044800E000BF0123237010BD886800204E
:100330000000000088C70010054B10B5002B03D04B
:100340000449054800E000BFFFF7CCFF10BDC046E0
:10035000000000008C68002088C7001010B501F074
:1003600031FAFCE7D0231B0680214905596280221F
:1003700092025A6299619A61704710B5012000217A
:1003800002F0F8FB10BDD0231B06802252055A62F2
:100390009A617047D0231B06802252059A627047EB
:1003A000D0231B06802292025A629A617047D023A2
:1003B0001B06802292029A627047D0231B065B685C
:1003C0001B0F01201840704710B50400FFF7DBFF3A
:1003D0002000FFF7D2FF2000FFF7E2FF2000FFF729
:1003E000CCFF10BD10B50400FFF7E1FF2000FFF7C0
:1003F000C4FF2000FFF7CEFF2000FFF7BEFF10BDB7
:1004000070B504000D00002614E02000FFF7C2FFC5
:100410002000FFF7B2FF2000FFF7C9FF2000FFF721
:10042000ACFF2000FFF7BCFF2000FFF7A6FF6D0028
:10043000EDB20136072E06DC6BB2002BE5DB2000A7
:10044000FFF7A1FFE4E72000FFF7A4FF2000FFF77C
:10045000AEFF2000FFF791FF64252000FFF7ADFFFE
:10046000002803D0013D002DF7D100E00125200038
:10047000FFF796FF2000FFF780FF280070BD10B542
:100480001C2001F0F1FD112001F0EEFD10BDF8B5CA
:10049000CE46474680B506000F0015009846089BDB
:1004A00099460068FFF790FF31794900C9B230687A
:1004B000FFF7A6FF4346002B01D000240AE04021AD
:1004C0003068FFF79DFFF8E780213068FFF798FF5D
:1004D00005E00134BC420BDA4346002BF4D1297805
:1004E0003068FFF78DFF4B46002BF2D10135F0E766
:1004F0003068FFF777FF0CBC90469946F8BD70B5A1
:1005000084B0CC17640E09197F231940091BD31737
:100510009B0ED2183F242240D21AD317383C1C40DD
:10052000A418E410503C03AA1470CD172E0F8C1998
:100530000F231C40A41B54702B405B181B1110335D
:1005400093700023009301330321FFF7A0FF04B051
:1005500070BD00B585B00F226A440023137000936C
:100560000121FFF794FF05B000BD0000F0B5C646BD
:1005700000B582B005000E00080007F017F907006B
:100580000024BC4213DA731C98463378203B9A004F
:10059000D218094BD2180023009305212800FFF739
:1005A00076FF2800FFF7D5FF01344646E9E702B0A1
:1005B00004BC9046F0BDC046DCC7001030B583B027
:1005C000050000240DE0220000212800FFF797FF1E
:1005D000012300930023054A80212800FFF757FFDD
:1005E00008343F2CEFDD03B030BDC046376A002031
:1005F00010B582B004000068FFF7B4FE00230C4A77
:10060000934201DC0133FAE72068FFF7DDFE206842
:10061000FFF7E8FE002300930133064A1E21200065
:10062000FFF735FF2000FFF7C9FF02B010BDC0463D
:100630000F270000BCC90010F0B5DE4657464E46F5
:100640004546E0B595B005F03DFE104805F0FEFDCD
:100650000F4805F02BFE032001F006FD142001F0E9
:1006600003FD072001F000FD062001F0FDFC022043
:1006700001F0FAFC132001F0F7FC122001F0F4FC69
:10068000102001F0F1FC00240AE0C04688C70010E9
:100690009CC70010A200F94BD05801F0E5FC0134D2
:1006A000072CF7DDD02424060823A36280235B03F4
:1006B000A3628023A362403BA3623C3BA3621B2056
:1006C00001F0D2FC80231B0563616362FF221202EA
:1006D000A26263618021090361628022D2026262A8
:1006E00080235B0263626161A261A361152001F056
:1006F000BBFC80239B036362A361162001F0B4FC62
:100700008023DB036362A361DD4805F0CFFDDD4894
:10071000FFF7B5FEDC48FFF76BFF00F099FCDB4804
:1007200006F092F800210F2003F018F8D84B186853
:10073000D84905F0F9FED84B1860D84B1868D8494D
:1007400005F0F2FED74B1860D74DD849286805F060
:10075000EBFED74C2060D74B1868D74905F0E4FE74
:10076000D64B18602D68D64B1E682768002300936F
:10077000013305223100280005F060FFD14B9D4276
:1007800000D1BBE10721052001F03CFC0022012142
:10079000052001F04FFC0023139380235B0210938C
:1007A000F8235B021193C0231B031293102210A99C
:1007B0000CA805F0E3FB3A000832FB0112031343D7
:1007C0000D9310220CA910A805F0D8FB139BBE4A6C
:1007D0001A40A0239B0213431393119BBB4A1A4058
:1007E000A023DB0413431193129B0293B84A1A40CF
:1007F0008023DB0213431293052002F04FFF05F024
:10080000E7FAB44905F089FA804605F009FB84B29D
:10081000002C00D174E1200005F0DAFA011C4046FA
:1008200005F071FA8721C90505F08DFA05F0F8FA8F
:10083000C0B2000224042043109010AB3A003100F3
:10084000280005F033FF2A680123B3409A4313437D
:100850002B60984B1D68A04B1E68984B1F68102397
:1008600010223100280005F07BFE102310223100F9
:10087000280005F0ABFE934B9D4200D142E10721D9
:10088000042001F0BFFB0023139380235B0210932D
:10089000F8235B021193C0231B031293102210A9AB
:1008A0000CA805F06BFBFA1CFB011203134380221A
:1008B000D2050F9289490B4013430D9310220CA9C6
:1008C00010A805F05BFB129B854A1A4080231B038E
:1008D00013431293139B0293824B029A13400422F8
:1008E0001A4380235B0313437F4A13408022520143
:1008F00013431393052002F0D1FE05F069FA754900
:1009000005F00BFA804605F08BFA84B2002C00D17A
:10091000FAE0200005F05CFA011C404605F0F3F90E
:100920008721C90505F00FFA05F07AFAC0B2000276
:1009300024042043109010AB3A003100280005F049
:10094000B5FE2A680123B3409A4313432B60504BF2
:100950001D68664B1E68504B1F68002400940123DD
:100960000C223100280005F069FE139480235B02FD
:100970001093F8235B021193C0231B0312931022E0
:1009800010A90CA805F0FAFA3A000832FB0112038C
:1009900013430D9310220CA910A805F0EFFA139B36
:1009A000494A1A40C023DB0213431393119B474A61
:1009B0001A40C0231B0513431193129B0293444A10
:1009C0001A408023DB0213431293052002F066FED7
:1009D00005F0FEF9464905F0A0F9804605F020FA39
:1009E00084B2002C00D191E0200005F0F1F9011C47
:1009F000404605F088F98721C90505F0A4F905F0FE
:100A00000FFAC0B2000224042043109010AB3A0049
:100A10003100280005F04AFE2A680123B3409A43BA
:100A200013432B60D02212065168C90801231940D4
:100A300002915168090D19400E0051688909194049
:100A400003915168C90919400491526892081340F2
:100A50001D00284805F0FAFB05F0E8FB0A4C2000D1
:100A6000FFF7ACFD002200212000FFF748FD2249DE
:100A70002000FFF77BFDAA46D5E0C04658020020C3
:100A8000B0C70010780200207C0200205D03001037
:100A90006C5A0020DCC90010386A0020705A00200F
:100AA000F8C90010288E0020785A002008CA0010CB
:100AB000209600207C5A002024CA00105097002065
:100AC000306A002000002050FF7FF0FFFFFFFFE0B2
:100AD000FFFF0AFE00006149805A0020FFFFFF9FD0
:100AE000FFFFF5C1E0FF0FFCFF83FFFFF06900206F
:100AF0000000964788C70010C4C70010062142E6D0
:100B0000002096E60621BBE6002010E7002079E7EA
:100B1000A00008184A681A42FCD1C278DB4C206851
:100B2000DB4B1A540130FA21890004F065F9216089
:100B30008AE0D8490D5CED4351681942FCD1043478
:100B4000A400A5500130FA21890004F055F9D24BD8
:100B500019608FE0002A00D0AEE0002B00D0ABE09F
:100B6000CE490868844602208146CC44604608602D
:100B70000868012188430100C84801600168090430
:100B8000090C016098E00B99002900D0A3E0C4494A
:100B900008680130FF3008600868FE26F601304022
:100BA000086098E0002F00D1BAE0029B002B11D121
:100BB000002D0FD0D0231B06FF2212029A62802242
:100BC00012055A610022B7490A60802149029961E1
:100BD000B54B1A60039B002B12D10A9B002B0FD040
:100BE000D0231B06FF2212029A62802212055A614C
:100BF0005B461C43E30703D4D0231B065A615B68A2
:100C0000002D07D0D0231B06FF2212029A628022F9
:100C100012055A61099B9A46089B0493079B03930C
:100C2000069E059B02939F4B1B689846002B0BD09A
:100C30009E4B19689E4B1A684868140008340123BB
:100C4000A340034200D163E7974B1F68002F11D0E8
:100C5000984B1A68984B1C6851682000103001238B
:100C600083400B4206D18C49086894490968884240
:100C700000D05EE7D02109064C68E3089B460120BE
:100C80001D00054005954B681B0D02001A40069299
:100C90004B689B0904001C400A9407944C68E409C3
:100CA0000300234008934C68A408010021400B91E5
:100CB0000991012E00D14DE7002E08D1002A06D05F
:100CC000002B04D1754E3168012008433060504636
:100CD000012800D157E70499002905D1002B03D042
:100CE0006E4801606E480160002D00D05DE70A99F2
:100CF000002900D1A3E0D0231B06FF2212029A6232
:100D0000802212055A614346002B00D04AE76C4B03
:100D10001B68002B00D145E7624B01221A6041E7B6
:100D2000644B1F68644B1B689A46664B1B68984669
:100D30008026F602330032005146380005F010FCE0
:100D4000330032005146380005F040FC5E4B9F42B4
:100D500071D00721122001F055F90023139380234D
:100D60005B021093F8235B021193C0231B031293C1
:100D7000102210A90CA805F001F94346DA1CDB018A
:100D8000120313438022D2050F9250490B401343A4
:100D90000D9310220CA910A805F0F0F8129B4C4AF4
:100DA0001A4080231B0313431293139B0493494B54
:100DB000049A134012221A4380235B031343464ACA
:100DC00013409022D20113431393052002F066FCD6
:100DD00004F0FEFF414904F0A0FF814605F020F831
:100DE00086B2002E29D0300004F0F2FF011C4846E4
:100DF00004F089FF8721C90504F0A5FF05F010F86C
:100E0000C3B21B0236041E43109610AB4246514635
:100E1000380005F04BFC3A6801210B005046834036
:100E20009A4313433B60D0231B06802252025A612F
:100E30001D4B1960B9E606218CE70023E1E7D021BC
:100E40000906802040028861802000058861FF201B
:100E500000024862114E3768114E36683E43204FFB
:100E6000BE5D36024E617040886100210D48016010
:100E70000D480160002B35D0002A00D095E6D02324
:100E80001B06802212059A618FE6C0460469002085
:100E90000CA300202C8E002044690020006A002052
:100EA000046A0020EC6900201C6A00206C5A0020B3
:100EB000F0690020705A0020745A00204069002018
:100EC000FC680020288E002000002050FFFFFF9FBC
:100ED000FFFFF5C1E0FF0FFCFF83FFFF0000964717
:100EE00084020020D0231B06802212059A61FF2273
:100EF00012025A620549096805480068014305481D
:100F0000415C090259614A409A614EE6006A00203C
:100F1000046A00208402002001207047704700000E
:100F2000014B00221A607047F469002070470000EE
:100F3000014B00221A607047FC6800207047704720
:100F400070477047704770477047704770477047E9
:100F5000704770477047704710B50449044800F067
:100F600029FE002800D0012010BDC04634CA001060
:100F700098D0002010B50449044800F01BFE00285A
:100F800000D0012010BDC04644CA001098D00020F7
:100F900070B504002378002B0BD00134054D286870
:100FA000054A13540130FA21890003F025FF296016
:100FB000F0E770BD4C6900201492002010B584B099
:100FC0000A494B680A680A4C48690390086902900C
:100FD000C8680190896800910649200003F0AEFEC0
:100FE0002000FFF7D5FF04B010BDC04680BA002036
:100FF00074D800205CCA001070B5104B1868104BF4
:101000001B68984219D00F4B19680F4B1C684B682E
:10101000250010350122AA401A420ED10B4B1D5C4F
:101020004B681342FCD10434A40065500130FA210E
:10103000890003F0E1FE014B196070BD506900208A
:101040004C6900207C5A0020805A00201492002015
:1010500000B583B0114805F0F9F805F0E7F8104B3A
:101060001B6801219940D0231B069961002300933E
:10107000009A0C4B9A4207DC009B009A9B18019344
:10108000009B01330093F3E7D0231B065961002333
:10109000054A1370054A136003B000BD90CA0010E2
:1010A000D8C700109F86010098D00020A0690020BA
:1010B00070B505000024062C0ED8E300074A9958A5
:1010C000280000F077FD002801D10134F3E7E400A7
:1010D000024B1C196368984770BDC046BC5C002079
:1010E00010B50248FFF7E4FF10BDC0463C9B00204E
:1010F00070B50500002400E00134072C0CD8E30093
:10110000064A9958280000F055FD0028F4D0E40064
:10111000024B1C196368984770BDC0468C5A00206A
:10112000F8B507000E000024B44211DA094B1D681F
:10113000681CFA21890003F05FFE074B1B68994287
:1011400006D03A5D054B5A55024B19600134EBE766
:10115000F8BDC046F0680020F4680020C4AE00204E
:1011600010B5084B1B68002B02D0012B04D010BD1A
:101170000548FFF7BDFFFAE7044B19680248FFF77F
:10118000CFFFF4E7845A00203C9B0020C869002070
:10119000F0B5C64600B50A4D0A4E81192B681C1AD7
:1011A000631C9846084F1A00380004F0E7FE4246D8
:1011B0003900300004F0E2FE2C6004BC9046F0BD23
:1011C000A069002098D000206CC2002070B51B4B95
:1011D00018601B4B19601B4B00221A601A4B01321E
:1011E0001A601A4B18601A4B1D68144B1A68002AB3
:1011F00012DD174B196800290EDD12480368154CE3
:10120000E65C154CE654013303600139104B19605C
:10121000013A0A4B1A60E8E70D4B1D60094B18684C
:10122000FFF7B6FF054B1B68002B05D1064B0022CC
:101230001A60034B1B68984770BDC04600690020C8
:1012400094D0002068C200200C690020C8690020EA
:10125000A069002098D000203C9B002010B5044BD2
:101260001868FFF795FF034B01221A6010BDC046B6
:10127000AC690020C469002010B5104B1B68002B1E
:1012800017D00F4A1368013313600E4B1868FFF72D
:101290007FFF0A4B00221A600B4B1B68002B07D004
:1012A0000A4B1B68002B00D09847084B00221A609D
:1012B00010BD044B1868FFF76BFFEDE7C469002011
:1012C000CC690020AC690020E8690020D0690020CA
:1012D00010B50849084800F06DFC002800D110BD89
:1012E000064B1868FFF754FF054B58680549FFF790
:1012F0006DFFF4E734CA001098D00020AC690020DC
:1013000004DA0020E110001010B503010A48C018EB
:1013100041680A4800F04EFC002800D110BD084B7F
:101320001868FFF735FF074B1A68074B1A60074B21
:1013300001221A60F2E7C04644D2001098D0002083
:10134000AC69002004DA002038690020FC68002025
:1013500010B503010648C0184168064800F02AFC91
:10136000002800D110BD044B1868FFF711FFF9E702
:1013700044D2001098D00020AC69002010B5064976
:10138000064800F017FC002800D110BD044B186877
:10139000FFF7FEFEF9E7C046B0CA001098D0002063
:1013A000AC69002010B50649064800F003FC00288F
:1013B00000D110BD044B1868FFF7EAFEF9E7C046FC
:1013C000C0CA001098D00020AC69002070B584B06D
:1013D0002C492D4800F0EEFB002801D104B070BD6F
:1013E0002A4B1868FFF7D4FE294B1D681D2DF5DC2C
:1013F0000024A5420ADD2B206043264BC018264955
:1014000006F088F900282AD00134F2E70023002BE7
:10141000E4D12B335D431F4EA8191F4C210006F069
:10142000BDF928001030801904301C494B680A6847
:101430004D6903950D690295CD6801958968009104
:10144000174903F07BFC174B1868210006F062F97E
:10145000002806D00E4A136801331360BEE701234B
:10146000D5E70B4B1A682B235A431032094BD2187D
:1014700004320D4C0D49200003F060FC2000FFF702
:1014800087FDE7E7CCCA001098D00020AC690020A7
:10149000F868002008CB002030DB002004DA0020B0
:1014A00014CB0010885A002074D8002028CB0010DC
:1014B00070B584B02B492C4800F07CFB002801D18A
:1014C00004B070BD294B1868FFF762FE284B1D68F9
:1014D0001D2DF5DC0024A5420ADD2B206043254BA1
:1014E000C018254906F016F900282AD00134F2E781
:1014F0000023002BE4D12B335D431E4EA8191E4C54
:10150000210006F04BF928001030801904301B49E7
:101510004B680A684D6903950D690295CD68019580
:1015200089680091164903F009FC164B18682100E0
:1015300006F0F0F800280CD00D4A13680133136050
:10154000BEE70123D5E783000C4A99580E4A99500B
:1015500001300528F7DD0D4B0D4A1A600D4B0122B5
:101560001A60E9E740CB001098D00020AC69002059
:10157000F868002008CB002030DB002004DA0020CF
:1015800014CB0010885A002080BA0020D0690020B7
:10159000BD0F0010E869002010B50849084800F0A8
:1015A00009FB002800D110BD064B1868FFF7F0FDBD
:1015B000054B18680549FFF709FEF4E77CCB0010DE
:1015C00098D00020AC69002004DA002061110010DE
:1015D00010B5094806F0EAF80200084B1860084CFC
:1015E0000849200003F0AAFB2000FFF7D1FC064BBE
:1015F00001221A6010BDC046B0B20020D46900209C
:1016000074D800208CCB0010F469002010B51C2287
:101610000349044804F0B2FCFFF7DAFF10BDC046EE
:10162000A0CB0010B0B2002070B50500002400E08F
:101630000134282C19D863001B199B000B4A9B5CB2
:10164000032BF5D163001B199B00D31858682900A0
:1016500006F060F80028EBD1054B1C60054B012219
:101660001A60054A13680133136070BDD05A002018
:10167000286A00202C6A0020186A002070B50B4CE4
:1016800023680B4D082200212800FEF738FF094986
:101690002800FEF76BFF0848FFF7C6FF074B1868E6
:1016A000FFF776FD0123236070BDC046F869002076
:1016B0007C020020BCCB0010C8CB0010AC6900201D
:1016C00010B503010848C0184168084800F072FAD4
:1016D000002800D110BD064B1868FFF759FD0548DA
:1016E000FFF7A2FFF6E7C04644D2001098D00020D2
:1016F000AC690020D0CB001010B503010848C01819
:101700004168084800F056FA002800D110BD064B89
:101710001868FFF73DFD0548FFF786FFF6E7C0466E
:1017200044D2001098D00020AC690020D8CB001023
:1017300070B504002378002B0BD0064D2868064AAC
:1017400013540130FA21890003F056FB296001345B
:10175000F0E770BD406900202C8E002010B5134BBF
:101760001B68002B13D1124B1A68124B1B689A424C
:101770000CD0114AD35C252B10D0482B12D00D4C25
:101780002368581CC82103F037FB216010BD0B48AB
:10179000FFF7CEFF054B00221A60E4E70748FFF78A
:1017A000C7FFECE70648FFF7C3FFE8E7C069002082
:1017B000B8690020BC69002088960020E0CB0010AA
:1017C000E4CB001070B582B000230193FFF7C6FF91
:1017D000FFF712FCBB4B1B68BB4A1068834212D058
:1017E000BA4D2C68BA4B1A5CBA4B1A550130FA2123
:1017F000890003F001FBB44B1960601CFA218900D9
:1018000003F0FAFA2960B44B1B68012B10D0B34BDC
:101810001A6801321A6018680A2103F0EDFA0029EB
:1018200068D1AF4B1A681A6851424A411A6061E0A8
:10183000AC4B1A68002AEAD1AB4B1D68AB4B1B6856
:101840009D42E4D0AA4B002119700EE0A94B195C0F
:10185000541C7F230B40A6498B540130FA21890088
:1018600003F0CAFAA14B19602200A04B1868854208
:10187000ECD19F4B00219954FFF7AAFEC7E7964D84
:101880002B68581C032103F0B7FA0C0029600D22C5
:101890009949974804F072FB012C0DD0022C11D00D
:1018A000002C03D0FFF794FE02B070BD09229349CB
:1018B0008F4804F063FBF5E7102291498C4804F04F
:1018C0005DFBEFE70E228F49894804F057FBE9E7FB
:1018D0008D4C2268501C8D498B54FA21890003F0ED
:1018E0008BFA216069468A4805F0ECFE894A136844
:1018F00001331360884B1968884B1B6848681C00CB
:1019000008340122A240024211D120206C462080DE
:101910000833980008184B681A42FCD1C378DBB230
:101920006A461370142BAAD0002BE3D0D0E77C4B6F
:101930001C68002C23D00EE0754B1C780120FFF7AB
:1019400027FC784A1368591C1160774AD454774AA7
:101950001368013B1360754B1B68002B03DD6D4A58
:101960001268002AE8DC002B9ED16D4B00221A6021
:101970006F4B1B68984797E70120FFF709FC644B02
:101980001B786C4AD35C1B07F6D40FE022016A4B2C
:101990009B1859685E4800F00DF9002805D0220117
:1019A000654B9B18DB68200098470134272C15D81D
:1019B0002301614A9B5C012BE8D0022BF5D1220167
:1019C0005D4B9B189B68200098470028EDD02201B2
:1019D000594B9B18DB6820009847E6E7574B1B687C
:1019E000002B00D160E7564B1B68002B0CD1554BE8
:1019F0001B685A00D21892005349525C062A34D808
:101A0000920052498A58974601F032F9504B1A68B1
:101A10005B688B4200D947E702D1824200D943E795
:101A2000474B00221A603FE75A00D3189B00464AF2
:101A3000D3185868474E01AA310005F0A3FD404B6A
:101A400001221A6001F014F9019A53019B1A9B00BC
:101A50009B18DB001C00DD17001969413C4B186026
:101A6000596031003C4803F069F9364B1B685A0055
:101A7000D21892003449525C042A00D114E7013391
:101A8000304A136010E75A00D3189B002E4AD3182F
:101A90005968324C200003F051F92000FFF778FA22
:101AA000E3E71348FFF774FADFE7244B00221A60DC
:101AB000DBE75A00D3189B00234AD3189B6898474A
:101AC000D3E7C046F0680020F46800204069002099
:101AD000C4AE00202C8E0020845A00203C690020D7
:101AE000CC5A0020F4690020046900200869002015
:101AF000B0B200200CA30020E8CB0010F8CB0010FF
:101B000004CC001014CC0010486900205497002029
:101B100098D00020A0690020785A0020306A002068
:101B20000C69002068C200203C9B00200069002056
:101B300094D00020E5E4001044D200102C6A00206C
:101B4000246A0020286A0020D05A002028CC0010E7
:101B50008068002024CC00107CD0002074D80020A5
:101B600010B50A4C23685A1C22609B00084CE050B8
:101B70000E2A01DC012010BD064B07481860074BF8
:101B80001960074B1A600020F5E7C046A8690020DD
:101B900004DA0020F45C0020C4D40010F85C0020BB
:101BA000A46900202138C0B25D2801D80020704708
:101BB0000120FCE7F0B5DE4657464E464546E0B507
:101BC0008FB005008B460023B54A1360B54A1360F9
:101BD000B54A136004E09900B44A002088500133EC
:101BE0000E2BF8DD002306E09A00D2189200B049CF
:101BF000002050540133012BF6DD002600240BE0B9
:101C0000013604E00134A84A136801331360285DEB
:101C1000FFF7C8FF0028F5D100965B469B5D002BBF
:101C200000D1CBE12A5D002A00D1C7E1202BE7D00B
:101C3000252B09D001340136934200D0D5E19A4AD0
:101C4000136801331360E7E7711C5B465F185B5C48
:101C5000002B0ED05B2B21D015D8252B11D10134B0
:101C6000252A00D0B5E1904A13680133136002368B
:101C7000D2E7904B904A1A60904B5A461A60002760
:101C80005CE10E00C8E7642B00D169E1782B03D139
:101C900001239846002024E10E00BDE7814B1B681C
:101CA00098469B0043449B00814A00219954023688
:101CB0000023584603E0013604A9CA540133825D6B
:101CC000002A03D05D2A01D0252BF4DD8346252B85
:101CD00000DD80E1002A00D17FE1581C04A9002228
:101CE000CA540A54764B1A6000270123A246009674
:101CF0001C0001951AE0724D2A68724851008E1836
:101D0000B600345481194B6063468B6001322A60FF
:101D10000BE06B4802686B4D51008E18B60074558D
:101D2000A9194B608B6001320260013704A805F0ED
:101D30003DFDB84231D904ABDB5D5E2B2BD0791C65
:101D400004AA525C2D2AE4D1023704A8C05D84465F
:101D50000028D0D15A4B1B68E0B25A4EB4465F00FF
:101D6000FE18B600B14666464D46A8554F46674434
:101D70007A60BA6001335F00FD18AD00A946654680
:101D80004E4670554F4667447A60BA6001334C4AFC
:101D900013600F00C9E70224C7E75446009E019D67
:101DA00000272B004546B0461E0037E000915A0040
:101DB000D218920081464A44526891420CDB580086
:101DC00084469C44604680008446CC4460468068DB
:101DD000814206DDBC4600E0BC460122604602406E
:101DE00007E001229446F8E701229446012260466A
:101DF0000240002A3FD0022D00D19FE0002302AA1A
:101E0000537153461B781371A80040198000284B6A
:101E1000C01803A905F056FC002F30D033199A469C
:101E2000315D002931D0002F2FD13B00244A1268A8
:101E30009A4222DD5A00D21892002248125C012AEE
:101E4000B4D000915A00D21892001E4881464A44EC
:101E500052689142C8DB580084469C44604680002A
:101E60008446CC4460468068814202DD012294466B
:101E7000BCE7BC46BAE70133D8E70127CEE7013417
:101E8000094A136801331360C8E733004646A84681
:101E90001D0043460133034A13600136BCE6C046C9
:101EA000A8690020B0690020AC69002004DA002095
:101EB00030DB0020F45C0020D0D40010F85C00205F
:101EC000B469002040DA00202D2A28D101235B428A
:101ED00098460134494A1368013313602B5D002B87
:101EE00026D03B78642B3FD0782B45D12A5D4449DE
:101EF0008A5C442111423FD003AB20221A802A5D24
:101F00001A703B78642BDFD0782BE2D1030199461D
:101F10001022002103A805F03DFE4844D9E78300C4
:101F200018184300994603A804F0A0FC4844D0E7E1
:101F3000009B5B449B78002B08D0002738000FB033
:101F40003CBC90469946A246AB46F0BD434643434F
:101F500018005946FFF704FE071EEFD00127EDE7F2
:101F6000012398460020BCE72A5D2549895C490782
:101F7000C2D42D2AB8D1BFE7002C30D0642B13D0A7
:101F8000782B2ED12B19013B1B781D4AD35C4422A0
:101F90001A4228D04346434318005946FFF7E0FD54
:101FA000071ECBD0023637E62A19013A12781449B7
:101FB000895C4907EED42D2AE2D1EBE7002B16D03D
:101FC000202B16D1009B5B445B78002B13D101279B
:101FD000B4E70027B2E70027B0E70027AEE7270005
:101FE000ACE70027AAE70027A8E70027A6E7012714
:101FF000A4E70027A2E70027A0E7C046AC690020BD
:10200000E5E4001010B58300084A944663441C6858
:1020100040226240C02414408022520113431C60BD
:10202000C000034B9C466044416010BD04C00140A9
:102030000040014080000B4B9C46604400290DD0BD
:102040000823002A0CD004221343026853400C22B8
:102050001340802252011043036070470023F0E7D1
:102060000022F1E704C0014010B501238340D022D3
:102070001206936293610521FFF7C4FF10BD0000B3
:10208000EFF3108072B6034B1B68002BFBD0BFF33D
:102090005F8F70472C0100D0BFF35F8F024B00228F
:1020A0001A6080F3108870472C0100D0F8B5060044
:1020B0000C001500FFF7E4FFE308F718F15C0722B6
:1020C0002240012393400B4205D1DBB20B433B700E
:1020D000FFF7E2FFF8BD2100280001F0C5F900007C
:1020E000034B1B6802201840431E9841C0B2704742
:1020F00000C0064000231F2B08D8054A9A189200FA
:10210000BFF35F8F002111600133F4E77047C046D1
:1021100040000034054A1078431CDBB21370172BC3
:1021200002D9130010221A707047C046FC5C0020D0
:1021300070B504000D00062001F0B0FAC0002900BF
:1021400002F082FEC60908D00E4B9E4217D87F23AC
:10215000184001303500460800E001256562A6629E
:102160002C3480208001044300232360062001F0EA
:1021700095FA8000A901891902F066FE70BD00265B
:10218000014DEBE7FEFF0000FFFF0000002909D032
:102190000A22064B9C466044434258414000044B8F
:1021A000C252704780225200F3E7C0460080FCBF55
:1021B00058DB002070B505000C00062001F06EFA17
:1021C000002829D0164B9D4227D08022D203154BE0
:1021D0001A60154B1A60154B9B6811009943FAD190
:1021E00000212800FFF7D2FF21002800FFF7A0FF01
:1021F0002C002C34E96A60224A406E211140802272
:102200005201224311600A4B2B6380239B0123431D
:1022100010221A600323AB6470BD80221204D6E73B
:102220000080034000E0004000F0004000C000409B
:102230000103000070B505000C00080000F00CFD63
:10224000200000F013FE0849200000F053FDFFF7C6
:1022500061FF064B9C466044800068602C75A400BA
:10226000034BE55070BDC046792500104000003496
:10227000D86900200A4B1A68EFF3108172B6136810
:10228000002BFCD0BFF35F8F054B1B68BFF35F8F44
:1022900000221A6081F3108840BF0020002170479F
:1022A000FC69002010B5002922D003681B7B9942ED
:1022B0001ED8174B9C466144090183689C466144C3
:1022C0000C684968002A19D003681B7B9A4215D80C
:1022D00083680F488446624412019A181068536854
:1022E000020001208B4201D80ED00020C0B210BDE8
:1022F000084B094A3B21094801F098F8054B064A6A
:102300003B21064801F092F8A242EFD8EDE7C04623
:10231000FFFFFF0F44D50010FCD7001000D50010C0
:1023200010B500291ED0037B99421BD84B005B18C7
:10233000033B0468A4466344002919D0002A1DD039
:10234000914221D0002A25D0047BA24222D80468E1
:1023500050008018033820188170197800291FD187
:102360001A7010BD104B114A6921114801F05EF836
:10237000104B114A70310E4801F058F80F4B0E4ABD
:1023800071210B4801F052F80D4B0B4A722108489D
:1023900001F04CF8044B054A6921054801F046F864
:1023A00041701A70DDE7C04678D50010BCD7001028
:1023B00094D50010E8D50010C8D70010F4D500104F
:1023C00000D6001070B506000D001400002914D0CE
:1023D000002A14D0806873689847002806D022002D
:1023E00029003000FFF79CFF280007E02A002100A9
:1023F0003000FFF795FF200000E0100070BD0800DE
:10240000FCE70000F0B583B00500009201930AAB31
:102410001C780BAB1F78002C26D003685A7B9442A3
:1024200007D10123002B19D1002C3BD1200003B090
:10243000F0BD002C0CD01A7B944209D81A686300B6
:102440001B19033BD3189B78002BEBD00123E9E742
:102450003E4B3F4A69213F4800F0E8FF3E4B3F4A70
:1024600065213F4800F0E2FF03689C7B002CDBD035
:1024700012D01A7B94420FD862001219033A1968DD
:102480008C46624451789973002900D1D973002396
:10249000937053701370C7E72C4B2D4A69212D4858
:1024A00000F0C4FF002C3AD02B681B7B9C4236D82E
:1024B0002C4BE3181B01AA6894466344009A1A60E7
:1024C000019A5A60089A9A60099ADA602E68002C7C
:1024D0002BD030D0337B9C422DD863001B19033B9B
:1024E00032689446634400229A705A701A70717B65
:1024F00022003000FFF766FF7073844200D095E73A
:10250000287D009A019B00F03DFC061E01D0002FA3
:1025100017D00C9B002B00D188E71E7086E7124B6A
:10252000124A3B210E4800F081FF114B114AA621AF
:10253000084800F07BFF054B054A6921054800F07B
:1025400075FF2868210000F067FEE2E778D50010EB
:10255000BCD7001094D5001018D6001034D8001045
:1025600000D50010FFFFFF0F44D50010FCD700106E
:10257000FCD40010DCD70010F0B5DE4657464E46BE
:102580004546E0B58BB00990002308938200B34B19
:10259000D658370052E0B24BB24A3D21B24800F063
:1025A00045FFB24BB24A3B21B24800F03FFF002941
:1025B00001D1002869D10021404600F023FEA0424D
:1025C00019D12A686B6806920793AB689846EB6846
:1025D0009A464346002B14D0002C18D03B681B7B36
:1025E0009C4214D8631EFA68D35C08931B021843FC
:1025F0003861002015E0A04BA04A8C219D4800F0D6
:1026000015FF9F4B9D4A90219A4800F00FFF974B72
:102610009C4A4021974800F009FF00239A469846BB
:1026200000207B68BFF35F8F00221A6086F310885A
:102630004346002B32D1002800D107E100F018FBFF
:1026400002000B1EA7DB002000210690079178688E
:10265000EFF3108672B601680029FCD0BFF35F8FDC
:10266000396888464C7B002CD7D09AD0097B8C42A5
:1026700097D8854965182D01B9688C466544286846
:102680006968801A9941002991DD2A686B68099868
:1026900000F078FB00239A469846C2E7089B1B028D
:1026A0002343994651461800C04705000E007A683A
:1026B000EFF3108B72B6136859424B41D9B2002B1D
:1026C000F9D1BFF35F8F002E26DB002E52DD3B6970
:1026D000002B53D04B4572D100F0CAFA02000B1EFA
:1026E00073DB0100180052197341984202D804D1DB
:1026F000914202D901225242D317002B6BDB0021F9
:102700000491013103910294514601914146009197
:102710003800FFF777FE49E03B69002BD5D04B45E9
:102720001CD1069A079B10001900521BB341994215
:1027300002D804D1904202D901225242D317002B71
:1027400012DB002104910131039102945146019161
:10275000414600913800FFF755FE27E04B4B474AB2
:102760009F21444800F062FE3D4B3E4A3D213E48D9
:1027700000F05CFE002E01D1002DA8D13A68002C9B
:1027800045D0537B9C422CD1012100293FD1D37BE2
:10279000002B42D1D473002C52D03B681B7B9C424F
:1027A0004ED8FA68013C135D0133135500233B6199
:1027B0007A68BFF35F8F13608BF310883EE7334B6B
:1027C0002E4AA2212B4800F031FE254B254A3D21FF
:1027D000254800F02BFE224B224A3D21224800F0E2
:1027E00025FE002C0DD0137B9C420AD863001B19D8
:1027F000033B1068844663449B78002BC5D00121BD
:10280000C3E7234B234A6921234800F00FFE234BE3
:10281000234AF721204800F009FE002B0AD0117B43
:102820008B4207D85900CB18033B11688C46634490
:102830005C70AFE7164B174A6921174800F0F6FDA8
:102840000A4B104A40210B4800F0F0FD0BB03CBC95
:1028500090469946A246AB46F0BDC046D8690020D6
:1028600040D60010A4D700105CD6001044D500104C
:10287000FCD7001000D50010ACD600104CD80010CA
:10288000C4D6001008D80010FFFFFF0FD0D60010EC
:1028900078D50010BCD7001094D500100CD70010CC
:1028A000ECD7001010B50A4B5B68002B04D00A214E
:1028B000084800F0FBFA10BD054C2300064A102121
:1028C000206800F0BFFB03212000FFF7B3FCEEE718
:1028D000005D0020FC690020A522001010B5064B09
:1028E0005B68002B01D0044810BD044B044A5C21F6
:1028F000044800F09BFDC046005D002030D700106A
:102900001CD8001000D50010F0B5DE4657464E46E4
:102910004546E0B58BB0804616001F00149B9A46D2
:10292000159B994616AB1B789B461F2302AA94461B
:10293000634400221A7032E0002809D0424612682F
:10294000127B904204D8421E4146C9688A5C48E026
:10295000434B444A4021444800F068FD0798002B4F
:1029600075D05B46002B72D04946D04704000D005D
:1029700003000B4300D171E0002946DB00F078F939
:1029800006000F1E55DB36196F41B94202D804D13B
:10299000B04202D901267642F717002F4FDB43469B
:1029A0005A68EFF3108472B6136859424B41D9B29A
:1029B0000791002BF8D1BFF35F8F1F3302AA944613
:1029C000634404930023039302934B4601935346BD
:1029D000009332003B004046FFF714FD031EABD1CD
:1029E000020041464968BFF35F8F00250D6084F304
:1029F0001088002B29D01F2302A98C4663441B7822
:102A0000002BABD112021043A9E732003B00361B6A
:102A1000AF41BB4202D804D1B24202D9012676426C
:102A2000F717002FBBDA114B114A3D21114800F076
:102A3000FDFC0E4B0E4A3D210E4800F0F7FC0B4BFF
:102A40000B4A3D210B4800F0F1FC012040420BB045
:102A50003CBC90469946A246AB46F0BD0798F6E7C7
:102A600044D5001008D8001000D5001040D6001042
:102A7000A4D700105CD60010F0B587B006000F0098
:102A8000FDF7F1FB00281FD106246442E517A419C5
:102A90007D41BD4202D803D1B44201D900240025B2
:102AA000002D14DB0494059500F0E2F802000B1EE3
:102AB00013DBA41A9D41002D17DC14D0300039001F
:102AC00000F0E2F807B0F0BD234800F0CDFC234B46
:102AD000234A3D21234800F0A9FC204B204A3D21F8
:102AE000204800F0A3FC002CE8D0FFF7F7FE0023FD
:102AF000029301931C4B0093049A059BFFF704FF7C
:102B0000002818DADAE7002300E00023002BD5D1F3
:102B1000164B1A68EFF3108172B61368002BFCD0C5
:102B2000BFF35F8F114B1B68BFF35F8F00221A60EA
:102B300081F3108820BF0499059A0D4B5B6A9A4275
:102B4000E3D80B48806A884203D29A42DBD0012343
:102B5000DCE70123DAE7C04654D7001040D6001066
:102B6000A4D700105CD6001075220010FC6900206C
:102B700000400540F8B504000D0000F079F80200AF
:102B80000B1E10DB20002900801859418B4202D80F
:102B900004D1824202D901204042C117002908DB3A
:102BA000FFF76AFFF8BD064B064A3D21064800F0D4
:102BB0003DFC034B034A3D21034800F037FCC0466F
:102BC00040D60010A4D700105CD6001070B5EFF30B
:102BD00005833F2018401038EFF3108472B6194B6C
:102BE0001B68002BFBD0BFF35F8F012319008140CE
:102BF000154A5163154A12781500C5402B4214D06E
:102C0000114B5D6A8300124E9B599D4206D383008F
:102C1000104D5B598A430D490A7007E00A4A031DAB
:102C20009B0099589950002300E00023BFF35F8F69
:102C3000044A0021116084F31088002B00D09847CB
:102C400070BDC046280100D000400540366A002013
:102C5000086A0020E068002010B50100024A03481D
:102C6000FFF724FA10BDC04670D80010346A002067
:102C7000044B5B6A034A906A1900536A9942F9D17E
:102C80007047C04600400540074B5B6A8B4204D248
:102C9000054B5B6AFAE7044B5B6A8B4203D1024B3C
:102CA0009B6A8342F7D370470040054070B504002B
:102CB0000D00FFF7DDFF02000B0020002900801847
:102CC00059418B4202D804D1824202D901204042AC
:102CD000C117002902DBFFF7D7FF70BD024B034A83
:102CE0003D21034800F0A2FB40D6001004D900109B
:102CF0005CD6001070B504000D00EFF3108672B6BC
:102D00001B4B1B68002BFBD0BFF35F8F002D1CD02B
:102D1000200000F03BFD174B83420BD01900200030
:102D200000F03CFD0121200000F028FD0123A3401C
:102D3000114A1360A400114BE550BFF35F8F0C4B99
:102D400000221A6086F3108870BDA2000B4B002190
:102D5000D1500122A2400A490B7893430B700549D8
:102D6000200000F045FD0021200000F007FDE4E711
:102D7000280100D0CD2B001038600540E06800200D
:102D8000366A0020F0B5DE4600B584B004001500B8
:102D900001921E000293FFF76BFF03958E4202D84B
:102DA0004ED185424CD9EFF3108B72B6274B1B687E
:102DB000002BFBD0BFF35F8F254A17780125A54074
:102DC000EBB23B431370234B5D63221D92000199CC
:102DD000D150A2002049029850501B6A2B4212D1B8
:102DE0001C4B1B6C2B4208D00020BFF35F8F174B8E
:102DF00000221A608BF3108823E0184B184AC12177
:102E0000184800F013FBFFF733FF8E4214D802D1AD
:102E1000039B834210D80E4B1B78BB420ED00D4B48
:102E20001D625D631F2004400123A3400E4A13600E
:102E3000074B1F701E38D8E70020D6E70120D4E7E3
:102E4000012004B004BC9346F0BDC046280100D068
:102E5000366A002000400540086A002094D800101F
:102E60001CD90010B8D8001080E200E010B5EFF3D4
:102E7000108472B60A4B1B68002BFBD0BFF35F8F28
:102E800001238340074A136207490A789A430A706C
:102E9000BFF35F8F024B00221A6084F3108810BDCD
:102EA000280100D000400540366A0020024B9C46B5
:102EB00061448900016070474000003470B504002F
:102EC0000D00FFF727F901002000FFF7EFFFFF23B8
:102ED00023716571BFF35F8F70BD10B50021FFF7DF
:102EE000EDFF10BD10B5FF21FFF7E8FF10BD00009A
:102EF00010B500291ED0037B99421BD84B005B18EC
:102F0000033B0468A4466344002919D0002A1DD05D
:102F1000914221D0002A25D0047BA24222D8046805
:102F200050008018033820188170197800291FD1AB
:102F30001A7010BD104B114A6921114800F076FA41
:102F4000104B114A70310E4800F070FA0F4B0E4AC8
:102F500071210B4800F06AFA0D4B0B4A72210848A8
:102F600000F064FA044B054A6921054800F05EFA56
:102F700041701A70DDE7C04678D50010DCDA001029
:102F800094D50010E8D50010E8DA0010F4D5001050
:102F900000D6001070B506000D001400002914D0F2
:102FA000002A14D0806873689847002806D0220051
:102FB00029003000FFF79CFF280007E02A002100CD
:102FC0003000FFF795FF200000E0100070BD080002
:102FD000FCE7000010B50023437301338373037BC8
:102FE000C3730123027B9A4214D9002B0CD0027BBD
:102FF000934209D85A00D218033A01688C466244B9
:103000000133DBB25370EDE70B4B0C4A69210C48DE
:1030100000F00CFA002A09D0924207D80168530048
:103020009A18033A8A180023537010BD024B034AC2
:103030006921034800F0FAF978D50010DCDA0010B5
:1030400094D5001010B5017342608360FFF7C2FF92
:1030500010BD000070B50400081E00D170BD00292D
:1030600034D0237B994231D84B005B18033B226854
:10307000944663445A78002AF0D02DD0237B9A429C
:103080002AD853009B18033B21688C4663445D7823
:1030900000215970002825D0237B984222D8430074
:1030A0001B18033B21688C466344002159700100C2
:1030B0002000FFF76FFF060029002000FFF7CAFF7E
:1030C000020031002000FFF765FFC7E7084B094AFF
:1030D0006921094800F0AAF9054B064A692106480A
:1030E00000F0A4F9024B034A6921034800F09EF95D
:1030F00078D50010DCDA001094D5001070B505000A
:103100000C001600002928D02DD0037B99422AD824
:103110004B005B18033B0268944663445A78002ACC
:1031200027D19A78002A2AD11978FFF793FF030054
:10313000002E03D0EA7B002A27D1EC73002B37D175
:10314000002C49D02B7B9C4246D82B6861000C197F
:10315000033C1C190023637070BD224B224A3821A6
:10316000224800F063F9224B224A6921224800F0EC
:103170005DF9224B1C4A3A211C4800F057F9204BBC
:10318000194A3B21194800F051F9002A0AD0297B3D
:103190008A4207D851008A18033A29688C4662444B
:1031A0005470CAE7124B134A6921134800F03EF9E4
:1031B000002B0BD02A7B934208D843001B18033BFB
:1031C0002A689446634400229A70B9E7084B094A7A
:1031D0006921094800F02AF9054B064A6921064889
:1031E00000F024F91CDA0010FCDA001024DA0010D8
:1031F00078D50010DCDA001094D5001068DA0010E1
:1032000090DA001070B504000A00457B2900FFF732
:1032100075FF6073280070BD70B50400002966D08A
:10322000437B8B420ED0002911D0037B99420ED8EC
:103230004B005B18033B0268D0188378002B0CD13D
:10324000002055E00121FFF7DDFF012050E0294B70
:10325000294A6921294800F0E9F8002B1FD0227B78
:1032600093421CD825685A00D318033BEA18EB5C3C
:103270008B421AD0002B1BD0227B934218D85A00C5
:10328000D318033B2268D21853788B4216D0002BF8
:10329000F0D11B4B1B4A67211B4800F0C7F8154BA8
:1032A000154A6921154800F0C1F84378137007E00A
:1032B000104B114A6921114800F0B8F84378537057
:1032C00000238370437001222000FFF717FF0200E4
:1032D000617B814205D02000FFF75CFE6073012016
:1032E00006E00A4B074A6D21074800F09FF80020CE
:1032F00070BDC04678D50010DCDA001094D50010FF
:10330000B4DA001010DB001024DA0010BCDA001070
:1033100070B5264B264A1A60264B274A1A60274B5F
:103320009A68254B9343FAD1254C264B9C4202D2F6
:1033300008CC9847F9E700F031F91E4B224A1A6091
:103340001E4B9B68DB43DB01FAD1204B40229A677E
:103350005A671A67DA661E4C03E02000FFF7BDFDCE
:1033600008341C4B9C4206D26379002BF5D0200018
:10337000FFF7B8FDF4E7184CA168184DC0222800EB
:1033800002F0FCFDA560FCF76EFF002800D000BE37
:10339000FEF7B0FE00F08EFBFFF784FA104C01E060
:1033A00008CC98470F4B9C42FAD370BD00E0004018
:1033B000BFCDFBFE00F00040FE7F3C0000C000409F
:1033C0006867002078670020FFFFFF0100F00140E0
:1033D000586700206867002000ED00E00000002032
:1033E000786700207C67002000BEFDE703000A4AE2
:1033F0001268002A08D0084A1068C318074A9A427F
:1034000006D3054A13607047034A05491160F2E785
:1034100001204042F7E7C0469C69002000000420DC
:1034200064DD002010B5FFF7DFFF000010B582B0AB
:103430000C001900002A0CD0084B002A0BD0019276
:10344000009323000200064802F030FF0120FFF73E
:10345000CBFF044BF1E7034AF1E7C04628DB00103D
:1034600038DB001064D000100FB400B583B00848FA
:1034700002F0ECFE049B002B07D005A90191180077
:1034800002F0F2FE034802F0E1FE0120FFF7ACFF7C
:1034900068DB00102CD00010F8B5DE4657464E46CB
:1034A0004546E0B505000F0092461E000A9B9E426D
:1034B0004ED3330E994636020A9A0023300049460D
:1034C00001F004FD80466C006419A4002E4B9C465C
:1034D00064446368834200D260602B1FDBB29B466A
:1034E000012B3BD9C0239B012343802212011A6088
:1034F000AB00264A9958002905D0506901F0A4FC78
:1035000001300138FDD153465A0123685A40E02367
:103510001A4080235B0123431A605A46012A28D9A6
:1035200080239B012343802212011A60434663607B
:10353000424600233000494601F0C8FCAD00134B61
:10354000585101203CBC90469946A246AB46F8BD76
:103550000F4B104A2D211048FFF768FF012FC1D1F2
:10356000C0239B01234303221A60A368DB07FCD519
:10357000C9E72168794003220A401A60A368012242
:10358000BA401A42FAD0CBE7008000401069002010
:1035900078DB0010DCDB00108CDB001030B583B072
:1035A0000C2000F01FFBFEF79BFD00280DD0002330
:1035B000092B05D899002D4A2D4888500133F7E78B
:1035C0002A4B2C4A5A6203B030BD2B4B00229A671B
:1035D00000F010FB294B01221A60274B5B6C012B7A
:1035E000FBD1274B03221A60234B9B6B012BFBD192
:1035F000022400940533234A0121234800F066FA8F
:1036000000940523214A0121214800F05FFA214B53
:103610000093002202210420FFF73EFF1E4D00957B
:103620002B00002201210520FFF736FF104C0094EB
:103630002300002200210720FFF72EFF0094230023
:10364000002200210820FFF727FF0A4B00932300E8
:10365000002200210920FFF71FFF00952B00002208
:1036600000210620FFF718FFADE7C04610690020D3
:10367000006CDC021BB70000008000403CB0004042
:1036800030B00040002F68590080024000389C1C78
:1036900000C00240001BB700405973078000014B77
:1036A000C058704710690020074B9B68103080009D
:1036B0001950BFF35F8FBFF35F8F044B0021196078
:1036C00082F310887047C04600ED00E0240100D06E
:1036D00010B5091A04394808090B05D14005400DF9
:1036E000044B184380B210BD034B044A8C2104489C
:1036F000FFF79CFE00E0FFFFECDB0010D4DD0010C4
:10370000FCDB001010B5091A04394C08090B08D16C
:103710004905490D064A11430180064B2343438066
:1037200010BD054B054A94210548FFF77FFEC046B2
:1037300000F0FFFF00F8FFFFECDB0010E0DD001001
:10374000FCDB001001238340034A10681840431E2D
:103750009841C0B27047C04600E100E0002904D0A3
:10376000034B1860034B18607047034B1860FBE76E
:1037700080E200E000E100E080E100E010B501231C
:1037800083401800FFF7EAFF10BD0000024B9B6862
:1037900010308000C058704700ED00E070B50400A4
:1037A0000D00EFF3108672B60C4B1B68002BFBD09C
:1037B000BFF35F8F2000FFF7E9FF094B984201D06C
:1037C000A84205D1320029002000FFF76DFF70BD2F
:1037D000044B054A70210548FFF728FE240100D05C
:1037E000CD01001044DC0010B8DD0010FCDB00103F
:1037F000F0B5CE46474680B583B006000D00EFF326
:10380000108872B6574B1B68002BFBD0BFF35F8F3D
:10381000554B9A6834001034A300D758534B9F423D
:1038200007D0AF4200D19BE00197514BFB1A2F2BE1
:1038300009D9424639003000FFF736FF03B00CBC0F
:1038400090469946F0BD3000FFF77CFF814600218D
:103850003000FFF793FFBFF35F8FFCF704FD0028F4
:1038600001D0844219D10123019C9C43230040498B
:103870005B1A5B4148495943090D49B20022A368CC
:10388000AB4212D00622A256002A0DDB53009B1831
:103890009B002200364CE418F1E72021354B364AD4
:1038A000FF313648FFF7C2FD2200AB4251D1062559
:1038B0006557002D39DB6B005B199A002C4B9B1868
:1038C0009A68A260DA79E27106229A56A2719B790F
:1038D0005BB2002B10DABD200002A0806B005B19E8
:1038E0009B00234AD318264A1178997115704946CE
:1038F0003000FFF743FF9CE7201D6B005B199B0026
:103900001B4A9B181A1D9B88D90A1C2907D15905E7
:103910004915023149005118FFF7DAFEDDE7194B6E
:10392000194A9A211548FFF781FD00280CD1002A79
:1039300008D0FF239371154B9380114B1A78A27115
:103940001970D4E7094FF8E7201D1149FFF7DAFE97
:10395000CDE7AA210F4B084A49000848FFF766FD4A
:10396000024F66E7240100D000ED00E0CD01001019
:10397000285D002058DD001008DE0010FCDB001080
:10398000356A002040DD0010F8DD001000BDFFFFAB
:10399000625D00207CDD0010AAAA000010B50323A0
:1039A00004009C43064A9446644422681840C000C0
:1039B000FC3383409A43130081400B43236010BDC6
:1039C00000E400E0F8B50400012606432D4BF31A8D
:1039D0002F2B28D8FCF747FC00282BD0EFF31087BB
:1039E00072B6294B1B68002BFBD0BFF35F8F2300FF
:1039F000244D5B1B5B412E4D5D432D0D6DB2234B62
:103A00009B6880001B58B3421BD00022032A32D887
:103A100053009B189B001B49CB189B795BB2AB42B0
:103A20001FD00132F2E77221194B1A4AFF311A48AE
:103A3000FFF7FCFCBA21194B164A49001648FFF75C
:103A4000F5FC124B9B68164A1A50164B1A78A27155
:103A50001D70BFF35F8F0C4B00221A6087F3108834
:103A6000F8BD08005300991889004118FF268E718F
:103A70000D4A8A80E9E786210C4B064AFF31064849
:103A8000FFF7D4FC285D0020240100D000ED00E009
:103A900084DD00101CDE0010FCDB0010ACDD00102B
:103AA000CD010010356A002000BDFFFFB4DA001020
:103AB000AAAA000010B500241F2C05D880212000E0
:103AC000FFF76CFF0134F7E710BD0000F0B5CE46FC
:103AD00000B504000E0091461F000C2001F0B4F95F
:103AE000050043011B1A9901C91AC9000918890167
:103AF000484601F0A9F90200103A98235B009A4267
:103B000033D87B1E062B36D8069B013B062B32D8BA
:103B1000069B9F4235D34B461A09AA4237D33F042E
:103B2000069B1D032F432368002B36DB234B9C424F
:103B300041D080256D01224B1D60224B1D60224A21
:103B400092682B009343FAD12660A060221DC02307
:103B50009B01134321221A602268002AFCDAE760E5
:103B600008221A6004BC9146F0BD184B184A162171
:103B70001848FFF75BFC184B154A19211548FFF749
:103B800055FC164B124A1F211248FFF74FFC144BED
:103B90000F4A22210F48FFF749FC22683F231340B8
:103BA000B342C3D1A3681B051B0D8342BED1E3689A
:103BB000002FBBD1D6E78025AD01BCE700C0024095
:103BC00000E0004000F0004000C0004038DE00107F
:103BD0001CDF001054DE00109CDE0010E8DE001038
:103BE00000DF001080239B000343014AD36270472B
:103BF00000800540064BAA2212011A602F22DA60CB
:103C0000044B054A1A60024B5B68002BFBDA7047D5
:103C1000004002400060024000B0FA009A4200D228
:103C200088547047704710B5002802D00B68496867
:103C3000984710BD010000200A681378303BDBB2C2
:103C4000092B08D883001B185B00501C08601078F3
:103C5000C0183038F0E77047F0B5DE4657464E469C
:103C60004546E0B583B093461F000C9B9A460D9CD9
:103C70000E9B99460F9B9B0703D0B8460F0006008A
:103C800022E00192A34688464E46B9460700B44258
:103C900007D2551C4B4641462020B84701342A0024
:103CA000F5E73D004F465C46019B9B46B1464646C4
:103CB000B84637002E0007E0013C551C5346185DFE
:103CC00043463900B0472A00002CF5D135003E00AC
:103CD00047460F9B9B0707D4100003B03CBC90469F
:103CE0009946A246AB46F0BDB0464E46B9462F00B7
:103CF0005D46531BB342EFD2541C4B464146202035
:103D0000B8472200F5E7F0B5CE46474680B585B006
:103D1000944698460C9D0D9C0EAB1B789946109AC4
:103D2000119B129EB7071BD4002B08D0F70706D5AE
:103D30004F46002F02D10C37374200D0013B94424E
:103D400008D21F2C06D830272F550134F7E730272B
:103D50002F550134F70703D59C4201D21F2CF6D909
:103D6000F70615D5770505D4002C03D0944224D04E
:103D70009C4222D00F9A102A2BD00F9A102A30D0B2
:103D80000F9A022A35D01F2C02D830222A5501342E
:103D90001F2C05D84A46002A31D02D222A5501343D
:103DA000039602930194009543466246FFF754FF41
:103DB00005B00CBC90469946F0BD621E012C06D0A1
:103DC0000F9F102F01D01400D4E7023CD2E714005B
:103DD000D0E7B206D1D41F2CCFD878222A5501348F
:103DE000D1E7B206CCD51F2CCAD858222A550134A7
:103DF000C9E71F2CC7D860322A550134C3E77207C0
:103E000003D52B222A550134CAE73207C8D5202210
:103E10002A550134C4E7F0B5DE4657464E464546BE
:103E2000E0B593B081468A46089209931CAB10CB4B
:103E30001B789B461E9D219B9846002C03D1102386
:103E400042469A4390468023DB0046461E40424647
:103E50001A4212D0002C22D000260EE03033D9B204
:103E6000771C0AAB99552900200000F0EDFFAC4209
:103E700016D31F2F14D83E0004002900200000F0A4
:103E8000E3FFCBB2092BE9D94246920605D5412181
:103E9000C918C9B20A39C9B2E2E76121F8E72700B7
:103EA00043460693209B05931F9B049303955B4613
:103EB000029301970AAB0093099B089A5146484622
:103EC000FFF721FF13B03CBC90469946A246AB4693
:103ED000F0BDF0B5DE4657464E464546E0B595B0D6
:103EE000089009910A920B931E9E1F9C20AB1B7891
:103EF0009B46229B9946239D269B9A46330023434B
:103F000003D1103352469A4392468023DB00574632
:103F10001F4052461A4219D0330023432DD00027A8
:103F200014E03033DAB27B1C98460CABDA554A46C3
:103F30002B003000210000F0C9FFA5421FD819D086
:103F400043461F2B1BD8474606000C004A462B0051
:103F50003000210000F0BAFFD3B2092BE1D952465C
:103F6000920605D54122D218D2B20A3AD2B2DAE785
:103F70006122F8E7B145E3D901E0002398465346B2
:103F80000693259B0593249B04934B4603935B4622
:103F90000293434601930CAB00930B9B0A9A099939
:103FA0000898FFF7B0FE15B03CBC90469946A24673
:103FB000AB46F0BDF0B5DE4657464E464546E0B549
:103FC00091B083468A460C9298461A9C08941B9D91
:103FD000099522002B002000290001F00CFA00288E
:103FE00000D0E5E001225242D34B2000290001F02D
:103FF000FDF9002800D0DBE001225242CF4B200027
:10400000290001F0DDF9002800D0D1E000220023D2
:10401000089D2800099E310001F0D2F9002800D047
:10402000DDE008980999069007918023DB001E9A2D
:104030001A400D921E9A1A4201D106231C9306982B
:10404000079904000D000A000600024300D1CDE0EC
:10405000080D4005400DBA4CA44660440A03120BFB
:10406000B84B13431F0001F0D9F9B74AB74B01F021
:104070005CF9B74AB74B01F031F904000D0000229A
:10408000B54B3000390001F020F9B44AB44B01F0CF
:104090004CF902000B002000290001F01FF901F08B
:1040A000D5F9814601F0BAF904000D00AD4AAE4BD6
:1040B00001F03BF90022AD4B01F010F901F0C6F917
:1040C0000600AB4AAB4B2000290001F02EF904009A
:1040D0000D00300001F0A2F9A74AA84B01F025F924
:1040E00002000B002000290001F0EFF804000D0091
:1040F00002000B0001F019F90A900B91A04BF31884
:1041000000261F0522002B002000290001F0E6F800
:104110000E900F9122002B0000208021C90501F094
:10412000D4F804000D000022964B0A980B9901F078
:10413000DEF80022944B01F0D1F802000B000A983F
:104140000B9901F0D4F80022904B01F0C7F802005F
:104150000B000A980B9901F0CAF802000B0020002E
:10416000290001F0BBF802000B000E980F9901F036
:10417000BEF80022734B01F0B1F832003B0001F0B1
:10418000D4F806000F0004000D00069A079B01F00A
:104190002DF900282CD001235B429C46E1440022EB
:1041A000794B3000390001F0A2F804000D001FE047
:1041B0001E9B04931D9B03931C9B0293089A099BCF
:1041C0000092019343460C9A5146584600F0F8F885
:1041D00011B03CBC90469946A246AB46F0BD069550
:1041E00080231B069C46664407961EE700239946DB
:1041F0004B466333C62B1FD804261E9B1B0527D5B1
:104200002B00234310D0624A624B0698079901F0B5
:10421000E5F8002800D183E000225F4B069807995B
:1042200001F0CEF800287BD01C9B4B4506DD4A46AA
:10423000981A431E1C9303E00526DEE700231C9317
:104240008023DB001E9A1A431E9200260023994603
:104250001D9B9E426ED29F1B02231E9A1A400A92F9
:104260001E9A134202D0002E00D000274B46002B8E
:1042700007D022002B000698079901F038F8069025
:104280000791002200230898099901F099F8002865
:1042900000D085E0414B1E9A1340049303971C9B6A
:1042A0000293069B079C0093019443460C9A514647
:1042B000584600F085F8002E00D189E71E9B9B062A
:1042C0007AD54525441C4346020051462800D8476C
:1042D0004B46DA179B18534005220592013E04967F
:1042E000002203920A3202924A46D00F01900093B4
:1042F0004346220051465846FFF78DFD0A9B002B8E
:1043000000D165E702005F460C9E1D9D931BAB42EA
:1043100054D2541C434651462020B8472200F5E7AA
:104320001C9B002B94D00D9B002B91D01C9B013B20
:104330001C938DE700278FE7FFFFEF7FFFFFEFFF65
:1043400001FCFFFF0000F03FFB799F501344D33F77
:10435000B3C8608B288AC63F0000F83F61436F6393
:10436000A787D23F71A379094F930A400000E03F2D
:104370001655B5BBB16B0240EF39FAFE422EE63F4F
:10438000FF03000000002C40000024400000184003
:104390002D431CEBE2361A3F80842E41FFF7FFFFCE
:1043A000069C079D22002900802000068446614467
:1043B0000B00069207936DE7652583E7100007E77A
:1043C000F0B5DE4657464E464546E0B595B00690F8
:1043D000079193469946209F1E9A1F9B1000190033
:1043E00001F009F8002831D101225242BF4B1E983A
:1043F0001F9900F0E5FF002837D101225242BC4B43
:104400001E981F9900F0F2FF00283DD10022B94B01
:104410001E981F9900F0EAFF002850D10022B64BE9
:104420001E981F9900F0CCFF002848D100220023DD
:104430001E981F9900F0C4FF002850D10023984611
:10444000229B5B0500D4B6E0002458E0229B039336
:10445000219B029303230193A84B00934B465A469A
:1044600007990698FFF7F8FB0EE1229B0393219B27
:10447000029304230193A24B00934B465A4607999B
:104480000698FFF7E9FBFFE00423229A1A402299DD
:104490000B4210D09B4B002A0FD00422229903918B
:1044A00021990291019200934B465A46079906982A
:1044B000FFF7D2FBE8E0944BEDE70322EEE7229B07
:1044C0000493219B039302971E9B1F9C00930194CE
:1044D0004B465A4607990698FFF76CFDD4E01E9AA2
:1044E0001F9B0020002100F0F0FE1E901F91012371
:1044F0009846A5E70CAB30221A55013F01341F2C1A
:1045000001D8092FF6D81E981F9900F09FFF0500CB
:1045100000F084FF02000B001E981F9900F0D5FEEA
:10452000FA007A4B9B181A685B680A920B9300F0AA
:10453000FCFE0890099100F0ADFF060000F06AFF54
:1045400002000B000898099900F0BFFE089009913D
:1045500000226F4B00F04AFF00282ED001363000B9
:1045600000F058FF02000B000A980B9900F02EFF94
:10457000002801D001350026002F2CD1280000F0A2
:104580004DFF02000B001E981F9900F09EFE0600D2
:104590000F0000225E4B00F013FF002842D10022E2
:1045A0005B4B3000390000F021FF00283AD1EB07C7
:1045B00038D5013536E0062746E70022544B0898E7
:1045C000099900F0FDFE0028D6D1002E01D0F30796
:1045D000D2D50136D0E7AA461F2C11D8013F0A21B7
:1045E000300000F031FC651C30310CAB19550A214C
:1045F000300000F029FC092E26D906002C00EBE73C
:10460000554604E00CAA302111551F0001341F2C1F
:1046100002D87B1E002FF5D11F2C03D80CAB2E2205
:104620001A5501341F2C14D80A21280000F0E4FB8D
:10463000661C30310CAB19550A21280000F0DCFB58
:10464000051E05D03400EDE72B0055461C00DEE7C3
:1046500034000323229A1340012B1CD01F2C06D8B0
:104660004346002B32D00CAB2D221A550134229B2D
:104670000393219B029301940CAB00934B465A4643
:1046800007990698FFF7E8FA15B03CBC90469946A2
:10469000A246AB46F0BD219B002B13D04346002B16
:1046A00002D10C3313420FD0219B013B21931900FF
:1046B00003E00CAB30221A5501348C42CED21F2CB1
:1046C000F7D9CBE72199F8E72199F6E7229B5B0719
:1046D00004D50CAB2B221A550134C8E7229B1B07CB
:1046E000C5D50CAB20221A550134C0E7FFFFEFFF00
:1046F000FFFFEF7F65CDCD4165CDCDC134DF00102B
:1047000038DF00102CDF001028DF001020E100103F
:104710000000E03FF0B5DE4657464E464546E0B560
:1047200093B082468B4690461193002900D1ECE26B
:1047300000275546119B1878002800D1E8E225286B
:1047400009D07C1C43463A005946A847119B0133C7
:1047500011932700EEE70133119300241DE00B00B5
:10476000303BDBB2092B37D92A293AD000230A93F0
:10477000119B1A782E2A44D000239A46119A137856
:10478000683BD9B2122900D980E08B00CB49CB58C5
:104790009F4601231C4301321192119A11780B009C
:1047A000203BD8B21028DAD88300C548C3589F46AA
:1047B00002231C4301321192EFE704231C43013210
:1047C0001192EAE708231C4301321192E5E7102316
:1047D0001C4301321192E0E711A8FFF72BFA0A906F
:1047E000C6E71C9B1A1D1C921868002804DB0A905F
:1047F000119B01331193BBE702231C4343420A93ED
:10480000F6E78022D20014435A1C11925A78130002
:10481000303BDBB2092B04D92A2A07D000239A4661
:10482000ACE711A8FFF706FA8246A7E71C9B1A1D02
:104830001C921868002804DB8246119B01331193F7
:104840009CE70020F8E780235B002343511C119173
:1048500052786C2A01D01C0018E0C0239B001C4336
:104860000131119112E080232343511C11915278A0
:10487000682A01D01C0009E0C0231C4301311191BA
:1048800004E080235B001C4301321192119B1878D5
:104890000300253BDAB2532A00D92CE29300894A5F
:1048A000D3589F4680239B001C4301321192EDE7B1
:1048B00080235B001C4301321192E7E7782809D07E
:1048C000582838D06F2838D0622838D010239C431D
:1048D0000A2600E01026582833D0692803D064281F
:1048E00001D00C229443630501D501229443692829
:1048F0002AD0642828D0A30500D59FE0E30500D581
:10490000B8E0630600D4CAE01C9A111D1C9111681E
:10491000FF220A4005940A9B049353460393029690
:1049200000230193009243463A0059462800FFF7BE
:1049300072FA070027E01026CDE70826CBE702260B
:10494000C9E720221443C8E7A30520D4E30550D4C7
:10495000630666D51C9A111D1C911168FF220A403E
:10496000D317D118594005940A9B049353460393D7
:104970000296D20F0192009143463A005946280010
:10498000FFF749FA0700119B01331193D2E61C9BF4
:10499000DA1D07218A43110008311C911168536800
:1049A0009C46DB170C930D930C9A0D9B100048400E
:1049B0000E90624653400F930E980F990C9A0D9BE0
:1049C000801A99410E900F9108940A9B07935346C1
:1049D00006930496002305936346DA0F0292009033
:1049E000019143463A0059462800FFF772FA070042
:1049F000C9E71C9A111D1C911268D317D118594090
:104A000005940A9B0493534603930296D20F019296
:104A1000009143463A0059462800FFF7FCF9070089
:104A2000B1E7230605D51C9A111D1C910023D25E07
:104A300096E71C9A111D1C91126891E71C9BDA1DC8
:104A400007218A43110008311C9108940A9B07939F
:104A50005346069304960023059302931368546803
:104A60000093019443463A0059462800FFF731FA73
:104A7000070088E71C9A111D1C9105940A9B04935A
:104A80005346039302960023019313680093434611
:104A90003A0059462800FFF7BEF9070073E72306DE
:104AA00006D51C9A111D1C9112681204120C31E7D4
:104AB0001C9A111D1C9112682CE7C04640DF0010A3
:104AC0008CDF0010D0DF001046281AD01C9B073363
:104AD000072293431A0008321C9204940A9A039204
:104AE000524602925C681B680093019443463A0068
:104AF00059462800FFF764FC0700119B013311930E
:104B000018E620231C43E1E7672801D0472802D19B
:104B100080231B011C43452801D0472801D12023B5
:104B20001C431C9B0733072293431A0008321C9234
:104B300004940A9A0392524602925C681B6800939E
:104B4000019443463A0059462800FFF733FA07001C
:104B5000119B01331193EDE502231A002240924686
:104B600023421FD001241C9B1A1D1C927A1C9146C3
:104B7000187843463A005946A8475346002B16D1A9
:104B8000119B013311934F46D4E5561C43465946B9
:104B90002020B847230032005C1C9D42F5D83D0020
:104BA0001700E0E701233A002F000A9DF4E74A4688
:104BB000A9460A9D06E0571C434659462020C8478F
:104BC00034003A00661CA542F5D84D469146D7E719
:104BD0001C9B1A1D1C921B6899465346002B00D142
:104BE000013B4E4601E0013613003278002A02D024
:104BF0005A1E002BF7D14B46F21A10928023DB008D
:104C000026001E401C4203D0524501D95346109342
:104C100002231A0022400B92234205D03A003700AB
:104C20004C46A946554620E03A00109B5F46B346E5
:104C30002E0006E0551C434639002020B0472300D3
:104C40002A005C1C0A999942F4D835005E46BB469E
:104C5000109437004C46A946554606E01D00013425
:104C6000561C43465946C84732002078002804D0D5
:104C7000002FF4D06B1E002DF0D117004D460B9B7A
:104C8000002B03D1119B0133119353E50A9F109B15
:104C900006E0561C434659462020A8472300320010
:104CA0005C1C9F42F5D81700ECE721231C431C9B9A
:104CB0001A1D1C921B680093059408230493534605
:104CC0000393102302930023019343463A0059466D
:104CD0002800FFF7A0F80700119B0133119329E585
:104CE0007C1C43463A0059462520A847119B0133B6
:104CF000119327001EE57C1C43463A005946A847FD
:104D0000119B01331193270014E50B4B9A460FE5D5
:104D1000AA4647450DD343465A1E434659460020EE
:104D2000D047380013B03CBC90469946A246AB46EB
:104D3000F0BD3A00F1E7C046253C00100EB410B5B6
:104D400085B0010007AC08CC0394012200945242C4
:104D50000348FFF7DFFC05B010BC08BC03B01847E0
:104D60001D3C001000B585B0029003910121009315
:104D700013004A4202A90248FFF7CCFC05B000BD6F
:104D8000273C001001480421014B1847705D0020AA
:104D9000C14D0010014B9B6818470000705D00205A
:104DA00010B5010018231B8814221088984710BDE5
:104DB00010B5010018231B8816221088984710BDD3
:104DC000F0B5C64600B507000E0000250123984641
:104DD00000E00135B5420AD2AC003C192068FFF76B
:104DE000DFFF20600028F4D100239846F1E7404619
:104DF00004BC9046F0BD0000124A936F9B0815D288
:104E00009066D166002905D0FFE7FFE7FFE7516F05
:104E1000106F704704B580210906C2175140002861
:104E200000D0C84307F098FC002104BDF0B5146E13
:104E3000556E576F166FFFF7E3FF14665566576799
:104E40001667F0BD000000D0114A936F9B0813D283
:104E500010665166002905D0FFE7FFE7FFE7516FB5
:104E6000106F704704B5002801D00020C04307F040
:104E700073FC002104BDC046F0B5146E556E576F2B
:104E8000166FFFF7E5FF1466556657671667F0BDA6
:104E9000000000D094464E4A926F9208624601D2BA
:104EA00030E0C046F0B54A4EB56F6D08FCD3346EA5
:104EB000756E776F366F00F025F89446444A146695
:104EC0005566576716676246F0BDC0469446404A2D
:104ED000926F9208624601D258E0C046F0B53C4E4F
:104EE000B56F6D08FCD3346E756E776F366F00F05A
:104EF0004DF89446364A14665566576716676246FB
:104F0000F0BDC046002B24DB11D000293EDA00B5ED
:104F1000C943404200D1013100F038F8C943404252
:104F200000D10131DB43524200D1013300BD002AE0
:104F3000EBD1002801D1002905D00020C90FC907F5
:104F400001D1C043410800B507F0FEFB0022002359
:104F500000BD00B500290ADBDB43524200D101331A
:104F600000F014F8C943404200D1013100BDC943EB
:104F7000404200D10131DB43524200D1013300F005
:104F800005F8DB43524200D1013300BD002923D193
:104F9000002B18D1002A0CD0BC460D4F38667A661B
:104FA00000210023FFE7FFE7FFE77A6F386F6746CE
:104FB0007047002801D00748010000B507F0C4FB86
:104FC0000022002300BD02000B00002000217047DA
:104FD000000000D0FFFFFFFF002B00D0BDE0130C4E
:104FE00026D1002AE7D080B4104F39667A66FFE7F1
:104FF000FFE730B4040C7B6F396F1B0423433B661F
:10500000FFE7FFE7FFE7C04684B27B6F3D6F1B04FD
:1050100023433B66FFE7FFE7C04600232C042D0C2B
:105020007A6F386F00196941B0BC7047000000D03A
:10503000F0B594460025140E01D112020835140F64
:1050400001D112010435940F01D192000235D40F21
:1050500001D152000135D40B0134254F7C66254C1B
:105060003C660E0C93B2FFE7FFE7FFE73C6F664339
:10507000360C7703BE467343DF0B5B04C01AB9419D
:10508000130C7343DB18C91ACE086643360CB644BA
:1050900093B273431F0F1B01C01AB941130C734322
:1050A0001F0B1B05C01AB941860D8F023E43664394
:1050B000360C092D24DB520A7243801A7703460A04
:1050C0006643360C16235B1BDE40DF40BF19644687
:1050D0006643821B7046043506330100D940A84060
:1050E000C01900D30131A24206D20023F0BD000056
:1050F000000000D0FFFFFFFF121B0130F3D3F1E7E8
:1051000009277F1BFE406446A2B27243801A00D278
:105110000139220C7243130C1204821A99410B00BC
:105120007046043513370100F940A840801900D3B8
:105130000131002B02D1A2420AD2F0BD013000D3CE
:105140000131121BFAD2013BF8D1A24200D2F0BDCC
:10515000013000D30131121BF7E7F0B51C0C00D071
:1051600080E00CB400251C0A04D11B02160E334348
:10517000120208351C0B04D11B01160F3343120118
:1051800004359C0B04D19B00960F334392000235EB
:10519000DC0B02D192185B4101351C009718644169
:1051A0000134464F7C66464C3C660E0CFFE7FFE739
:1051B000FFE7C0463C6F6643360C7703BE4697B2A6
:1051C0007743C01B00D20139C01B00D201399FB206
:1051D0007743C91BC91B170C77437E04FF0B801B49
:1051E000B941CE086643360C0C2D33DBB644120BA6
:1051F0001F053A431B0B97B27743C01B00D20139FE
:105200009FB27743C91B170C77433E043F0C801BAA
:10521000B941860D8F023E43664329277F1BFE401E
:105220000C3D7746AF40BF1930BCA2B2ABB272435F
:105230007343801A9941220C7243130C1204801A92
:10524000994102000B000137001BA941F9D2781ED9
:105250000021F0BD0C277F1BFE4077467F0BAF403F
:10526000FF19E0E700245D1C07D0144F7D66396606
:10527000FFE7FFE7FFE7FFE73C6F95B29EB26543AC
:105280006643401BB141150C1E0C65436643360452
:105290002F0C3E432D04401BB141994204D2020021
:1052A0000B0020000021F0BD01D19042F7D3801AFD
:1052B000994101349942F2D3F6E70000000000D092
:1052C000FFFFFFFF48404140484018B41B4B5B685C
:1052D000FC46019308BD04DF2356001018B4174B99
:1052E0001B68FC46019308BD00DF2D560010944654
:1052F000134A926F920809D2624618B40F4BDB68CA
:10530000FC46019308BD0CDFE55800100C4AF0B5CF
:10531000146E556E576F166F6246FFF7EEFF084A20
:105320001466556657671667F0BD18B4034B9B6843
:10533000FC46019308BD08DF895700105CDB0020A4
:10534000000000D0FFB550404240504059404B4013
:10535000594000E0FFB5154F4C00640D03D0BC422E
:1053600004D10C0314D80020090D09055C00640D5C
:1053700003D0BC4204D11C030AD800221B0D1B051C
:1053800001264B4009D44B4003D58B4200D18242C9
:10539000FFBD9942FCD19042FFBD0B43DB18034394
:1053A0001343F5D0C9434918FFBD0000FF070000B3
:1053B00000B5FFF7CFFF01D0002000BD012000BDE8
:1053C00000B5FFF7C7FF804100BDC04600B5FFF73D
:1053D000C1FF01D9002000BD012000BD00B5FFF7CD
:1053E000B1FF01D9002000BD012000BD00B5FFF7CD
:1053F000A9FF804100BD012040054A00121804D8D1
:105400005A00121801D80020704701207047002070
:10541000704700000021002805D17047C11748409F
:10542000401AFAD0C90713B5064B1B6898470CBC45
:10543000441CA2401005120B0349091B090519431E
:10544000114310BD5CDD00201F04000010B54C00AE
:10545000620D8023D218DB00D21A5B057E2A10DD94
:105460009E3A13DACC170903490819435242D14036
:10547000640001341532202A05DAD0400843604325
:1054800010BD002010BD0846604310BDC80FC018F5
:10549000013810BD18B4044B5B6AFC46019308BD8B
:1054A00024DF115B001000005CDB002018B4044B0B
:1054B000DB6DFC46019308BD5CDF195C0010000049
:1054C0005CDB0020C94211D300B549004908002225
:1054D00000F018F8002904D4002240428A41114605
:1054E00000BD80210906002000BD000018B4044B57
:1054F000DB6EFC46019308BD6CDF1F5B00100000F3
:105500005CDB002018B4044B9B6FFC46019308BD84
:1055100078DF3B5B001000005CDB002018B4044B1C
:10552000DB6FFC46019308BD7CDFA55B001000002B
:105530005CDB002070B513231C78012C07D0012CF4
:105540000EDC022C02DC1C4A1C4B9A6470BD00234A
:105550001F2BF4D899001848184A88500133F7E7F0
:105560001748FFF725FC05001648FFF721FC023815
:1055700003789B007F2B19DD802229000F4800F063
:10558000FDFC022CDDD1104B1A88B5231B029A4278
:1055900009D10E4B1A880E4B9A4204D10D4B1A8832
:1055A0000D4B9A42CDD00020FDF75EFF0B4B0C4A0D
:1055B00030210C48FDF73AFFE95500105CDB002074
:1055C000534400005346000054380000D83800000F
:1055D000494600009C3800005946000070E1001068
:1055E00024E20010D0E1001007B56046002800D189
:1055F00000BE01880A0A0230DF2AFAD1C9B2820845
:1056000004D3028840880004104300E00068024A86
:105610005050039007BD00005CDB00200FB403BCBA
:105620000CBCF0B50124E407634000E0F0B50C0DBC
:10563000CF0F661E3605891B640503D3C94340425C
:1056400000D30131640D03D0661CF60A07D0E41BB9
:1056500000207F00791C89078912803C24031D0DDE
:10566000DF0F6E1E36059B1B6D0503D3DB435242D5
:1056700000D301336D0D03D06E1CF60A07D0ED1B6D
:1056800000227F007B1C9B079B12803D2D032F1B5C
:10569000661B58D4A446202E46DA20371400BC409E
:1056A0001D00BD40F24033412A4380185941CB0FC1
:1056B00005D0C943C0430022644250415141624673
:1056C0004D0D28D10D0D07D100281FD024194041C0
:1056D0004941013A0D0DF9D0640006D3013000D3E1
:1056E0000131002C01D140084000013A0BD4941C38
:1056F000E40A04D112051144DB071944F0BDD907AF
:10570000204B194300E0D9070020F0BD0029DDD16E
:10571000002CDBD1F0BD0132C6074008CD0728437D
:105720004908002EE1D0D9E73C2E29DA203E403747
:105730001400BC4000D00124F24014431A00BB40C6
:105740001C43D317ACE7AC46202F08DA2036040000
:10575000B4400D00B540F84039412843A5E73C2F3F
:105760000CDA203F40360400B44000D00124F84059
:1057700004430800B1400C43C117EAE710001900C8
:10578000002494E70000F07FF0B50C0D661E36058E
:10579000891BE60A6405640D02D0651CED0A04D07D
:1057A000002001210905803C2403A4461C0D671E2E
:1057B0003F05DB1BE70A6405640D02D0651CED0A9A
:1057C00004D0002201231B05803C2403774064445D
:1057D00097B484B296B27443070C7E43150C6F43A2
:1057E00080B26843361802D3012000043F18300409
:1057F000350C00197D41844688B29AB250430C0C96
:1058000062431F0C7C438EB27E43921902D3012661
:105810003604A4191604170C3618674101BC81B26E
:105820009AB25143040C62431B0C5C4380B2584350
:10583000121802D30120000424181004130C40187D
:1058400063412D185E410020474106BC88B293B2E7
:1058500058430C0C6343120C544389B251435B18F8
:1058600002D301210904641819041A0C09186241B1
:105870006D1856410020474118BCF902720D1143C2
:10588000F0026A0D1043ED020A0D03D16D1940417B
:105890004941013B124E9B1B7600B3420ED26D0074
:1058A00007D30130002671416646354301D14008D7
:1058B00040001B05C918E4072144F0BD0BDA013391
:1058C00006D1013004D101314F0D01D04908F2E772
:1058D000E1070020F0BD013631050020EBE70000B4
:1058E000FF030000F0B51C0D671E3F05DB1BE70A38
:1058F0006405640D02D0661CF60A04D00022012360
:105900001B05803C2403D0252D060026F6432E6679
:105910001E096E66CE0FF619B44649004F0D02D02F
:105920007E1CF60A03D000200021403F3F033E1BAF
:10593000B600B444013F7F05C91B49082E6F0136EC
:1059400076089C02950D25437543ED137543AD1301
:1059500001356D10F603761B0CB4CC02450D2C43BB
:10596000A2B2B3B25A43270C7B43350C6F43A4B2A7
:105970006C431B1902D3012424043F191C041D0C81
:10598000A4187D4124196D41009A91B2ACB26143D3
:10599000170C7C432B0C5F4392B25A43A41802D3DA
:1059A00001221204BF182204230C52187B41019CCF
:1059B0006C431B19520ED9010A434401A01A81B24B
:1059C000B2B2514303145A43360C734387B2774340
:1059D000D617D21900277E4136049B191704160CDE
:1059E0007F185E417316ED18F30100268033754170
:1059F000A90F06D16400690AE8055B0A184309D2B9
:105A00002FE00422944480337541A90AA8059B0A1B
:105A1000184326D3404149412404009A019B0D00BC
:105A20005543641B4343E41A95B286B27543170C81
:105A30007E43030C5F4392B25A43B61802D301224D
:105A40001204BF183204330C52197B4152429C415C
:105A5000002C02D40022013051414008CA071043F3
:105A6000490802B06246D7079210084BD218084B7B
:105A70009A4203D212058918C919F0BD0020002AE4
:105A800001DC3900F0BD01331905F5E7FD03000025
:105A9000FE070000624618CA944600291ADAC018A8
:105AA00061415B463B415C46B4405246FA4022436A
:105AB00044464D4662416B41904699462B46B34061
:105AC0003D41FC401C4352465B46A241AB419246DD
:105AD0009B467047C01AA1414B463B414C46B440DF
