:020000041000EA
:1000000000B5324B212058609868022188439860DF
:10001000D860186158612E4B002199600221596106
:100020000121F02299502B49196001219960352056
:1000300000F044F80222904214D00621196600F024
:1000400034F8196E01211966002018661A6600F04E
:100050002CF8196E196E196E052000F02FF8012189
:100060000842F9D1002199601B49196000215960AB
:100070001A491B48016001219960EB211966A021F2
:10008000196600F012F800219960164914480160C1
:100090000121996001BC002800D000471248134993
:1000A000086003C880F30888084703B5996A0420EC
:1000B0000142FBD001200142F8D103BD02B5186610
:1000C0001866FFF7F2FF186E186E02BD00000240BE
:1000D000000000180000070000035F00212200005C
:1000E000F4000018222000A00001001008ED00E03C
:1000F00000000000000000000000000074B24E7A12
:1001000000200420F7010010C3010010C5010010F9
:10011000C1010010C1010010C1010010C101001097
:10012000C1010010C1010010C1010010C701001081
:10013000C1010010C1010010C9010010CB01001065
:10014000CD010010CD010010CD010010CD01001037
:10015000CD010010CD010010CD010010CD01001027
:10016000CD010010CD010010CD010010CD01001017
:10017000CD010010CD010010CD010010CD01001007
:10018000CD010010CD010010CD010010CD010010F7
:10019000CD010010CD010010CD010010CD010010E7
:1001A000CD010010CD010010CD010010CD010010D7
:1001B000CD010010CD010010CD010010CD010010C7
:1001C00000BE00BE00BE00BE00BE00BE00F04BF888
:1001D000103800BEF2EB88719CEE0010C4EE0010E7
:1001E0003402001090A31AE700202149086006C8D5
:1001F00081F3088810471F48006800282FD10DA4FC
:100200000ECC002902D000F012F8F9E71A491B4A77
:10021000002000E001C19142FCD1194988471949E9
:1002200088471949884700BEFDE701C901C29A42C3
:10023000FBD37047C4EE0010C00000207C67002094
:10024000805501100000042000000420805501109A
:1002500000100420001004200000000070470B482C
:1002600004F010FD0047EFF30580C0B270470000B6
:1002700008ED00E0000000D0806700209CDB00203B
:10028000F5310010710900100933001057560000B5
:1002900006005250ABB360530CE100100600525000
:1002A000861C03021CE10010060052505422A29D3D
:1002B00034E1001005005250DE65F46880550110ED
:1002C000F8B5C0460448054B10B5834203D0044B33
:1002D000002B00D0984710BD7C6700207C67002071
:1002E0000000000006480749091A8B10C90FC918F9
:1002F00010B5491003D0044B002B00D0984710BD17
:100300007C6700207C6700200000000010B5074CCF
:100310002378002B09D1FFF7D5FF054B002B02D026
:10032000044800E000BF0123237010BD886800204E
:100330000000000070C60010054B10B5002B03D064
:100340000449054800E000BFFFF7CCFF10BDC046E0
:10035000000000008C68002070C60010F0B5DE467A
:1003600057464E464546E0B585B0D0231B065A6831
:100370005D682D0D01273D405A685A68D2093A4000
:1003800000925B689B081F400197BC4B1A68BC4BEE
:100390009A4208D0531CBB4949208854BA4A13409A
:1003A0002DD4B64A1360B54B1A68B54B9A4208D0A3
:1003B000531CB4494E208854B34A134024D4AF4A46
:1003C0001360AE4B1A68AE4B9A4208D0531CAD492D
:1003D00049208854AC4A13401BD4A84A1360A74B49
:1003E0001A68A74B9A4200D1D3E0531CA549542068
:1003F0008854A54A134011D4A04A1360C9E0013BB8
:10040000A24A13430133CCE7013BA04A1343013313
:10041000D5E7013B9D4A13430133DEE7013B9B4A8D
:1004200013430133E8E7002A00D0CFE0002E34D197
:10043000924F3F68B946924FB94515D001244C44BC
:10044000A346904C4F466923E3555B46DB17DB0C14
:100450009A46D946D1444B46DB04DB0C54461B1B61
:100460009946864B4C461C60894FB9463F68BA4650
:100470000227BB46DA444F4654463C603C68A246DD
:1004800001245746A7434C46276024682404240CC3
:10049000A2464C465746276098E0784C2468A1460F
:1004A000774CA14500D191E001244C44A346754B03
:1004B0004C467A271F555B46DB17DB0C9A46D9461C
:1004C000D1444B46DB04DB0C54461B1B99466B4B5B
:1004D0004C461C607AE0694D2D68AC46684DAC45D1
:1004E00000D19BE06446631C664CA1465A24A24698
:1004F0004C4667465546E555DC17E40CA446634474
:10050000DD04ED0C2D1B5D4C256087E0002E02D034
:10051000404600281BD1D020000680242405846199
:10052000FF24240244625A4D2D685A4F3F683D43D0
:10053000594F7D5D2D0245616C40846107E0D020FC
:100540000006FF242402846280242405446101986B
:10055000012874D00098002817D1002E15D04748E4
:100560000468474884420BD0601C464D52262E55E5
:10057000C417E40C0019C004C00C001B3F4C2060E1
:100580000020434C2060434C2060029B019300916B
:100590001500D0273F067868C008012318407A6804
:1005A000120D190011408C460A007C68A4091C40F9
:1005B00003947968C9091E000E4031007F68BF08A6
:1005C0001F40B8460297012D00D12CE7002D25D100
:1005D0006546002D22D0002E00D07CE72C4DAC4685
:1005E0002D6801273D4367463D60244D2D68AC468C
:1005F000234DAC4512D06446631C224CA1464924CD
:10060000A2464C4667465546E555DC17E40CA44621
:100610006344DD04ED0C2D1B184C256000288ED1A1
:10062000039B002B00D171E7D0200006FF24240299
:1006300084628024240544614461406887E7404621
:10064000002887D10D4804680D4884420BD0601CF7
:100650000C4D50272F55C417E40C0019C004C00CD2
:10066000001B064C20600B4804680134FF34046012
:100670000468FE25ED012C4004606BE7FC69002056
:10068000FF1F00001C6A0020FF1F008000E0FFFF2A
:10069000E0690020E469002084020020D0231B06CA
:1006A000802149055962802292025A6299619A61B9
:1006B000704710B50120002102F0CEF910BDD02303
:1006C0001B06802252055A629A617047D0231B068E
:1006D000802252059A627047D0231B068022920224
:1006E0005A629A617047D0231B06802292029A6256
:1006F0007047D0231B065B681B0F01201840704712
:1007000010B50400FFF7DBFF2000FFF7D2FF200049
:10071000FFF7E2FF2000FFF7CCFF10BD10B504008B
:10072000FFF7E1FF2000FFF7C4FF2000FFF7CEFF37
:100730002000FFF7BEFF10BD70B504000D000026BD
:1007400014E02000FFF7C2FF2000FFF7B2FF2000F7
:10075000FFF7C9FF2000FFF7ACFF2000FFF7BCFF49
:100760002000FFF7A6FF6D00EDB20136072E06DC74
:100770006BB2002BE5DB2000FFF7A1FFE4E72000D0
:10078000FFF7A4FF2000FFF7AEFF2000FFF791FF67
:1007900064252000FFF7ADFF002803D0013D002DA8
:1007A000F7D100E001252000FFF796FF2000FFF7BA
:1007B00080FF280070BD10B51C2001F0C7FB112080
:1007C00001F0C4FB10BDF8B5CE46474680B5060023
:1007D0000F0015009846089B99460068FFF790FFA8
:1007E00031794900C9B23068FFF7A6FF4346002BB4
:1007F00001D000240AE040213068FFF79DFFF8E7B0
:1008000080213068FFF798FF05E00134BC420BDA25
:100810004346002BF4D129783068FFF78DFF4B4613
:10082000002BF2D10135F0E73068FFF777FF0CBC01
:1008300090469946F8BD70B584B0CC17640E09197E
:100840007F231940091BD3179B0ED2183F24224047
:10085000D21AD317383C1C40A418E410503C03AA09
:100860001470CD172E0F8C190F231C40A41B54702D
:100870002B405B181B11103393700023009301333E
:100880000321FFF7A0FF04B070BD00B585B00F22B3
:100890006A440023137000930121FFF794FF05B011
:1008A00000BD0000F0B5C64600B582B005000E00E0
:1008B000080006F0EDFE07000024BC4213DA731CAA
:1008C00098463378203B9A00D218094BD21800235F
:1008D000009305212800FFF776FF2800FFF7D5FFDA
:1008E00001344646E9E702B004BC9046F0BDC0467C
:1008F000C4C6001030B583B0050000240DE022000E
:1009000000212800FFF797FF012300930023054AE9
:1009100080212800FFF757FF08343F2CEFDD03B09C
:1009200030BDC046176A002010B582B004000068D0
:10093000FFF7B4FE00230C4A934201DC0133FAE7CF
:100940002068FFF7DDFE2068FFF7E8FE0023009334
:100950000133064A1E212000FFF735FF2000FFF774
:10096000C9FF02B010BDC0460F270000A4C8001088
:10097000F0B5DE4657464E464546E0B591B005F027
:1009800013FCED4805F0D4FBEC4805F001FC032016
:1009900001F0DCFA142001F0D9FA072001F0D6FAB0
:1009A000062001F0D3FA022001F0D0FA132001F062
:1009B000CDFA122001F0CAFA102001F0C7FA002483
:1009C00005E0A200DE4BD05801F0C0FA0134072C3C
:1009D000F7DDD02424060823A36280235B03A362EF
:1009E0008023A362403BA3623C3BA3621B2001F037
:1009F000ADFA80231B0563616362FF221202A262CB
:100A000063618021090361628022D20262628023D5
:100A10005B0263626161A261A361152001F096FA35
:100A200080239B036362A361162001F08FFA802369
:100A3000DB036362A361C34805F0AAFBC248FFF76A
:100A4000BAFEC24D2800FFF76FFFC14805F06EFEE9
:100A500000210F2002F0F4FDBE4B1868BE4905F0DE
:100A6000D5FCBE4B1860BE4B1868BE4905F0CEFCE5
:100A7000BD4B1860BD4B1868BD4905F0C7FCBD4BA8
:100A80001860BD4B1868BD4905F0C0FCBC4B186030
:100A90006368DB08012213400393636863689B0962
:100AA0001A40049263686368A34805F041FB05F0AF
:100AB0002FFB2800FFF71EFF002200212800FFF770
:100AC000BAFEB0492800FFF7EDFE00F025FB20E25A
:100AD000A100411842681A42FCD1CA78AA4C206889
:100AE000AA4B1A540130FA21890004F0F7F821606A
:100AF00022E2A74A115CC94362681A42FCD12B1D4D
:100B00009B0019510130FA21890004F0E7F8A14B4C
:100B1000196027E28F4B1E689F4B1B689A468F4BCC
:100B20001B689B460023009301330C225146300082
:100B300005F0F6FC994B9E426BD007210C2001F08A
:100B4000D3F9002201210C2001F0E6F900230F93D4
:100B500080235B020C93F8235B020D93C0231B03DD
:100B60000E9310220CA908A805F07AF95A4608320B
:100B70005B46DB01120313430993102208A90CA85A
:100B800005F06EF90F9B864A1A40C023DB0213431F
:100B90000F930D9B834A1A40C0231B0513430D93EB
:100BA0000E9B0793804A1A408023DB0213430E9367
:100BB000052002F0E5FC05F07DF87C4905F01FF802
:100BC000079005F09FF885B2002D24D0280005F08D
:100BD00071F8011C079805F008F88721C90505F090
:100BE00024F805F08FF8C3B21B022D041D430C95A9
:100BF0000CAB5A465146300005F0CAFC3268012160
:100C00000B00504683409A4313433360684B19608E
:100C1000CFE1062192E70023E6E7514B1E68654BC2
:100C20001B689A46504B1B689B468025ED022B00A3
:100C30002A005146300005F005FC2B002A005146E1
:100C4000300005F035FC554B9E4271D00721122033
:100C500001F04AF900230F9380235B020C93F823E1
:100C60005B020D93C0231B030E9310220CA908A84E
:100C700005F0F6F85B46DA1CDB0112031343802211
:100C8000D2050B924C490B4013430993102208A93B
:100C90000CA805F0E5F80E9B484A1A4080231B0378
:100CA00013430E930F9B0793454B079A1340122251
:100CB0001A4380235B031343424A13409022D2011C
:100CC00013430F93052002F05BFC04F0F3FF374958
:100CD00004F095FF079005F015F885B2002D29D096
:100CE000280004F0E7FF011C079804F07EFF87212D
:100CF000C90504F09AFF05F005F8C3B21B022D04E4
:100D00001D430C950CAB5A465146300005F040FC93
:100D1000326801210B00504683409A4313433360ED
:100D2000D0231B06802252025A61274B196045E1ED
:100D300006218CE70023E1E770C6001084C600108E
:100D40005802002098C60010780200207C02002083
:100D50005D0300106C5A0020C4C80010186A0020FF
:100D6000705A0020E0C80010088E0020785A002039
:100D7000F0C8001000960020805A00200CC9001016
:100D800068960020ACC600100069002024A2002054
:100D90000C8E002040690020D06900200000205007
:100DA000FF7FF0FFFFFFFFE0FFFF0AFE0000964716
:100DB000CC690020745A0020FFFFFF9FFFFFF5C1A0
:100DC000E0FF0FFCFF83FFFF006A00200C2001F012
:100DD000BDF8002200210C2001F09EF800239B4664
:100DE000854B5A461A60D0231B069A4680235B0225
:100DF00052469361122001F0A9F88023DB0252468B
:100E0000536293617D4B5A461A60002D2CD0002E00
:100E100012D07B4B1A687B4B9A4200D1CEE0531C18
:100E2000794943208854DA17D20C9B18DB04DB0C79
:100E30009B1A734A1360C1E0D0231B06802212055F
:100E40009A616F4B1A686F4B9A4200D1B6E0531CFF
:100E50006D4944208854DA17D20C9B18DB04DB0C54
:100E60009B1A674A1360A9E0D0231B068022120553
:100E70009A61FF2212025A62644909686448006854
:100E800001436448415C090259614A409A615C4BE4
:100E90001A685C4B9A4200D190E0531C5A49722068
:100EA0008854DA17D20C9B18DB04DB0C9B1A544ACB
:100EB000136083E00C2001F049F8002200210C208F
:100EC00001F02AF800264C4B1E60D0252D06802309
:100ED0005B02AB61122001F039F88023DB026B6208
:100EE000AB61464B1E60FF231B02AB6280231B05D8
:100EF0006B616AE04346002B07D0D0231B06FF221C
:100F000012029A62802212055A61069B0493059B85
:100F1000039300F0DFFB384B1B689A46002B0BD085
:100F20003D4B18683D4B1A68416814000834012392
:100F3000A3400B4200D1CBE5304B1B68002B11D0F6
:100F4000374B1C68374B1D6862682900103101233C
:100F50008B40134206D1344A1068344A12689042DA
:100F600000D0C6E5D02212065468E4080123190017
:100F70002140884605915668360D1E405168890902
:100F800018000840814606905568ED091D405768D5
:100F9000BF08234212D1002800D117E71300FF2217
:100FA00012029A62802212055A615346002B00D128
:100FB000B0E5124B1B68002B00D12EE6039B002BE3
:100FC00003D14346002B00D074E7049B002B91D142
:100FD0004B46002B8ED0D0231B06FF2212029A62B2
:100FE000802212055A613C43E30783D4D0231B06B9
:100FF0005A615B687EE7C046CC690020006A002029
:10100000FC690020FF1F00001C6A0020E06900202E
:10101000E4690020840200206C5A0020D06900207E
:10102000705A0020745A0020406900203C6900205A
:101030000120704770470000014B00221A60704782
:10104000D4690020704770477047704770477047F9
:1010500070477047704770477047704770477047D8
:1010600010B50449044800F015FD002800D0012007
:1010700010BDC0461CC9001098CF002010B504490F
:10108000044800F007FD002800D0012010BDC04634
:101090002CC9001098CF002070B504002378002BD5
:1010A0000BD00134054D2868054A13540130FA214C
:1010B000890003F013FE2960F0E770BD3C69002051
:1010C0000C8E002070B50F4B18680F4B1B689842B0
:1010D00017D00E4B1D680E4B1C680E4B1E5CF64362
:1010E0006A682100103101238B401342F8D1043487
:1010F000A40066510130FA21890003F0EFFD014B95
:10110000196070BD4869002044690020805A0020A1
:10111000845A00200C8E002000B583B0114805F0E1
:1011200007F804F0F5FF104B1B6801219940D0230C
:101130001B06996100230093009A0C4B9A4207DC2E
:10114000009B009A9B180193009B01330093F3E7E7
:10115000D0231B0659610023054A1370054A13600A
:1011600003B000BD44C90010C0C600109F86010036
:1011700098CF00209869002070B505000024062C47
:101180000ED8E300074A9958280000F083FC002895
:1011900001D10134F3E7E400024B1C19636898475E
:1011A00070BDC046B45C002010B50248FFF7E4FFF4
:1011B00010BDC046549A002070B50500002400E020
:1011C0000134072C0CD8E300064A9958280000F097
:1011D00061FC0028F4D0E400024B1C1963689847B6
:1011E00070BDC046905A0020F8B507000E000024DC
:1011F000B44211DA094B1D68681CFA21890003F01A
:101200006DFD074B1B68994206D03A5D054B5A5558
:10121000024B19600134EBE7F8BDC046F0680020CE
:10122000F4680020DCAD002010B5084B1B68002BD3
:1012300002D0012B04D010BD0548FFF7BDFFFAE72F
:10124000044B19680248FFF7CFFFF4E7885A0020E3
:10125000549A0020B4690020F0B5C64600B50A4D86
:101260000A4E81192B681C1A631C9846084F1A00F5
:10127000380004F0F5FD42463900300004F0F0FD7E
:101280002C6004BC9046F0BD9869002098CF0020E7
:101290006CC1002070B51B4B18601B4B19601B4BB9
:1012A00000221A601A4B01321A601A4B18601A4B4E
:1012B0001D68144B1A68002A12DD174B19680029A3
:1012C0000EDD12480368154CE65C154CE6540133FC
:1012D00003600139104B1960013A0A4B1A60E8E7C4
:1012E0000D4B1D60094B1868FFF7B6FF054B1B68D7
:1012F000002B05D1064B00221A60034B1B68984750
:1013000070BDC046FC68002094CF002068C100205A
:1013100008690020B46900209869002098CF002057
:10132000549A002010B5044B1868FFF795FF034B43
:1013300001221A6010BDC046A4690020B0690020D7
:1013400010B5084B1B68002B07D0074B1868FFF738
:1013500083FF044B00221A6010BD034B1868FFF78F
:101360007BFFF9E7B0690020A469002010B50849A7
:10137000084800F08FFB002800D110BD064B18680C
:10138000FFF76AFF054B58680549FFF783FFF4E74D
:101390001CC9001098CF0020A46900203CD8002070
:1013A000A911001010B503010848C0184168084889
:1013B00000F070FB002800D110BD064B1868FFF745
:1013C0004BFF054B1A68054B1A60F5E780D00010FB
:1013D00098CF0020A46900203CD800203469002068
:1013E00010B503010648C0184168064800F052FBDA
:1013F000002800D110BD044B1868FFF72DFFF9E756
:1014000080D0001098CF0020A469002010B50649B4
:10141000064800F03FFB002800D110BD044B1868BF
:10142000FFF71AFFF9E7C04664C9001098CF002003
:10143000A469002010B50649064800F02BFB0028DF
:1014400000D110BD044B1868FFF706FFF9E7C0464E
:1014500074C9001098CF0020A469002070B584B032
:101460002C492D4800F016FB002801D104B070BDB6
:101470002A4B1868FFF7F0FE294B1D681D2DF5DC7F
:101480000024A5420ADD2B206043264BC0182649C4
:1014900006F0B2F800282AD00134F2E70023002B2E
:1014A000E4D12B335D431F4EA8191F4C210006F0D9
:1014B000E7F828001030801904301C494B680A688E
:1014C0004D6903950D690295CD6801958968009174
:1014D000174903F0A5FB174B1868210006F08CF89C
:1014E000002806D00E4A136801331360BEE70123BB
:1014F000D5E70B4B1A682B235A431032094BD218ED
:1015000004320D4C0D49200003F08AFB2000FFF748
:10151000C3FDE7E780C9001098CF0020A469002030
:10152000F868002008CA002068D900203CD80020B4
:10153000C8C900108C5A002074D70020DCC90010E4
:1015400010B50849084800F0A5FA002800D110BDE0
:10155000064B1868FFF780FE054B18680549FFF732
:1015600099FEF4E7F4C9001098CF0020A469002088
:101570003CD800202912001010B5094806F088F860
:101580000200084B1860084C0849200003F048FB93
:101590002000FFF781FD064B01221A6010BDC046F6
:1015A000C8B10020B869002074D7002004CA001018
:1015B000D469002010B51C220349044804F050FCF3
:1015C000FFF7DAFF10BDC04618CA0010C8B10020EE
:1015D00070B50500002400E00134272C19D8630001
:1015E0001B199B000B4A9B5C032BF5D163001B1955
:1015F0009B00D3185868290005F0FEFF0028EBD1A6
:10160000054B1C60054B01221A60054A1368013323
:10161000136070BDD45A00200C6A0020106A0020AC
:10162000F869002010B50A4B01221A60094C0732F4
:1016300000212000FFF7FFF807492000FFF732F9EB
:101640000648FFF7C5FF064B1868FFF705FE10BDFB
:10165000D86900207C02002034CA001040CA001063
:10166000A469002010B503010848C0184168084863
:1016700000F010FA002800D110BD064B1868FFF7E3
:10168000EBFD0548FFF7A4FFF6E7C04680D0001049
:1016900098CF0020A469002048CA001010B50301AB
:1016A0000848C0184168084800F0F4F9002800D143
:1016B00010BD064B1868FFF7CFFD0548FFF788FF00
:1016C000F6E7C04680D0001098CF0020A469002023
:1016D00050CA001070B582B000230193FFF7F2FCEE
:1016E000B64B1B68B64A1068834212D0B54D2C68C1
:1016F000B54B1A5CB54B1A550130FA21890003F03D
:10170000EDFAAF4B1960601CFA21890003F0E6FA8C
:101710002960AF4B1B68012B10D0AE4B1A68013209
:101720001A6018680A2103F0D9FA00295ED1AA4B81
:101730001A681A6851424A411A6057E0A74B1A6862
:10174000002AEAD1A64B1D68A64B1B689D42E4D037
:10175000A54B002119700EE0A44B195C541C7F238B
:101760000B40A1498B540130FA21890003F0B6FAED
:101770009C4B196022009B4B18688542ECD19A4B18
:1017800000219954FFF7F8FEC7E7914D2B68581CCC
:10179000032103F0A3FA0C0029600D22944992481A
:1017A00004F05EFB012C0DD0022C11D0002C03D0D4
:1017B000FFF7E2FE02B070BD09228E498A4804F0AC
:1017C0004FFBF5E710228C49874804F049FBEFE70F
:1017D0000E228A49844804F043FBE9E769468848B9
:1017E00005F0E2FE874A136801331360864B1968DF
:1017F000864B1B6848681C0008340122A240024244
:1018000011D120206C4620800833980008184B68BE
:101810001A42FCD1C378DBB26A461370142BB4D0E1
:10182000002BE3D0DAE77A4B1C68002C23D00EE0C3
:10183000734B1C780120FFF70FFD764A1368591C83
:101840001160754AD454754A1368013B1360734B99
:101850001B68002B03DD6B4A1268002AE8DC002BB2
:10186000A8D16B4B00221A606D4B1B689847A1E70B
:101870000120FFF7F1FC624B1B786A4AD35C1B071F
:10188000F6D40FE02201684B9B1859685C4800F0C1
:1018900001F9002805D02201634B9B18DB6820006A
:1018A00098470134252C15D823015F4A9B5C012BF6
:1018B000E8D0022BF5D122015B4B9B189B682000DE
:1018C00098470028EDD02201574B9B18DB68200079
:1018D0009847E6E7554B1B68002B00D16AE7544B4D
:1018E0001B68002B0CD1534B1B685A00D218920076
:1018F0005149525C062A34D8920050498A5897467A
:1019000001F028F94E4B1A685B688B4200D951E709
:1019100002D1824200D94DE7454B00221A6049E7C7
:101920005A00D3189B00444AD3185868454E01AA60
:10193000310005F099FD3E4B01221A6001F00AF9D1
:10194000019A53019B1A9B009B18DB001C00DD17BA
:10195000001969413A4B1860596031003A4803F068
:101960005FF9344B1B685A00D21892003249525C1E
:10197000042A00D11EE701332E4A13601AE75A00E9
:10198000D3189B002C4AD3185968304C200003F020
:1019900047F92000FFF780FBE3E71348FFF77CFBE4
:1019A000DFE7224B00221A60DBE75A00D3189B00C6
:1019B000214AD3189B689847D3E7C046F0680020B7
:1019C000F46800203C690020DCAD00200C8E002073
:1019D000885A002038690020D05A0020D46900209D
:1019E0000069002004690020C8B1002024A2002062
:1019F00058CA001068CA001074CA001084CA0010C7
:101A000098CF002098690020785A00207C5A002046
:101A10000869002068C10020549A0020FC6800205A
:101A200094CF002005E3001080D00010106A002041
:101A3000086A00200C6A0020D45A002098CA0010BE
:101A40008068002094CA00107CCF002074D700204A
:101A500010B50A4C23685A1C22609B00084CE050C9
:101A60000E2A01DC012010BD064B07481860074B09
:101A70001960074B1A600020F5E7C046A0690020F6
:101A80003CD80020EC5C0020E0D20010F05C00208C
:101A90009C690020F0B5DE4657464E464546E0B507
:101AA0008FB005008B460023B54A1360B54A13601A
:101AB000B54A136004E09900B44A0020885001330D
:101AC0000E2BF8DD002306E09A00D2189200B049F0
:101AD000002050540133012BF6DD002600240BE0DA
:101AE000013604E00134A84A1368013313602B5D0A
:101AF000A84AD35C1B07F5D400965B469B5D002B80
:101B000000D1CDE12A5D002A00D1C9E1202BE7D028
:101B1000252B09D001340136934200D0D7E19A4AEF
:101B2000136801331360E7E7711C5B465F185B5C69
:101B3000002B0ED05B2B21D015D8252B11D10134D1
:101B4000252A00D0B7E1904A1368013313600236AA
:101B5000D2E7914B914A1A60914B5A461A6000277E
:101B60005EE10E00C8E7642B00D16BE1782B03D156
:101B700001239846002026E10E00BDE7814B1B683B
:101B800098469B0043449B00814A002199540236A9
:101B90000023584603E0013604A9CA540133825D8C
:101BA000002A03D05D2A01D0252BF4DD8346252BA6
:101BB00000DD82E1002A00D181E1581C04A9002245
:101BC000CA540A54774B1A6000270123A246009694
:101BD0001C0001951AE0734D2A68734851008E1855
:101BE000B600345481194B6063468B6001322A6021
:101BF0000BE06C4802686C4D51008E18B6007455AD
:101C0000A9194B608B6001320260013704A805F00E
:101C10003FFDB84231D904ABDB5D5E2B2BD0791C84
:101C200004AA525C2D2AE4D1023704A8C05D844680
:101C30000028D0D15B4B1B68E0B25B4EB4465F001E
:101C4000FE18B600B14666464D46A8554F46674455
:101C50007A60BA6001335F00FD18AD00A9466546A1
:101C60004E4670554F4667447A60BA6001334D4A1C
:101C700013600F00C9E70224C7E75446009E019D88
:101C800000272B004546B0461E0037E000915A0061
:101C9000D218920081464A44526891420CDB5800A7
:101CA00084469C44604680008446CC4460468068FC
:101CB000814206DDBC4600E0BC460122604602408F
:101CC00007E001229446F8E701229446012260468B
:101CD0000240002A3FD0022D00D1A1E0002302AA39
:101CE000537153461B781371A80040198000284B8C
:101CF000C01803A905F058FC002F30D033199A46BC
:101D0000315D002931D0002F2FD13B00254A1268C8
:101D10009A4222DD5A00D21892002348125C012A0E
:101D2000B4D000915A00D21892001F4881464A440C
:101D300052689142C8DB580084469C44604680004B
:101D40008446CC4460468068814202DD012294468C
:101D5000BCE7BC46BAE70133D8E70127CEE7013438
:101D6000094A136801331360C8E733004646A846A2
:101D70001D0043460133034A13600136BCE6C046EA
:101D8000A0690020A8690020A46900203CD8002098
:101D900068D9002005E30010EC5C0020ECD20010B4
:101DA000F05C0020AC69002078D800202D2A28D1D2
:101DB00001235B4298460134494A1368013313609A
:101DC0002B5D002B26D03B78642B3FD0782B45D160
:101DD0002A5D44498A5C442111423FD003AB202252
:101DE0001A802A5D1A703B78642BDFD0782BE2D101
:101DF000030199461022002103A805F03DFE484446
:101E0000D9E7830018184300994603A804F0A0FC02
:101E10004844D0E7009B5B449B78002B08D0002708
:101E200038000FB03CBC90469946A246AB46F0BD88
:101E30004346434318005946FFF70AFE071EEFD0FA
:101E40000127EDE7012398460020BCE72A5D2549DC
:101E5000895C4907C2D42D2AB8D1BFE7002C30D005
:101E6000642B13D0782B2ED12B19013B1B781D4AE4
:101E7000D35C44221A4228D04346434318005946B3
:101E8000FFF7E6FD071ECBD0023635E62A19013AE8
:101E900012781449895C4907EED42D2AE2D1EBE788
:101EA000002B16D0202B16D1009B5B445B78002BB7
:101EB00013D10127B4E70027B2E70027B0E70027D6
:101EC000AEE72700ACE70027AAE70027A8E700272E
:101ED000A6E70127A4E70027A2E70027A0E7C0465E
:101EE000A469002005E3001010B58300084A944659
:101EF00063441C6840226240C02414408022520186
:101F000013431C60C000034B9C466044416010BDFD
:101F100004C001400040014080000B4B9C466044DF
:101F200000290DD00823002A0CD004221343026894
:101F300053400C221340802252011043036070472B
:101F40000023F0E70022F1E704C0014010B50123AF
:101F50008340D0221206936293610521FFF7C4FFEC
:101F600010BD0000EFF3108072B6034B1B68002B0E
:101F7000FBD0BFF35F8F70472C0100D0BFF35F8FA2
:101F8000024B00221A6080F3108870472C0100D0A9
:101F9000F8B506000C001500FFF7E4FFE308F7189A
:101FA000F15C07222240012393400B4205D1DBB2B2
:101FB0000B433B70FFF7E2FFF8BD2100280001F062
:101FC000C5F90000034B1B6802201840431E9841CE
:101FD000C0B2704700C0064000231F2B08D8054A36
:101FE0009A189200BFF35F8F002111600133F4E76C
:101FF0007047C04640000034054A1078431CDBB2ED
:102000001370172B02D9130010221A707047C046A4
:10201000F45C002070B504000D00062001F0B0FA59
:10202000C000290002F082FEC60908D00E4B9E4275
:1020300017D87F23184001303500460800E00125FD
:102040006562A6622C348020800104430023236053
:10205000062001F095FA8000A901891902F066FEB8
:1020600070BD0026014DEBE7FEFF0000FFFF000002
:10207000002909D00A22064B9C466044434258413D
:102080004000044BC252704780225200F3E7C04622
:102090000080FCBF90D9002070B505000C00062020
:1020A00001F06EFA002829D0164B9D4227D08022DD
:1020B000D203154B1A60154B1A60154B9B68110023
:1020C0009943FAD100212800FFF7D2FF2100280010
:1020D000FFF7A0FF2C002C34E96A60224A406E21F1
:1020E000114080225201224311600A4B2B6380234E
:1020F0009B01234310221A600323AB6470BD80222E
:102100001204D6E70080034000E0004000F00040E9
:1021100000C000400103000070B505000C0008007D
:1021200000F00CFD200000F013FE0849200000F034
:1021300053FDFFF761FF064B9C46604480006860DA
:102140002C75A400034BE55070BDC0465D24001003
:1021500040000034BC6900200A4B1A68EFF310817C
:1021600072B61368002BFCD0BFF35F8F054B1B6862
:10217000BFF35F8F00221A6081F3108840BF0020F8
:1021800000217047DC69002010B5002922D00368C7
:102190001B7B99421ED8174B9C46614409018368FA
:1021A0009C4661440C684968002A19D003681B7B6F
:1021B0009A4215D883680F488446624412019A18DF
:1021C00010685368020001208B4201D80ED0002015
:1021D000C0B210BD084B094A3B21094801F098F8EC
:1021E000054B064A3B21064801F092F8A242EFD87F
:1021F000EDE7C046FFFFFF0F60D3001018D60010B8
:102200001CD3001010B500291ED0037B99421BD8A7
:102210004B005B18033B0468A4466344002919D0B3
:10222000002A1DD0914221D0002A25D0047BA24251
:1022300022D804685000801803382018817019785B
:1022400000291FD11A7010BD104B114A6921114885
:1022500001F05EF8104B114A70310E4801F058F849
:102260000F4B0E4A71210B4801F052F80D4B0B4AEF
:102270007221084801F04CF8044B054A69210548D1
:1022800001F046F841701A70DDE7C04694D30010A3
:10229000D8D50010B0D3001004D40010E4D500103D
:1022A00010D400101CD4001070B506000D001400EE
:1022B000002914D0002A14D0806873689847002839
:1022C00006D0220029003000FFF79CFF280007E01D
:1022D0002A0021003000FFF795FF200000E01000E9
:1022E00070BD0800FCE70000F0B583B00500009267
:1022F00001930AAB1C780BAB1F78002C26D0036827
:102300005A7B944207D10123002B19D1002C3BD1D9
:10231000200003B0F0BD002C0CD01A7B944209D8E9
:102320001A6863001B19033BD3189B78002BEBD072
:102330000123E9E73E4B3F4A69213F4800F0E8FFAF
:102340003E4B3F4A65213F4800F0E2FF03689C7B1B
:10235000002CDBD012D01A7B94420FD862001219E5
:10236000033A19688C46624451789973002900D168
:10237000D9730023937053701370C7E72C4B2D4A09
:1023800069212D4800F0C4FF002C3AD02B681B7B3C
:102390009C4236D82C4BE3181B01AA689446634430
:1023A000009A1A60019A5A60089A9A60099ADA604B
:1023B0002E68002C2BD030D0337B9C422DD863006C
:1023C0001B19033B32689446634400229A705A708A
:1023D0001A70717B22003000FFF766FF7073844231
:1023E00000D095E7287D009A019B00F03DFC061E79
:1023F00001D0002F17D00C9B002B00D188E71E7056
:1024000086E7124B124A3B210E4800F081FF114B28
:10241000114AA621084800F07BFF054B054A6921B7
:10242000054800F075FF2868210000F067FEE2E72C
:1024300094D30010D8D50010B0D3001034D40010BD
:1024400050D600101CD30010FFFFFF0F60D3001008
:1024500018D6001018D30010F8D50010F0B5DE46DD
:1024600057464E464546E0B58BB009900023089389
:102470008200B34BD658370052E0B24BB24A3D21EE
:10248000B24800F045FFB24BB24A3B21B24800F0DF
:102490003FFF002901D1002869D10021404600F00A
:1024A00023FEA04219D12A686B6806920793AB6895
:1024B0009846EB689A464346002B14D0002C18D05F
:1024C0003B681B7B9C4214D8631EFA68D35C08935C
:1024D0001B0218433861002015E0A04BA04A8C2154
:1024E0009D4800F015FF9F4B9D4A90219A4800F0AF
:1024F0000FFF974B9C4A4021974800F009FF0023AB
:102500009A46984600207B68BFF35F8F00221A60CE
:1025100086F310884346002B32D1002800D107E112
:1025200000F018FB02000B1EA7DB00200021069024
:1025300007917868EFF3108672B601680029FCD025
:10254000BFF35F8F396888464C7B002CD7D09AD078
:10255000097B8C4297D8854965182D01B9688C464E
:10256000654428686968801A9941002991DD2A68C4
:102570006B68099800F078FB00239A469846C2E7FA
:10258000089B1B022343994651461800C04705008B
:102590000E007A68EFF3108B72B6136859424B4104
:1025A000D9B2002BF9D1BFF35F8F002E26DB002EAE
:1025B00052DD3B69002B53D04B4572D100F0CAFA73
:1025C00002000B1E73DB0100180052197341984280
:1025D00002D804D1914202D901225242D317002BD2
:1025E0006BDB00210491013103910294514601916A
:1025F000414600913800FFF777FE49E03B69002B28
:10260000D5D04B451CD1069A079B10001900521BD0
:10261000B341994202D804D1904202D901225242D8
:10262000D317002B12DB0021049101310391029496
:1026300051460191414600913800FFF755FE27E0D1
:102640004B4B474A9F21444800F062FE3D4B3E4AB7
:102650003D213E4800F05CFE002E01D1002DA8D1A6
:102660003A68002C45D0537B9C422CD10121002993
:102670003FD1D37B002B42D1D473002C52D03B6886
:102680001B7B9C424ED8FA68013C135D0133135505
:1026900000233B617A68BFF35F8F13608BF3108870
:1026A0003EE7334B2E4AA2212B4800F031FE254B4A
:1026B000254A3D21254800F02BFE224B224A3D2190
:1026C000224800F025FE002C0DD0137B9C420AD836
:1026D00063001B19033B1068844663449B78002BFE
:1026E000C5D00121C3E7234B234A6921234800F0C9
:1026F0000FFE234B234AF721204800F009FE002B50
:102700000AD0117B8B4207D85900CB18033B1168C4
:102710008C4663445C70AFE7164B174A6921174833
:1027200000F0F6FD0A4B104A40210B4800F0F0FD86
:102730000BB03CBC90469946A246AB46F0BDC046A5
:10274000BC6900205CD40010C0D5001078D4001003
:1027500060D3001018D600101CD30010C8D400108D
:1027600068D60010E0D4001024D60010FFFFFF0F41
:10277000ECD4001094D30010D8D50010B0D30010C2
:1027800028D5001008D6001010B50A4B5B68002B46
:1027900004D00A21084800F0FBFA10BD054C2300C4
:1027A000064A1021206800F0BFFB03212000FFF73C
:1027B000B3FCEEE7F85C0020DC6900208921001002
:1027C00010B5064B5B68002B01D0044810BD044BCC
:1027D000044A5C21044800F09BFDC046F85C0020E0
:1027E0004CD5001038D600101CD30010F0B5DE46D2
:1027F00057464E464546E0B58BB0804616001F0052
:10280000149B9A46159B994616AB1B789B461F2333
:1028100002AA9446634400221A7032E0002809D0CC
:1028200042461268127B904204D8421E4146C96853
:102830008A5C48E0434B444A4021444800F068FD2C
:102840000798002B75D05B46002B72D04946D047C5
:1028500004000D0003000B4300D171E0002946DBAA
:1028600000F078F906000F1E55DB36196F41B942AA
:1028700002D804D1B04202D901267642F717002FC0
:102880004FDB43465A68EFF3108472B6136859421F
:102890004B41D9B20791002BF8D1BFF35F8F1F33A3
:1028A00002AA9446634404930023039302934B4685
:1028B00001935346009332003B004046FFF714FD5E
:1028C000031EABD1020041464968BFF35F8F00256C
:1028D0000D6084F31088002B29D01F2302A98C4699
:1028E00063441B78002BABD112021043A9E73200DE
:1028F0003B00361BAF41BB4202D804D1B24202D9E1
:1029000001267642F717002FBBDA114B114A3D2101
:10291000114800F0FDFC0E4B0E4A3D210E4800F020
:10292000F7FC0B4B0B4A3D210B4800F0F1FC01205A
:1029300040420BB03CBC90469946A246AB46F0BD27
:102940000798F6E760D3001024D600101CD30010BF
:102950005CD40010C0D5001078D40010F0B587B05A
:1029600006000F00FDF77FFC00281FD106246442FB
:10297000E517A4197D41BD4202D803D1B44201D963
:1029800000240025002D14DB0494059500F0E2F8E6
:1029900002000B1E13DBA41A9D41002D17DC14D07E
:1029A0003000390000F0E2F807B0F0BD234800F035
:1029B000CDFC234B234A3D21234800F0A9FC204BAA
:1029C000204A3D21204800F0A3FC002CE8D0FFF76E
:1029D000F7FE0023029301931C4B0093049A059B7E
:1029E000FFF704FF002818DADAE7002300E00023ED
:1029F000002BD5D1164B1A68EFF3108172B613680D
:102A0000002BFCD0BFF35F8F114B1B68BFF35F8FB0
:102A100000221A6081F3108820BF0499059A0D4B9B
:102A20005B6A9A42E3D80B48806A884203D29A4292
:102A3000DBD00123DCE70123DAE7C04670D50010C4
:102A40005CD40010C0D5001078D4001059210010BB
:102A5000DC69002000400540F8B504000D0000F0DE
:102A600079F802000B1E10DB200029008018594164
:102A70008B4202D804D1824202D901204042C117C0
:102A8000002908DBFFF76AFFF8BD064B064A3D2127
:102A9000064800F03DFC034B034A3D21034800F08B
:102AA00037FCC0465CD40010C0D5001078D40010AC
:102AB00070B5EFF305833F2018401038EFF3108412
:102AC00072B6194B1B68002BFBD0BFF35F8F01233D
:102AD00019008140154A5163154A12781500C54006
:102AE0002B4214D0114B5D6A8300124E9B599D42BC
:102AF00006D38300104D5B598A430D490A7007E0E5
:102B00000A4A031D9B0099589950002300E00023B6
:102B1000BFF35F8F044A0021116084F31088002BFB
:102B200000D0984770BDC046280100D00040054045
:102B3000166A0020E8690020E068002010B5010056
:102B4000024A0348FFF724FA10BDC04690D6001091
:102B5000146A0020044B5B6A034A906A1900536AA6
:102B60009942F9D17047C04600400540074B5B6A67
:102B70008B4204D2054B5B6AFAE7044B5B6A8B42DB
:102B800003D1024B9B6A8342F7D370470040054054
:102B900070B504000D00FFF7DDFF02000B00200000
:102BA0002900801859418B4202D804D1824202D9AF
:102BB00001204042C117002902DBFFF7D7FF70BD9B
:102BC000024B034A3D21034800F0A2FB5CD40010F5
:102BD00024D7001078D4001070B504000D00EFF376
:102BE000108672B61B4B1B68002BFBD0BFF35F8FA8
:102BF000002D1CD0200000F03BFD174B83420BD072
:102C00001900200000F03CFD0121200000F028FD0B
:102C10000123A340114A1360A400114BE550BFF3F8
:102C20005F8F0C4B00221A6086F3108870BDA200E3
:102C30000B4B0021D1500122A2400A490B7893434B
:102C40000B700549200000F045FD0021200000F038
:102C500007FDE4E7280100D0B12A001038600540E4
:102C6000E0680020166A0020F0B5DE4600B584B0AA
:102C70000400150001921E000293FFF76BFF0395FD
:102C80008E4202D84ED185424CD9EFF3108B72B6EA
:102C9000274B1B68002BFBD0BFF35F8F254A1778AB
:102CA0000125A540EBB23B431370234B5D63221D0E
:102CB00092000199D150A2002049029850501B6AFD
:102CC0002B4212D11C4B1B6C2B4208D00020BFF3AF
:102CD0005F8F174B00221A608BF3108823E0184B8C
:102CE000184AC121184800F013FBFFF733FF8E424A
:102CF00014D802D1039B834210D80E4B1B78BB42E1
:102D00000ED00D4B1D625D631F2004400123A340C4
:102D10000E4A1360074B1F701E38D8E70020D6E715
:102D20000120D4E7012004B004BC9346F0BDC046A6
:102D3000280100D0166A002000400540E869002004
:102D4000B4D600103CD70010D8D6001080E200E0C6
:102D500010B5EFF3108472B60A4B1B68002BFBD042
:102D6000BFF35F8F01238340074A136207490A7844
:102D70009A430A70BFF35F8F024B00221A6084F3FC
:102D8000108810BD280100D000400540166A0020C0
:102D9000024B9C466144890001607047400000344A
:102DA00070B504000D00FFF727F901002000FFF7C0
:102DB000EFFFFF2323716571BFF35F8F70BD10B507
:102DC0000021FFF7EDFF10BD10B5FF21FFF7E8FF71
:102DD00010BD000010B500291ED0037B99421BD8FE
:102DE0004B005B18033B0468A4466344002919D0D8
:102DF000002A1DD0914221D0002A25D0047BA24276
:102E000022D804685000801803382018817019787F
:102E100000291FD11A7010BD104B114A69211148A9
:102E200000F076FA104B114A70310E4800F070FA3B
:102E30000F4B0E4A71210B4800F06AFA0D4B0B4AFA
:102E40007221084800F064FA044B054A69210548DC
:102E500000F05EFA41701A70DDE7C04694D30010AE
:102E6000FCD80010B0D3001004D4001008D9001012
:102E700010D400101CD4001070B506000D00140012
:102E8000002914D0002A14D080687368984700285D
:102E900006D0220029003000FFF79CFF280007E041
:102EA0002A0021003000FFF795FF200000E010000D
:102EB00070BD0800FCE7000010B500234373013328
:102EC0008373037BC3730123027B9A4214D9002BC3
:102ED0000CD0027B934209D85A00D218033A0168F9
:102EE0008C4662440133DBB25370EDE70B4B0C4A66
:102EF00069210C4800F00CFA002A09D0924207D848
:102F0000016853009A18033A8A180023537010BDC1
:102F1000024B034A6921034800F0FAF994D30010E8
:102F2000FCD80010B0D3001010B50173426083606C
:102F3000FFF7C2FF10BD000070B50400081E00D1ED
:102F400070BD002934D0237B994231D84B005B18E7
:102F5000033B2268944663445A78002AF0D02DD06F
:102F6000237B9A422AD853009B18033B21688C4646
:102F700063445D7800215970002825D0237B984256
:102F800022D843001B18033B21688C466344002170
:102F9000597001002000FFF76FFF06002900200094
:102FA000FFF7CAFF020031002000FFF765FFC7E707
:102FB000084B094A6921094800F0AAF9054B064A5D
:102FC0006921064800F0A4F9024B034A692103482D
:102FD00000F09EF994D30010FCD80010B0D300107C
:102FE00070B505000C001600002928D02DD0037BF9
:102FF00099422AD84B005B18033B0268944663440D
:103000005A78002A27D19A78002A2AD11978FFF70E
:1030100093FF0300002E03D0EA7B002A27D1EC7334
:10302000002B37D1002C49D02B7B9C4246D82B68F3
:1030300061000C19033C1C190023637070BD224B06
:10304000224A3821224800F063F9224B224A6921A2
:10305000224800F05DF9224B1C4A3A211C4800F03E
:1030600057F9204B194A3B21194800F051F9002A21
:103070000AD0297B8A4207D851008A18033A296866
:103080008C4662445470CAE7124B134A69211348B4
:1030900000F03EF9002B0BD02A7B934208D8430066
:1030A0001B18033B2A689446634400229A70B9E7D0
:1030B000084B094A6921094800F02AF9054B064ADC
:1030C0006921064800F024F93CD800101CD90010F2
:1030D00044D8001094D30010FCD80010B0D30010D6
:1030E00088D80010B0D8001070B504000A00457BE5
:1030F0002900FFF775FF6073280070BD70B50400EC
:10310000002966D0437B8B420ED0002911D0037B6F
:1031100099420ED84B005B18033B0268D0188378A5
:10312000002B0CD1002055E00121FFF7DDFF01202D
:1031300050E0294B294A6921294800F0E9F8002B81
:103140001FD0227B93421CD825685A00D318033B1A
:10315000EA18EB5C8B421AD0002B1BD0227B9342E7
:1031600018D85A00D318033B2268D21853788B42E0
:1031700016D0002BF0D11B4B1B4A67211B4800F0D7
:10318000C7F8154B154A6921154800F0C1F8437876
:10319000137007E0104B114A6921114800F0B8F88C
:1031A0004378537000238370437001222000FFF79F
:1031B00017FF0200617B814205D02000FFF75CFE13
:1031C0006073012006E00A4B074A6D21074800F0B2
:1031D0009FF8002070BDC04694D30010FCD80010AA
:1031E000B0D30010D4D8001030D9001044D800104B
:1031F000DCD8001070B5264B264A1A60264B274AA9
:103200001A60274B9A68254B9343FAD1254C264BDD
:103210009C4202D208CC9847F9E700F031F91E4BE6
:10322000224A1A601E4B9B68DB43DB01FAD1204B1C
:1032300040229A675A671A67DA661E4C03E020003C
:10324000FFF7BDFD08341C4B9C4206D26379002B6E
:10325000F5D02000FFF7B8FDF4E7184CA168184D31
:10326000C022280002F0FCFDA560FCF7FCFF00284E
:1032700000D000BEFEF7B0FE00F08EFBFFF784FA30
:10328000104C01E008CC98470F4B9C42FAD370BD1C
:1032900000E00040BFCDFBFE00F00040FE7F3C00A0
:1032A00000C000406867002078670020FFFFFF0132
:1032B00000F00140586700206867002000ED00E042
:1032C00000000020786700207C67002000BEFDE73A
:1032D00003000A4A1268002A08D0084A1068C31876
:1032E000074A9A4206D3054A13607047034A0549C4
:1032F0001160F2E701204042F7E7C04694690020E0
:10330000000004209CDB002010B5FFF7DFFF000069
:1033100010B582B00C001900002A0CD0084B002A0E
:103320000BD00192009323000200064802F030FF08
:103330000120FFF7CBFF044BF1E7034AF1E7C0465A
:1033400048D9001058D90010C4CE00100FB400B5F1
:1033500083B0084802F0ECFE049B002B07D005A9BF
:103360000191180002F0F2FE034802F0E1FE012094
:10337000FFF7ACFF88D900105CCE0010F8B5DE4630
:1033800057464E464546E0B505000F0092461E00E2
:103390000A9B9E424ED3330E994636020A9A002368
:1033A0003000494601F004FD80466C006419A40019
:1033B0002E4B9C4664446368834200D260602B1F9E
:1033C000DBB29B46012B3BD9C0239B0123438022C8
:1033D00012011A60AB00264A9958002905D050699D
:1033E00001F0A4FC01300138FDD153465A01236895
:1033F0005A40E0231A4080235B0123431A605A4657
:10340000012A28D980239B012343802212011A60BC
:1034100043466360424600233000494601F0C8FC41
:10342000AD00134B585101203CBC90469946A24632
:10343000AB46F8BD0F4B104A2D211048FFF768FF2F
:10344000012FC1D1C0239B01234303221A60A3682B
:10345000DB07FCD5C9E72168794003220A401A60DE
:10346000A3680122BA401A42FAD0CBE7008000409C
:103470000C69002098D90010FCD90010ACD90010BC
:1034800030B583B00C2000F01FFBFEF79BFD002839
:103490000DD00023092B05D899002D4A2D488850BE
:1034A0000133F7E72A4B2C4A5A6203B030BD2B4B4D
:1034B00000229A6700F010FB294B01221A60274B6B
:1034C0005B6C012BFBD1274B03221A60234B9B6BB8
:1034D000012BFBD1022400940533234A0121234808
:1034E00000F066FA00940523214A0121214800F0EA
:1034F0005FFA214B0093002202210420FFF73EFFD8
:103500001E4D00952B00002201210520FFF736FFFC
:10351000104C00942300002200210720FFF72EFF0B
:1035200000942300002200210820FFF727FF0A4B08
:1035300000932300002200210920FFF71FFF0095C0
:103540002B00002200210620FFF718FFADE7C04640
:103550000C690020006CDC021BB7000000800040FA
:103560003CB0004030B00040002F6859008002405D
:1035700000389C1C00C00240001BB7004059730774
:103580008000014BC05870470C690020074B9B68B6
:10359000103080001950BFF35F8FBFF35F8F044B73
:1035A0000021196082F310887047C04600ED00E0EA
:1035B000240100D010B5091A04394808090B05D1B7
:1035C0004005400D044B184380B210BD034B044A24
:1035D0008C210448FFF79CFE00E0FFFF0CDA00108E
:1035E000F4DB00101CDA001010B5091A04394C087D
:1035F000090B08D14905490D064A11430180064BC4
:103600002343438010BD054B054A94210548FFF72D
:103610007FFEC04600F0FFFF00F8FFFF0CDA00104D
:1036200000DC00101CDA001001238340034A1068FC
:103630001840431E9841C0B27047C04600E100E008
:10364000002904D0034B1860034B18607047034BEC
:103650001860FBE780E200E000E100E080E100E0CC
:1036600010B5012383401800FFF7EAFF10BD0000EA
:10367000024B9B6810308000C058704700ED00E09E
:1036800070B504000D00EFF3108672B60C4B1B688A
:10369000002BFBD0BFF35F8F2000FFF7E9FF094B42
:1036A000984201D0A84205D1320029002000FFF73E
:1036B0006DFF70BD044B054A70210548FFF728FED9
:1036C000240100D0CD01001064DA0010D8DB001016
:1036D0001CDA0010F0B5CE46474680B583B0060030
:1036E0000D00EFF3108872B6574B1B68002BFBD010
:1036F000BFF35F8F554B9A6834001034A300D7583E
:10370000534B9F4207D0AF4200D19BE00197514BF2
:10371000FB1A2F2B09D9424639003000FFF736FF3C
:1037200003B00CBC90469946F0BD3000FFF77CFF1B
:10373000814600213000FFF793FFBFF35F8FFCF756
:1037400092FD002801D0844219D10123019C9C43A1
:10375000230040495B1A5B4148495943090D49B26E
:103760000022A368AB4212D00622A256002A0DDB2B
:1037700053009B189B002200364CE418F1E72021EF
:10378000354B364AFF313648FFF7C2FD2200AB42C7
:1037900051D106256557002D39DB6B005B199A0066
:1037A0002C4B9B189A68A260DA79E27106229A562D
:1037B000A2719B795BB2002B10DABD200002A080C1
:1037C0006B005B199B00234AD318264A1178997124
:1037D000157049463000FFF743FF9CE7201D6B0042
:1037E0005B199B001B4A9B181A1D9B88D90A1C2930
:1037F00007D159054915023149005118FFF7DAFE82
:10380000DDE7194B194A9A211548FFF781FD002879
:103810000CD1002A08D0FF239371154B9380114BD4
:103820001A78A2711970D4E7094FF8E7201D1149E1
:10383000FFF7DAFECDE7AA210F4B084A49000848F6
:10384000FFF766FD024F66E7240100D000ED00E0BF
:10385000CD010010205D002078DB001028DC001076
:103860001CDA0010156A002060DB001018DC001064
:1038700000BDFFFF5A5D00209CDB0010AAAA0000DB
:1038800010B5032304009C43064A9446644422680E
:103890001840C000FC3383409A43130081400B431F
:1038A000236010BD00E400E0F8B5040001260643E3
:1038B0002D4BF31A2F2B28D8FCF7D5FC00282BD042
:1038C000EFF3108772B6294B1B68002BFBD0BFF3B8
:1038D0005F8F2300244D5B1B5B412E4D5D432D0DFF
:1038E0006DB2234B9B6880001B58B3421BD0002253
:1038F000032A32D853009B189B001B49CB189B7995
:103900005BB2AB421FD00132F2E77221194B1A4A67
:10391000FF311A48FFF7FCFCBA21194B164A49003F
:103920001648FFF7F5FC124B9B68164A1A50164BC7
:103930001A78A2711D70BFF35F8F0C4B00221A60C2
:1039400087F31088F8BD08005300991889004118C2
:10395000FF268E710D4A8A80E9E786210C4B064AC4
:10396000FF310648FFF7D4FC205D0020240100D081
:1039700000ED00E0A4DB00103CDC00101CDA0010BD
:10398000CCDB0010CD010010156A002000BDFFFF48
:10399000D4D80010AAAA000010B500241F2C05D806
:1039A00080212000FFF76CFF0134F7E710BD000015
:1039B000F0B5CE4600B504000E0091461F000C2065
:1039C00001F0B4F9050043011B1A9901C91AC90095
:1039D00009188901484601F0A9F90200103A982314
:1039E0005B009A4233D87B1E062B36D8069B013BE0
:1039F000062B32D8069B9F4235D34B461A09AA4262
:103A000037D33F04069B1D032F432368002B36DB6F
:103A1000234B9C4241D080256D01224B1D60224BDF
:103A20001D60224A92682B009343FAD12660A06061
:103A3000221DC0239B01134321221A602268002A01
:103A4000FCDAE76008221A6004BC9146F0BD184B0E
:103A5000184A16211848FFF75BFC184B154A192124
:103A60001548FFF755FC164B124A1F211248FFF765
:103A70004FFC144B0F4A22210F48FFF749FC2268E4
:103A80003F231340B342C3D1A3681B051B0D8342E0
:103A9000BED1E368002FBBD1D6E78025AD01BCE7DE
:103AA00000C0024000E0004000F0004000C00040C4
:103AB00058DC00103CDD001074DC0010BCDC001091
:103AC00008DD001020DD001080239B000343014A25
:103AD000D362704700800540064BAA2212011A608B
:103AE0002F22DA60044B054A1A60024B5B68002BF8
:103AF000FBDA7047004002400060024000B0FA006C
:103B00009A4200D288547047704710B5002802D0FE
:103B10000B684968984710BD010000200A681378B7
:103B2000303BDBB2092B08D883001B185B00501C0C
:103B300008601078C0183038F0E77047F0B5DE46FE
:103B400057464E464546E0B583B093461F000C9B52
:103B50009A460D9C0E9B99460F9B9B0703D0B84637
:103B60000F00060022E00192A34688464E46B94661
:103B70000700B44207D2551C4B4641462020B847A7
:103B800001342A00F5E73D004F465C46019B9B4609
:103B9000B1464646B84637002E0007E0013C551CAA
:103BA0005346185D43463900B0472A00002CF5D132
:103BB00035003E0047460F9B9B0707D4100003B01B
:103BC0003CBC90469946A246AB46F0BDB0464E4638
:103BD000B9462F005D46531BB342EFD2541C4B46EF
:103BE00041462020B8472200F5E7F0B5CE464746CB
:103BF00080B585B0944698460C9D0D9C0EAB1B7805
:103C00009946109A119B129EB7071BD4002B08D01F
:103C1000F70706D54F46002F02D10C37374200D0A8
:103C2000013B944208D21F2C06D830272F5501346F
:103C3000F7E730272F550134F70703D59C4201D20F
:103C40001F2CF6D9F70615D5770505D4002C03D01F
:103C5000944224D09C4222D00F9A102A2BD00F9A43
:103C6000102A30D00F9A022A35D01F2C02D83022C9
:103C70002A5501341F2C05D84A46002A31D02D225E
:103C80002A550134039602930194009543466246F7
:103C9000FFF754FF05B00CBC90469946F0BD621E7C
:103CA000012C06D00F9F102F01D01400D4E7023C46
:103CB000D2E71400D0E7B206D1D41F2CCFD8782297
:103CC0002A550134D1E7B206CCD51F2CCAD85822C8
:103CD0002A550134C9E71F2CC7D860322A55013450
:103CE000C3E7720703D52B222A550134CAE73207EE
:103CF000C8D520222A550134C4E7F0B5DE46574620
:103D00004E464546E0B593B081468A4608920993EF
:103D10001CAB10CB1B789B461E9D219B9846002C0C
:103D200003D1102342469A4390468023DB00464647
:103D30001E4042461A4212D0002C22D000260EE02D
:103D40003033D9B2771C0AAB99552900200000F016
:103D5000EDFFAC4216D31F2F14D83E0004002900FB
:103D6000200000F0E3FFCBB2092BE9D942469206CE
:103D700005D54121C918C9B20A39C9B2E2E76121A2
:103D8000F8E7270043460693209B05931F9B049367
:103D900003955B46029301970AAB0093099B089A2F
:103DA00051464846FFF721FF13B03CBC9046994668
:103DB000A246AB46F0BDF0B5DE4657464E464546F8
:103DC000E0B595B0089009910A920B931E9E1F9C36
:103DD00020AB1B789B46229B9946239D269B9A46A7
:103DE0003300234303D1103352469A439246802333
:103DF000DB0057461F4052461A4219D03300234376
:103E00002DD0002714E03033DAB27B1C98460CAB7F
:103E1000DA554A462B003000210000F0C9FFA542C8
:103E20001FD819D043461F2B1BD8474606000C004D
:103E30004A462B003000210000F0BAFFD3B2092B14
:103E4000E1D95246920605D54122D218D2B20A3A99
:103E5000D2B2DAE76122F8E7B145E3D901E0002305
:103E6000984653460693259B0593249B04934B4603
:103E700003935B460293434601930CAB00930B9B69
:103E80000A9A09990898FFF7B0FE15B03CBC904615
:103E90009946A246AB46F0BDF0B5DE4657464E46C3
:103EA0004546E0B591B083468A460C9298461A9CE6
:103EB00008941B9D099522002B002000290001F089
:103EC0000CFA002800D0E5E001225242D34B20003A
:103ED000290001F0FDF9002800D0DBE00122524268
:103EE000CF4B2000290001F0DDF9002800D0D1E0FF
:103EF00000220023089D2800099E310001F0D2F91C
:103F0000002800D0DDE008980999069007918023E9
:103F1000DB001E9A1A400D921E9A1A4201D1062306
:103F20001C930698079904000D000A00060002433E
:103F300000D1CDE0080D4005400DBA4CA4466044C8
:103F40000A03120BB84B13431F0001F0D9F9B74A0B
:103F5000B74B01F05CF9B74AB74B01F031F90400F7
:103F60000D000022B54B3000390001F020F9B44AB1
:103F7000B44B01F04CF902000B002000290001F0C5
:103F80001FF901F0D5F9814601F0BAF904000D00DE
:103F9000AD4AAE4B01F03BF90022AD4B01F010F9F8
:103FA00001F0C6F90600AB4AAB4B2000290001F036
:103FB0002EF904000D00300001F0A2F9A74AA84B29
:103FC00001F025F902000B002000290001F0EFF8B4
:103FD00004000D0002000B0001F019F90A900B918A
:103FE000A04BF31800261F0522002B0020002900FB
:103FF00001F0E6F80E900F9122002B0000208021A6
:10400000C90501F0D4F804000D000022964B0A986F
:104010000B9901F0DEF80022944B01F0D1F8020078
:104020000B000A980B9901F0D4F80022904B01F094
:10403000C7F802000B000A980B9901F0CAF80200B9
:104040000B002000290001F0BBF802000B000E98C5
:104050000F9901F0BEF80022734B01F0B1F8320065
:104060003B0001F0D4F806000F0004000D00069A92
:10407000079B01F02DF900282CD001235B429C46C0
:10408000E1440022794B3000390001F0A2F804002D
:104090000D001FE01E9B04931D9B03931C9B02932A
:1040A000089A099B0092019343460C9A5146584640
:1040B00000F0F8F811B03CBC90469946A246AB46D9
:1040C000F0BD069580231B069C46664407961EE7B6
:1040D000002399464B466333C62B1FD804261E9BEC
:1040E0001B0527D52B00234310D0624A624B06984C
:1040F000079901F0E5F8002800D183E000225F4B2A
:104100000698079901F0CEF800287BD01C9B4B4500
:1041100006DD4A46981A431E1C9303E00526DEE797
:1041200000231C938023DB001E9A1A431E92002654
:10413000002399461D9B9E426ED29F1B02231E9A0E
:104140001A400A921E9A134202D0002E00D0002775
:104150004B46002B07D022002B000698079901F050
:1041600038F806900791002200230898099901F079
:1041700099F8002800D085E0414B1E9A1340049323
:1041800003971C9B0293069B079C00930194434654
:104190000C9A5146584600F085F8002E00D189E768
:1041A0001E9B9B067AD54525441C4346020051467A
:1041B0002800D8474B46DA179B1853400522059232
:1041C000013E0496002203920A3202924A46D00F20
:1041D000019000934346220051465846FFF78DFD5B
:1041E0000A9B002B00D165E702005F460C9E1D9DD7
:1041F000931BAB4254D2541C434651462020B8472F
:104200002200F5E71C9B002B94D00D9B002B91D036
:104210001C9B013B1C938DE700278FE7FFFFEF7F7F
:10422000FFFFEFFF01FCFFFF0000F03FFB799F5015
:104230001344D33FB3C8608B288AC63F0000F83FC1
:1042400061436F63A787D23F71A379094F930A40F7
:104250000000E03F1655B5BBB16B0240EF39FAFEE6
:10426000422EE63FFF03000000002C4000002440E7
:10427000000018402D431CEBE2361A3F80842E418B
:10428000FFF7FFFF069C079D220029008020000603
:10429000844661440B00069207936DE7652583E72A
:1042A000100007E7F0B5DE4657464E464546E0B5F6
:1042B00095B00690079193469946209F1E9A1F9BA2
:1042C0001000190001F009F8002831D101225242F2
:1042D000BF4B1E981F9900F0E5FF002837D101223F
:1042E0005242BC4B1E981F9900F0F2FF00283DD1AE
:1042F0000022B94B1E981F9900F0EAFF002850D108
:104300000022B64B1E981F9900F0CCFF002848D120
:10431000002200231E981F9900F0C4FF002850D1EE
:1043200000239846229B5B0500D4B6E0002458E0A9
:10433000229B0393219B029303230193A84B009399
:104340004B465A4607990698FFF7F8FB0EE1229B69
:104350000393219B029304230193A24B00934B46AA
:104360005A4607990698FFF7E9FBFFE00423229AD3
:104370001A4022990B4210D09B4B002A0FD00422E6
:104380002299039121990291019200934B465A463A
:1043900007990698FFF7D2FBE8E0944BEDE703227C
:1043A000EEE7229B0493219B039302971E9B1F9C85
:1043B000009301944B465A4607990698FFF76CFD07
:1043C000D4E01E9A1F9B0020002100F0F0FE1E90FA
:1043D0001F9101239846A5E70CAB30221A55013FE7
:1043E00001341F2C01D8092FF6D81E981F9900F010
:1043F0009FFF050000F084FF02000B001E981F992C
:1044000000F0D5FEFA007A4B9B181A685B680A9296
:104410000B9300F0FCFE0890099100F0ADFF060040
:1044200000F06AFF02000B000898099900F0BFFE37
:104430000890099100226F4B00F04AFF00282ED00F
:104440000136300000F058FF02000B000A980B996B
:1044500000F02EFF002801D001350026002F2CD1BE
:10446000280000F04DFF02000B001E981F9900F07D
:104470009EFE06000F0000225E4B00F013FF002896
:1044800042D100225B4B3000390000F021FF0028B0
:104490003AD1EB0738D5013536E0062746E700224A
:1044A000544B0898099900F0FDFE0028D6D1002E43
:1044B00001D0F307D2D50136D0E7AA461F2C11D878
:1044C000013F0A21300000F031FC651C30310CAB9B
:1044D00019550A21300000F029FC092E26D90600C2
:1044E0002C00EBE7554604E00CAA302111551F00C3
:1044F00001341F2C02D87B1E002FF5D11F2C03D8AE
:104500000CAB2E221A5501341F2C14D80A21280076
:1045100000F0E4FB661C30310CAB19550A21280071
:1045200000F0DCFB051E05D03400EDE72B005546FE
:104530001C00DEE734000323229A1340012B1CD019
:104540001F2C06D84346002B32D00CAB2D221A5517
:104550000134229B0393219B029301940CAB0093A3
:104560004B465A4607990698FFF7E8FA15B03CBC47
:1045700090469946A246AB46F0BD219B002B13D036
:104580004346002B02D10C3313420FD0219B013B39
:104590002193190003E00CAB30221A5501348C42F0
:1045A000CED21F2CF7D9CBE72199F8E72199F6E76E
:1045B000229B5B0704D50CAB2B221A550134C8E7AC
:1045C000229B1B07C5D50CAB20221A550134C0E72E
:1045D000FFFFEFFFFFFFEF7F65CDCD4165CDCDC183
:1045E00054DD001058DD00104CDD001048DD0010D7
:1045F00040DF00100000E03FF0B5DE4657464E4673
:104600004546E0B593B082468B469046119300290B
:1046100000D1ECE200275546119B1878002800D104
:10462000E8E2252809D07C1C43463A005946A847B1
:10463000119B013311932700EEE7013311930024FE
:104640001DE00B00303BDBB2092B37D92A293AD0C9
:1046500000230A93119B1A782E2A44D000239A46ED
:10466000119A1378683BD9B2122900D980E08B00E7
:10467000CB49CB589F4601231C4301321192119A1A
:1046800011780B00203BD8B21028DAD88300C54837
:10469000C3589F4602231C4301321192EFE70423C3
:1046A0001C4301321192EAE708231C4301321192A4
:1046B000E5E710231C4301321192E0E711A8FFF750
:1046C0002BFA0A90C6E71C9B1A1D1C92186800283A
:1046D00004DB0A90119B01331193BBE702231C43B7
:1046E00043420A93F6E78022D20014435A1C1192E7
:1046F0005A781300303BDBB2092B04D92A2A07D0A1
:1047000000239A46ACE711A8FFF706FA8246A7E70E
:104710001C9B1A1D1C921868002804DB8246119B02
:10472000013311939CE70020F8E780235B002343CB
:10473000511C119152786C2A01D01C0018E0C02342
:104740009B001C430131119112E080232343511C33
:1047500011915278682A01D01C0009E0C0231C4343
:104760000131119104E080235B001C43013211925E
:10477000119B18780300253BDAB2532A00D92CE2AA
:104780009300894AD3589F4680239B001C430132E3
:104790001192EDE780235B001C4301321192E7E7A1
:1047A000782809D0582838D06F2838D0622838D0D7
:1047B00010239C430A2600E01026582833D069288D
:1047C00003D0642801D00C229443630501D5012253
:1047D000944369282AD0642828D0A30500D59FE0F7
:1047E000E30500D5B8E0630600D4CAE01C9A111DA9
:1047F0001C911168FF220A4005940A9B04935346BA
:104800000393029600230193009243463A005946CF
:104810002800FFF772FA070027E01026CDE70826E8
:10482000CBE70226C9E720221443C8E7A30520D41A
:10483000E30550D4630666D51C9A111D1C911168BE
:10484000FF220A40D317D118594005940A9B0493BC
:10485000534603930296D20F0192009143463A00C9
:1048600059462800FFF749FA0700119B01331193BD
:10487000D2E61C9BDA1D07218A43110008311C91E6
:10488000116853689C46DB170C930D930C9A0D9B93
:10489000100048400E90624653400F930E980F99B7
:1048A0000C9A0D9B801A99410E900F9108940A9BC7
:1048B0000793534606930496002305936346DA0F45
:1048C00002920090019143463A0059462800FFF7B2
:1048D00072FA0700C9E71C9A111D1C911268D317C0
:1048E000D118594005940A9B0493534603930296AA
:1048F000D20F0192009143463A0059462800FFF733
:10490000FCF90700B1E7230605D51C9A111D1C917F
:104910000023D25E96E71C9A111D1C91126891E744
:104920001C9BDA1D07218A43110008311C91089451
:104930000A9B07935346069304960023059302931C
:10494000136854680093019443463A00594628007E
:10495000FFF731FA070088E71C9A111D1C91059496
:104960000A9B049353460393029600230193136812
:10497000009343463A0059462800FFF7BEF9070066
:1049800073E7230606D51C9A111D1C9112681204A8
:10499000120C31E71C9A111D1C9112682CE7C046BD
:1049A00060DD0010ACDD0010F0DD001046281AD0EC
:1049B0001C9B0733072293431A0008321C9204946D
:1049C0000A9A0392524602925C681B680093019413
:1049D00043463A0059462800FFF764FC0700119B44
:1049E0000133119318E620231C43E1E7672801D027
:1049F000472802D180231B011C43452801D04728AA
:104A000001D120231C431C9B0733072293431A0028
:104A100008321C9204940A9A0392524602925C68ED
:104A20001B680093019443463A0059462800FFF75B
:104A300033FA0700119B01331193EDE502231A00AD
:104A40002240924623421FD001241C9B1A1D1C9217
:104A50007A1C9146187843463A005946A84753466F
:104A6000002B16D1119B013311934F46D4E5561CF0
:104A7000434659462020B847230032005C1C9D4223
:104A8000F5D83D001700E0E701233A002F000A9D0A
:104A9000F4E74A46A9460A9D06E0571C4346594694
:104AA0002020C84734003A00661CA542F5D84D4680
:104AB0009146D7E71C9B1A1D1C921B6899465346CA
:104AC000002B00D1013B4E4601E001361300327845
:104AD000002A02D05A1E002BF7D14B46F21A109230
:104AE0008023DB0026001E401C4203D0524501D922
:104AF0005346109302231A0022400B92234205D002
:104B00003A0037004C46A946554620E03A00109B33
:104B10005F46B3462E0006E0551C43463900202070
:104B2000B04723002A005C1C0A999942F4D835004A
:104B30005E46BB46109437004C46A946554606E0F3
:104B40001D000134561C43465946C84732002078A0
:104B5000002804D0002FF4D06B1E002DF0D11700D8
:104B60004D460B9B002B03D1119B0133119353E551
:104B70000A9F109B06E0561C434659462020A84732
:104B8000230032005C1C9F42F5D81700ECE721237C
:104B90001C431C9B1A1D1C921B6800930594082340
:104BA0000493534603931023029300230193434637
:104BB0003A0059462800FFF7A0F80700119B01337F
:104BC000119329E57C1C43463A0059462520A84705
:104BD000119B0133119327001EE57C1C43463A00CC
:104BE0005946A847119B01331193270014E50B4B3D
:104BF0009A460FE5AA4647450DD343465A1E4346FB
:104C000059460020D047380013B03CBC9046994626
:104C1000A246AB46F0BD3A00F1E7C046093B0010A2
:104C20000EB410B585B0010007AC08CC0394012286
:104C3000009452420348FFF7DFFC05B010BC08BCEB
:104C400003B01847013B001000B585B002900391F6
:104C50000121009313004A4202A90248FFF7CCFC4D
:104C600005B000BD0B3B001001480421014B184763
:104C7000705D0020A54C0010014B9B681847000098
:104C8000705D002010B5010018231B8814221088C5
:104C9000984710BD10B5010018231B8816221088F4
:104CA000984710BDF0B5C64600B507000E000025B8
:104CB0000123984600E00135B5420AD2AC003C1908
:104CC0002068FFF7DFFF20600028F4D1002398461A
:104CD000F1E7404604BC9046F0BD0000124A936FD5
:104CE0009B0815D29066D166002905D0FFE7FFE743
:104CF000FFE7516F106F704704B580210906C21796
:104D00005140002800D0C84307F09AFC002104BDA0
:104D1000F0B5146E556E576F166FFFF7E3FF14660C
:104D2000556657671667F0BD000000D0114A936FB3
:104D30009B0813D210665166002905D0FFE7FFE7F4
:104D4000FFE7516F106F704704B5002801D00020B5
:104D5000C04307F075FC002104BDC046F0B5146ED9
:104D6000556E576F166FFFF7E5FF14665566576768
:104D70001667F0BD000000D094464E4A926F92082C
:104D8000624601D230E0C046F0B54A4EB56F6D08BC
:104D9000FCD3346E756E776F366F00F025F894464D
:104DA000444A14665566576716676246F0BDC046AA
:104DB0009446404A926F9208624601D258E0C0463B
:104DC000F0B53C4EB56F6D08FCD3346E756E776FE1
:104DD000366F00F04DF89446364A146655665767AC
:104DE00016676246F0BDC046002B24DB11D00029B7
:104DF0003EDA00B5C943404200D1013100F038F835
:104E0000C943404200D10131DB43524200D101335A
:104E100000BD002AEBD1002801D1002905D00020D7
:104E2000C90FC90701D1C043410800B507F000FC14
:104E30000022002300BD00B500290ADBDB435242FB
:104E400000D1013300F014F8C943404200D10131D0
:104E500000BDC943404200D10131DB43524200D181
:104E6000013300F005F8DB43524200D1013300BDAD
:104E7000002923D1002B18D1002A0CD0BC460D4F9D
:104E800038667A6600210023FFE7FFE7FFE77A6FC5
:104E9000386F67467047002801D00748010000B509
:104EA00007F0C6FB0022002300BD02000B0000201B
:104EB00000217047000000D0FFFFFFFF002B00D053
:104EC000BDE0130C26D1002AE7D080B4104F39661C
:104ED0007A66FFE7FFE730B4040C7B6F396F1B0481
:104EE00023433B66FFE7FFE7FFE7C04684B27B6FE3
:104EF0003D6F1B0423433B66FFE7FFE7C0460023EB
:104F00002C042D0C7A6F386F00196941B0BC7047C2
:104F1000000000D0F0B594460025140E01D1120215
:104F20000835140F01D112010435940F01D19200FC
:104F30000235D40F01D152000135D40B0134254F75
:104F40007C66254C3C660E0C93B2FFE7FFE7FFE75B
:104F50003C6F6643360C7703BE467343DF0B5B043E
:104F6000C01AB941130C7343DB18C91ACE08664343
:104F7000360CB64493B273431F0F1B01C01AB941DC
:104F8000130C73431F0B1B05C01AB941860D8F020A
:104F90003E436643360C092D24DB520A7243801AC5
:104FA0007703460A6643360C16235B1BDE40DF4060
:104FB000BF1964466643821B704604350633010000
:104FC000D940A840C01900D30131A24206D2002323
:104FD000F0BD0000000000D0FFFFFFFF121B0130FA
:104FE000F3D3F1E709277F1BFE406446A2B2724368
:104FF000801A00D20139220C7243130C1204821A57
:1050000099410B007046043513370100F940A84060
:10501000801900D30131002B02D1A2420AD2F0BD87
:10502000013000D30131121BFAD2013BF8D1A24268
:1050300000D2F0BD013000D30131121BF7E7F0B50B
:105040001C0C00D080E00CB400251C0A04D11B020B
:10505000160E3343120208351C0B04D11B01160F28
:105060003343120104359C0B04D19B00960F33434C
:1050700092000235DC0B02D192185B4101351C0015
:10508000971864410134464F7C66464C3C660E0CD2
:10509000FFE7FFE7FFE7C0463C6F6643360C770348
:1050A000BE4697B27743C01B00D20139C01B00D265
:1050B00001399FB27743C91BC91B170C77437E0484
:1050C000FF0B801BB941CE086643360C0C2D33DB39
:1050D000B644120B1F053A431B0B97B27743C01B14
:1050E00000D201399FB27743C91B170C77433E04A6
:1050F0003F0C801BB941860D8F023E436643292732
:105100007F1BFE400C3D7746AF40BF1930BCA2B2BA
:10511000ABB272437343801A9941220C7243130C51
:105120001204801A994102000B000137001BA941AB
:10513000F9D2781E0021F0BD0C277F1BFE40774678
:105140007F0BAF40FF19E0E700245D1C07D0144F30
:105150007D663966FFE7FFE7FFE7FFE73C6F95B243
:105160009EB265436643401BB141150C1E0C65435E
:10517000664336042F0C3E432D04401BB141994237
:1051800004D202000B0020000021F0BD01D19042AA
:10519000F7D3801A994101349942F2D3F6E700001F
:1051A000000000D0FFFFFFFF48404140484018B4D6
:1051B0001B4B5B68FC46019308BD04DF07550010DC
:1051C00018B4174B1B68FC46019308BD00DF11554E
:1051D00000109446134A926F920809D2624618B49E
:1051E0000F4BDB68FC46019308BD0CDFC95700106C
:1051F0000C4AF0B5146E556E576F166F6246FFF786
:10520000EEFF084A1466556657671667F0BD18B476
:10521000034B9B68FC46019308BD08DF6D560010E8
:1052200094D90020000000D0FFB5504042405040CB
:1052300059404B40594000E0FFB5154F4C00640DFC
:1052400003D0BC4204D10C0314D80020090D090579
:105250005C00640D03D0BC4204D11C030AD80022B8
:105260001B0D1B0501264B4009D44B4003D58B4237
:1052700000D18242FFBD9942FCD19042FFBD0B4359
:10528000DB1803431343F5D0C9434918FFBD0000A1
:10529000FF07000000B5FFF7CFFF01D0002000BDE1
:1052A000012000BD00B5FFF7C7FF804100BDC0462B
:1052B00000B5FFF7C1FF01D9002000BD012000BDEE
:1052C00000B5FFF7B1FF01D9002000BD012000BDEE
:1052D00000B5FFF7A9FF804100BD012040054A004D
:1052E000121804D85A00121801D800207047012063
:1052F00070470020704700000021002805D170474A
:10530000C1174840401AFAD0C90713B5064B1B68AD
:1053100098470CBC441CA2401005120B0349091B02
:1053200009051943114310BD94DB00201F04000040
:1053300010B54C00620D8023D218DB00D21A5B0539
:105340007E2A10DD9E3A13DACC1709034908194367
:105350005242D140640001341532202A05DAD0408F
:105360000843604310BD002010BD0846604310BDD7
:10537000C80FC018013810BD18B4044B5B6AFC4656
:10538000019308BD24DFF5590010000094D90020D6
:1053900018B4044BDB6DFC46019308BD5CDFFD5A7D
:1053A0000010000094D90020C94211D300B5490073
:1053B0004908002200F018F8002904D400224042D5
:1053C0008A41114600BD80210906002000BD000071
:1053D00018B4044BDB6EFC46019308BD6CDF035A26
:1053E0000010000094D9002018B4044B9B6FFC46B9
:1053F000019308BD78DF1F5A0010000094D90020E7
:1054000018B4044BDB6FFC46019308BD7CDF895A5E
:105410000010000094D9002070B513231C78012CD3
:1054200007D0012C0EDC022C02DC1C4A1C4B9A64B7
:1054300070BD00231F2BF4D899001848184A8850D3
:105440000133F7E71748FFF725FC05001648FFF77B
:1054500021FC023803789B007F2B19DD8022290074
:105460000F4800F0FDFC022CDDD1104B1A88B5234B
:105470001B029A4209D10E4B1A880E4B9A4204D154
:105480000D4B1A880D4B9A42CDD00020FDF75EFFE0
:105490000B4B0C4A30210C48FDF73AFFCD5400105D
:1054A00094D90020534400005346000054380000B3
:1054B000D8380000494600009C38000059460000DA
:1054C00090DF001044E00010F0DF001007B56046E8
:1054D000002800D100BE01880A0A0230DF2AFAD172
:1054E000C9B2820804D3028840880004104300E057
:1054F0000068024A5050039007BD000094D9002074
:105500000FB403BC0CBCF0B50124E407634000E019
:10551000F0B50C0DCF0F661E3605891B640503D34D
:10552000C943404200D30131640D03D0661CF60A22
:1055300007D0E41B00207F00791C89078912803C7A
:1055400024031D0DDF0F6E1E36059B1B6D0503D357
:10555000DB43524200D301336D0D03D06E1CF60ABB
:1055600007D0ED1B00227F007B1C9B079B12803D18
:105570002D032F1B661B58D4A446202E46DA203755
:105580001400BC401D00BD40F24033412A43801846
:105590005941CB0F05D0C943C0430022644250415A
:1055A000514162464D0D28D10D0D07D100281FD065
:1055B000241940414941013A0D0DF9D0640006D348
:1055C000013000D30131002C01D140084000013AE4
:1055D0000BD4941CE40A04D112051144DB071944CE
:1055E000F0BDD907204B194300E0D9070020F0BDDA
:1055F0000029DDD1002CDBD1F0BD0132C607400807
:10560000CD0728434908002EE1D0D9E73C2E29DAFE
:10561000203E40371400BC4000D00124F240144327
:105620001A00BB401C43D317ACE7AC46202F08DA66
:1056300020360400B4400D00B540F84039412843FD
:10564000A5E73C2F0CDA203F40360400B44000D0E0
:105650000124F84004430800B1400C43C117EAE7B5
:1056600010001900002494E70000F07FF0B50C0D45
:10567000661E3605891BE60A6405640D02D0651CAA
:10568000ED0A04D0002001210905803C2403A44632
:105690001C0D671E3F05DB1BE70A6405640D02D085
:1056A000651CED0A04D0002201231B05803C240365
:1056B0007740644497B484B296B27443070C7E4337
:1056C000150C6F4380B26843361802D301200004E2
:1056D0003F183004350C00197D41844688B29AB2D7
:1056E00050430C0C62431F0C7C438EB27E439219D4
:1056F00002D301263604A4191604170C3618674184
:1057000001BC81B29AB25143040C62431B0C5C434E
:1057100080B25843121802D3012000042418100448
:10572000130C401863412D185E410020474106BC10
:1057300088B293B258430C0C6343120C544389B2A1
:1057400051435B1802D301210904641819041A0C8F
:10575000091862416D1856410020474118BCF902F2
:10576000720D1143F0026A0D1043ED020A0D03D1D0
:105770006D1940414941013B124E9B1B7600B342DB
:105780000ED26D0007D301300026714166463543C5
:1057900001D1400840001B05C918E4072144F0BDB1
:1057A0000BDA013306D1013004D101314F0D01D0A4
:1057B0004908F2E7E1070020F0BD0136310500207D
:1057C000EBE70000FF030000F0B51C0D671E3F056E
:1057D000DB1BE70A6405640D02D0661CF60A04D0E0
:1057E000002201231B05803C2403D0252D06002622
:1057F000F6432E661E096E66CE0FF619B4464900B2
:105800004F0D02D07E1CF60A03D000200021403F3D
:105810003F033E1BB600B444013F7F05C91B490846
:105820002E6F013676089C02950D25437543ED13C6
:105830007543AD1301356D10F603761B0CB4CC0225
:10584000450D2C43A2B2B3B25A43270C7B43350C0F
:105850006F43A4B26C431B1902D3012424043F19E3
:105860001C041D0CA4187D4124196D41009A91B2AD
:10587000ACB26143170C7C432B0C5F4392B25A438A
:10588000A41802D301221204BF182204230C5218B8
:105890007B41019C6C431B19520ED9010A43440100
:1058A000A01A81B2B2B2514303145A43360C734367
:1058B00087B27743D617D21900277E4136049B1949
:1058C0001704160C7F185E417316ED18F3010026BD
:1058D00080337541A90F06D16400690AE8055B0AA7
:1058E000184309D22FE00422944480337541A90A59
:1058F000A8059B0A184326D3404149412404009A35
:10590000019B0D005543641B4343E41A95B286B2D4
:105910007543170C7E43030C5F4392B25A43B6188B
:1059200002D301221204BF183204330C52197B41F6
:1059300052429C41002C02D40022013051414008C7
:10594000CA071043490802B06246D7079210084BB5
:10595000D218084B9A4203D212058918C919F0BD12
:105960000020002A01DC3900F0BD01331905F5E7FC
:10597000FD030000FE070000624618CA9446002995
:105980001ADAC01861415B463B415C46B44052465E
:10599000FA40224344464D4662416B419046994647
:1059A0002B46B3403D41FC401C4352465B46A2415E
:1059B000AB4192469B467047C01AA1414B463B41C2
:1059C0004C46B4404246FA40224354465D4662414A
:1059D0006B4192469B462B46B3403D41FC401C43E5
:1059E00042464B46A241AB41904699467047002043
:1059F00000217047002200B5203200F010F80800A6
:105A000000BD002200B500F00CF8CA179A4200D180
:105A100000BDD8430121C907414000BD00220B153C
:105A2000E5D410B5944600F0A5F81414013400DA5A
:105A30000021CB17134C20476244343A0CD40C2A73
:105A400007DA04009140904052422032D440214372
:105A500010BDD843D94310BD203207D40C46944022
:105A6000524220321141D040204310BD0800C917D6
:105A7000203203D452422032104110BD18001900C8
:105A800010BD0000395A00104A00520D144BD21AB2
:105A900013DDFF2A1EDAD205CB0FDB071A43C30042
:105AA000400F0903490A084310435B0001D301D0AA
:105AB000013070474308FBD2704702D0C80FC007BF
:105AC00070470A0312130132F8D1420F072AF5D1A9
:105AD000012200E0FF22C80F00028018C0057047B5
